{
  "contractName": "Customers",
  "abi": [
    {
      "constant": true,
      "inputs": [
        {
          "name": "",
          "type": "uint256"
        }
      ],
      "name": "clientAccts",
      "outputs": [
        {
          "name": "",
          "type": "uint256"
        }
      ],
      "payable": false,
      "stateMutability": "view",
      "type": "function"
    },
    {
      "inputs": [
        {
          "name": "args",
          "type": "bytes32[]"
        }
      ],
      "payable": false,
      "stateMutability": "nonpayable",
      "type": "constructor"
    },
    {
      "constant": false,
      "inputs": [
        {
          "name": "_cid",
          "type": "uint256"
        },
        {
          "name": "_cname",
          "type": "bytes32"
        },
        {
          "name": "_cdob",
          "type": "int256"
        },
        {
          "name": "_clicencenum",
          "type": "int256"
        },
        {
          "name": "_cstreet",
          "type": "bytes32"
        },
        {
          "name": "_ctown",
          "type": "bytes32"
        },
        {
          "name": "_ccounty",
          "type": "bytes32"
        }
      ],
      "name": "setClient",
      "outputs": [],
      "payable": true,
      "stateMutability": "payable",
      "type": "function"
    },
    {
      "constant": true,
      "inputs": [],
      "name": "getClients",
      "outputs": [
        {
          "name": "",
          "type": "uint256[]"
        }
      ],
      "payable": false,
      "stateMutability": "view",
      "type": "function"
    },
    {
      "constant": true,
      "inputs": [
        {
          "name": "_cid",
          "type": "uint256"
        }
      ],
      "name": "getClient",
      "outputs": [
        {
          "name": "",
          "type": "uint256"
        },
        {
          "name": "",
          "type": "bytes32"
        },
        {
          "name": "",
          "type": "int256"
        },
        {
          "name": "",
          "type": "int256"
        },
        {
          "name": "",
          "type": "bytes32"
        },
        {
          "name": "",
          "type": "bytes32"
        },
        {
          "name": "",
          "type": "bytes32"
        }
      ],
      "payable": false,
      "stateMutability": "view",
      "type": "function"
    },
    {
      "constant": true,
      "inputs": [],
      "name": "countClients",
      "outputs": [
        {
          "name": "",
          "type": "uint256"
        }
      ],
      "payable": false,
      "stateMutability": "view",
      "type": "function"
    },
    {
      "constant": true,
      "inputs": [
        {
          "name": "_cname",
          "type": "bytes32"
        }
      ],
      "name": "getCustomerByName",
      "outputs": [
        {
          "name": "",
          "type": "uint256"
        },
        {
          "name": "",
          "type": "bytes32"
        },
        {
          "name": "",
          "type": "int256"
        },
        {
          "name": "",
          "type": "int256"
        },
        {
          "name": "",
          "type": "bytes32"
        },
        {
          "name": "",
          "type": "bytes32"
        },
        {
          "name": "",
          "type": "bytes32"
        }
      ],
      "payable": false,
      "stateMutability": "view",
      "type": "function"
    },
    {
      "constant": false,
      "inputs": [
        {
          "name": "source",
          "type": "string"
        }
      ],
      "name": "stringToBytes32",
      "outputs": [
        {
          "name": "result",
          "type": "bytes32"
        }
      ],
      "payable": false,
      "stateMutability": "nonpayable",
      "type": "function"
    }
  ],
  "bytecode": "0x60806040523480156200001157600080fd5b50604051620011c8380380620011c88339810180604052810190808051820192919050505062000195610fa16200008c6040805190810160405280600581526020017f4a6f686e73000000000000000000000000000000000000000000000000000000815250620009d7640100000000026401000000009004565b620172db613044620000e26040805190810160405280600d81526020017f31392042616c6c656e7472656500000000000000000000000000000000000000815250620009d7640100000000026401000000009004565b620001316040805190810160405280600b81526020017f436173746c656b6e6f636b000000000000000000000000000000000000000000815250620009d7640100000000026401000000009004565b620001806040805190810160405280600681526020017f4475626c696e0000000000000000000000000000000000000000000000000000815250620009d7640100000000026401000000009004565b62000a04640100000000026401000000009004565b620002f5610fa2620001eb6040805190810160405280600481526020017f4d61726b00000000000000000000000000000000000000000000000000000000815250620009d7640100000000026401000000009004565b620172da62018624620002426040805190810160405280600c81526020017f4f6c64746f776e686f7573650000000000000000000000000000000000000000815250620009d7640100000000026401000000009004565b620002916040805190810160405280600e81526020017f426c616e636861726473746f776e000000000000000000000000000000000000815250620009d7640100000000026401000000009004565b620002e06040805190810160405280600681526020017f4475626c696e0000000000000000000000000000000000000000000000000000815250620009d7640100000000026401000000009004565b62000a04640100000000026401000000009004565b62000454610fa36200034b6040805190810160405280600581526020017f436f6c696e000000000000000000000000000000000000000000000000000000815250620009d7640100000000026401000000009004565b627bee8f618707620003a16040805190810160405280601481526020017f4472657272796f6c616d205061726b686f757365000000000000000000000000815250620009d7640100000000026401000000009004565b620003f06040805190810160405280600581526020017f486f777468000000000000000000000000000000000000000000000000000000815250620009d7640100000000026401000000009004565b6200043f6040805190810160405280600681526020017f4475626c696e0000000000000000000000000000000000000000000000000000815250620009d7640100000000026401000000009004565b62000a04640100000000026401000000009004565b620005b3610fa4620004aa6040805190810160405280600681526020017f52616368656c0000000000000000000000000000000000000000000000000000815250620009d7640100000000026401000000009004565b627bee8f61bdbc620005006040805190810160405280601481526020017f4472657272796f6c616d205061726b686f757365000000000000000000000000815250620009d7640100000000026401000000009004565b6200054f6040805190810160405280600581526020017f486f777468000000000000000000000000000000000000000000000000000000815250620009d7640100000000026401000000009004565b6200059e6040805190810160405280600681526020017f4475626c696e0000000000000000000000000000000000000000000000000000815250620009d7640100000000026401000000009004565b62000a04640100000000026401000000009004565b62000712610fa5620006096040805190810160405280600681526020017f73696e6561640000000000000000000000000000000000000000000000000000815250620009d7640100000000026401000000009004565b627bee8f61e46b6200065f6040805190810160405280601481526020017f4472657272796f6c616d205061726b686f757365000000000000000000000000815250620009d7640100000000026401000000009004565b620006ae6040805190810160405280600581526020017f486f777468000000000000000000000000000000000000000000000000000000815250620009d7640100000000026401000000009004565b620006fd6040805190810160405280600681526020017f4475626c696e0000000000000000000000000000000000000000000000000000815250620009d7640100000000026401000000009004565b62000a04640100000000026401000000009004565b62000871610fa6620007686040805190810160405280600581526020017f526f62696e000000000000000000000000000000000000000000000000000000815250620009d7640100000000026401000000009004565b627bee8f61289b620007be6040805190810160405280601481526020017f4472657272796f6c616d205061726b686f757365000000000000000000000000815250620009d7640100000000026401000000009004565b6200080d6040805190810160405280600581526020017f486f777468000000000000000000000000000000000000000000000000000000815250620009d7640100000000026401000000009004565b6200085c6040805190810160405280600681526020017f4475626c696e0000000000000000000000000000000000000000000000000000815250620009d7640100000000026401000000009004565b62000a04640100000000026401000000009004565b620009d0610fa7620008c76040805190810160405280600781526020017f4d69636861656c00000000000000000000000000000000000000000000000000815250620009d7640100000000026401000000009004565b627bee8f616fb46200091d6040805190810160405280601481526020017f4472657272796f6c616d205061726b686f757365000000000000000000000000815250620009d7640100000000026401000000009004565b6200096c6040805190810160405280600581526020017f486f777468000000000000000000000000000000000000000000000000000000815250620009d7640100000000026401000000009004565b620009bb6040805190810160405280600681526020017f4475626c696e0000000000000000000000000000000000000000000000000000815250620009d7640100000000026401000000009004565b62000a04640100000000026401000000009004565b5062000aa1565b60006060829050600081511415620009f65760006001029150620009fe565b602083015191505b50919050565b6000806000898152602001908152602001600020905087816000018190555086816001018160001916905550858160020181905550848160030181905550838160040181600019169055508281600501816000191690555081816006018160001916905550600180899080600181540180825580915050906001820390600052602060002001600090919290919091505550505050505050505050565b6107178062000ab16000396000f300608060405260043610610083576000357c0100000000000000000000000000000000000000000000000000000000900463ffffffff1680636db80995146100885780638463bcf5146100f4578063be9bfffe1461011f578063cfb5192814610160578063d0068f80146101e5578063fcaad58f14610270578063ff2d4f27146102dc575b600080fd5b34801561009457600080fd5b5061009d61036b565b6040518080602001828103825283818151815260200191508051906020019060200280838360005b838110156100e05780820151818401526020810190506100c5565b505050509050019250505060405180910390f35b34801561010057600080fd5b506101096103c3565b6040518082815260200191505060405180910390f35b34801561012b57600080fd5b5061014a600480360381019080803590602001909291905050506103d0565b6040518082815260200191505060405180910390f35b34801561016c57600080fd5b506101c7600480360381019080803590602001908201803590602001908080601f01602080910402602001604051908101604052809392919081815260200183838082843782019150505050505091929192905050506103f3565b60405180826000191660001916815260200191505060405180910390f35b3480156101f157600080fd5b506102106004803603810190808035906020019092919050505061041e565b60405180888152602001876000191660001916815260200186815260200185815260200184600019166000191681526020018360001916600019168152602001826000191660001916815260200197505050505050505060405180910390f35b6102da60048036038101908080359060200190929190803560001916906020019092919080359060200190929190803590602001909291908035600019169060200190929190803560001916906020019092919080356000191690602001909291905050506104dc565b005b3480156102e857600080fd5b5061030b6004803603810190808035600019169060200190929190505050610579565b60405180888152602001876000191660001916815260200186815260200185815260200184600019166000191681526020018360001916600019168152602001826000191660001916815260200197505050505050505060405180910390f35b606060018054806020026020016040519081016040528092919081815260200182805480156103b957602002820191906000526020600020905b8154815260200190600101908083116103a5575b5050505050905090565b6000600180549050905090565b6001818154811015156103df57fe5b906000526020600020016000915090505481565b600060608290506000815114156104105760006001029150610418565b602083015191505b50919050565b6000806000806000806000806000898152602001908152602001600020600001546000808a8152602001908152602001600020600101546000808b8152602001908152602001600020600201546000808c8152602001908152602001600020600301546000808d8152602001908152602001600020600401546000808e8152602001908152602001600020600501546000808f8152602001908152602001600020600601549650965096509650965096509650919395979092949650565b6000806000898152602001908152602001600020905087816000018190555086816001018160001916905550858160020181905550848160030181905550838160040181600019169055508281600501816000191690555081816006018160001916905550600180899080600181540180825580915050906001820390600052602060002001600090919290919091505550505050505050505050565b6000806000806000806000806000806000806001805490509450600092505b84831015610633576001838154811015156105af57fe5b9060005260206000200154915060008083815260200190815260200160002090508c6040518082600019166000191681526020019150506040518091039020600019168160010154604051808260001916600019168152602001915050604051809103902060001916141561062657819350610633565b8280600101935050610598565b60008085815260200190815260200160002060000154600080868152602001908152602001600020600101546000808781526020019081526020016000206002015460008088815260200190815260200160002060030154600080898152602001908152602001600020600401546000808a8152602001908152602001600020600501546000808b8152602001908152602001600020600601549b509b509b509b509b509b509b5050505050509193959790929496505600a165627a7a72305820ad7b56bc343836e7e38d95863e83b27330a839d3e3644b1394824aff6c9649640029",
  "source": "pragma solidity ^0.4.18;\ncontract Customers {\n\n    struct Client {\n        uint cid;\n        bytes32 cname;\n        int cdob;\n        int clicencenum;\n        bytes32 cstreet;\n        bytes32 ctown;\n        bytes32 ccounty;\n    }\n    mapping (uint => Client) c;\n    uint[] public clientAccts;\n\n    constructor(bytes32[] args) public {\n      setClient(4001, stringToBytes32(\"Johns\"), 94939, 12356, stringToBytes32(\"19 Ballentree\"), stringToBytes32(\"Castleknock\"), stringToBytes32(\"Dublin\"));\n      setClient(4002, stringToBytes32(\"Mark\"), 94938, 99876, stringToBytes32(\"Oldtownhouse\"), stringToBytes32(\"Blanchardstown\"), stringToBytes32(\"Dublin\"));\n      setClient(4003, stringToBytes32(\"Colin\"), 8121999, 34567, stringToBytes32(\"Drerryolam Parkhouse\"), stringToBytes32(\"Howth\"), stringToBytes32(\"Dublin\"));\n      setClient(4004, stringToBytes32(\"Rachel\"), 8121999, 48572, stringToBytes32(\"Drerryolam Parkhouse\"), stringToBytes32(\"Howth\"), stringToBytes32(\"Dublin\"));\n      setClient(4005, stringToBytes32(\"sinead\"), 8121999, 58475, stringToBytes32(\"Drerryolam Parkhouse\"), stringToBytes32(\"Howth\"), stringToBytes32(\"Dublin\"));\n      setClient(4006, stringToBytes32(\"Robin\"), 8121999, 10395, stringToBytes32(\"Drerryolam Parkhouse\"), stringToBytes32(\"Howth\"), stringToBytes32(\"Dublin\"));\n      setClient(4007, stringToBytes32(\"Michael\"), 8121999, 28596, stringToBytes32(\"Drerryolam Parkhouse\"), stringToBytes32(\"Howth\"), stringToBytes32(\"Dublin\"));\n    }\n\n    function setClient(uint _cid, bytes32 _cname, int _cdob, int _clicencenum, bytes32 _cstreet, bytes32 _ctown, bytes32 _ccounty) public payable{\n        Client storage customer = c[_cid];\n\n        customer.cid = _cid;\n        customer.cname = _cname;\n        customer.cdob = _cdob;\n        customer.clicencenum = _clicencenum;\n        customer.cstreet = _cstreet;\n        customer.ctown = _ctown;\n        customer.ccounty = _ccounty;\n\n        clientAccts.push(_cid) -1;\n    }\n\n    function getClients() view public returns(uint[]) {\n        return clientAccts;\n    }\n\n    function getClient(uint _cid) view public returns (uint, bytes32, int, int, bytes32, bytes32, bytes32) {\n        return (c[_cid].cid, c[_cid].cname, c[_cid].cdob, c[_cid].clicencenum, c[_cid].cstreet, c[_cid].ctown, c[_cid].ccounty);\n    }\n\n    function countClients() view public returns (uint) {\n        return clientAccts.length;\n    }\n\n    function getCustomerByName(bytes32 _cname) view public returns (uint, bytes32, int, int, bytes32, bytes32, bytes32) {\n        uint clientsCount = clientAccts.length;\n        uint clientid;\n        for (uint i=0; i<clientsCount; i++) {\n            uint personid = clientAccts[i];\n            Client storage customer =  c[personid];\n            if(keccak256(customer.cname) == keccak256(_cname)){\n                clientid = personid;\n                break;\n            }\n        }\n        return (c[clientid].cid, c[clientid].cname, c[clientid].cdob, c[clientid].clicencenum, c[clientid].cstreet, c[clientid].ctown, c[clientid].ccounty);\n\n    }\n\n    function stringToBytes32(string memory source) returns (bytes32 result) {\n      bytes memory tempEmptyStringTest = bytes(source);\n      if (tempEmptyStringTest.length == 0) {\n          return 0x0;\n      }\n\n      assembly {\n          result := mload(add(source, 32))\n      }\n    }\n\n\n}\n",
  "sourcePath": "/Users/johnsgeorge/Desktop/CarApplication/CarBackEnd/contracts/Customers.sol",
  "compiler": {
    "name": "solc",
    "version": "0.4.24+commit.e67f0147.Emscripten.clang"
  },
  "schemaVersion": "2.0.0",
  "updatedAt": "2018-08-08T17:48:54.075Z"
}