{
  "contractName": "Customers",
  "abi": [
    {
      "constant": true,
      "inputs": [
        {
          "name": "",
          "type": "uint256"
        }
      ],
      "name": "clientAccts",
      "outputs": [
        {
          "name": "",
          "type": "uint256"
        }
      ],
      "payable": false,
      "stateMutability": "view",
      "type": "function"
    },
    {
      "constant": false,
      "inputs": [
        {
          "name": "_cid",
          "type": "uint256"
        },
        {
          "name": "_cname",
          "type": "bytes32"
        },
        {
          "name": "_cdob",
          "type": "int256"
        },
        {
          "name": "_clicencenum",
          "type": "int256"
        },
        {
          "name": "_cstreet",
          "type": "bytes32"
        },
        {
          "name": "_ctown",
          "type": "bytes32"
        },
        {
          "name": "_ccounty",
          "type": "bytes32"
        }
      ],
      "name": "setClient",
      "outputs": [],
      "payable": true,
      "stateMutability": "payable",
      "type": "function"
    },
    {
      "constant": true,
      "inputs": [],
      "name": "getClients",
      "outputs": [
        {
          "name": "",
          "type": "uint256[]"
        }
      ],
      "payable": false,
      "stateMutability": "view",
      "type": "function"
    },
    {
      "constant": true,
      "inputs": [
        {
          "name": "_cid",
          "type": "uint256"
        }
      ],
      "name": "getClient",
      "outputs": [
        {
          "name": "",
          "type": "uint256"
        },
        {
          "name": "",
          "type": "bytes32"
        },
        {
          "name": "",
          "type": "int256"
        },
        {
          "name": "",
          "type": "int256"
        },
        {
          "name": "",
          "type": "bytes32"
        },
        {
          "name": "",
          "type": "bytes32"
        },
        {
          "name": "",
          "type": "bytes32"
        }
      ],
      "payable": false,
      "stateMutability": "view",
      "type": "function"
    },
    {
      "constant": true,
      "inputs": [],
      "name": "countClients",
      "outputs": [
        {
          "name": "",
          "type": "uint256"
        }
      ],
      "payable": false,
      "stateMutability": "view",
      "type": "function"
    },
    {
      "constant": true,
      "inputs": [
        {
          "name": "_cname",
          "type": "bytes32"
        }
      ],
      "name": "getCustomerByName",
      "outputs": [
        {
          "name": "",
          "type": "uint256"
        },
        {
          "name": "",
          "type": "bytes32"
        },
        {
          "name": "",
          "type": "int256"
        },
        {
          "name": "",
          "type": "int256"
        },
        {
          "name": "",
          "type": "bytes32"
        },
        {
          "name": "",
          "type": "bytes32"
        },
        {
          "name": "",
          "type": "bytes32"
        }
      ],
      "payable": false,
      "stateMutability": "view",
      "type": "function"
    }
  ],
  "bytecode": "0x608060405234801561001057600080fd5b5061065c806100206000396000f300608060405260043610610078576000357c0100000000000000000000000000000000000000000000000000000000900463ffffffff1680636db809951461007d5780638463bcf5146100e9578063be9bfffe14610114578063d0068f8014610155578063fcaad58f146101e0578063ff2d4f271461024c575b600080fd5b34801561008957600080fd5b506100926102db565b6040518080602001828103825283818151815260200191508051906020019060200280838360005b838110156100d55780820151818401526020810190506100ba565b505050509050019250505060405180910390f35b3480156100f557600080fd5b506100fe610333565b6040518082815260200191505060405180910390f35b34801561012057600080fd5b5061013f60048036038101908080359060200190929190505050610340565b6040518082815260200191505060405180910390f35b34801561016157600080fd5b5061018060048036038101908080359060200190929190505050610363565b60405180888152602001876000191660001916815260200186815260200185815260200184600019166000191681526020018360001916600019168152602001826000191660001916815260200197505050505050505060405180910390f35b61024a6004803603810190808035906020019092919080356000191690602001909291908035906020019092919080359060200190929190803560001916906020019092919080356000191690602001909291908035600019169060200190929190505050610421565b005b34801561025857600080fd5b5061027b60048036038101908080356000191690602001909291905050506104be565b60405180888152602001876000191660001916815260200186815260200185815260200184600019166000191681526020018360001916600019168152602001826000191660001916815260200197505050505050505060405180910390f35b6060600180548060200260200160405190810160405280929190818152602001828054801561032957602002820191906000526020600020905b815481526020019060010190808311610315575b5050505050905090565b6000600180549050905090565b60018181548110151561034f57fe5b906000526020600020016000915090505481565b6000806000806000806000806000898152602001908152602001600020600001546000808a8152602001908152602001600020600101546000808b8152602001908152602001600020600201546000808c8152602001908152602001600020600301546000808d8152602001908152602001600020600401546000808e8152602001908152602001600020600501546000808f8152602001908152602001600020600601549650965096509650965096509650919395979092949650565b6000806000898152602001908152602001600020905087816000018190555086816001018160001916905550858160020181905550848160030181905550838160040181600019169055508281600501816000191690555081816006018160001916905550600180899080600181540180825580915050906001820390600052602060002001600090919290919091505550505050505050505050565b6000806000806000806000806000806000806001805490509450600092505b84831015610578576001838154811015156104f457fe5b9060005260206000200154915060008083815260200190815260200160002090508c6040518082600019166000191681526020019150506040518091039020600019168160010154604051808260001916600019168152602001915050604051809103902060001916141561056b57819350610578565b82806001019350506104dd565b60008085815260200190815260200160002060000154600080868152602001908152602001600020600101546000808781526020019081526020016000206002015460008088815260200190815260200160002060030154600080898152602001908152602001600020600401546000808a8152602001908152602001600020600501546000808b8152602001908152602001600020600601549b509b509b509b509b509b509b5050505050509193959790929496505600a165627a7a72305820ad16c43e66279de2d7e77897a902a653e8897834069732b616635ba5bd1faa800029",
  "source": "pragma solidity ^0.4.18;\ncontract Customers {\n\n    struct Client {\n        uint cid;\n        bytes32 cname;\n        int cdob;\n        int clicencenum;\n        bytes32 cstreet;\n        bytes32 ctown;\n        bytes32 ccounty;\n    }\n    mapping (uint => Client) c;\n    uint[] public clientAccts;\n\n    function setClient(uint _cid, bytes32 _cname, int _cdob, int _clicencenum, bytes32 _cstreet, bytes32 _ctown, bytes32 _ccounty) public payable{\n        Client storage customer = c[_cid];\n\n        customer.cid = _cid;\n        customer.cname = _cname;\n        customer.cdob = _cdob;\n        customer.clicencenum = _clicencenum;\n        customer.cstreet = _cstreet;\n        customer.ctown = _ctown;\n        customer.ccounty = _ccounty;\n\n        clientAccts.push(_cid) -1;\n    }\n\n    function getClients() view public returns(uint[]) {\n        return clientAccts;\n    }\n\n    function getClient(uint _cid) view public returns (uint, bytes32, int, int, bytes32, bytes32, bytes32) {\n        return (c[_cid].cid, c[_cid].cname, c[_cid].cdob, c[_cid].clicencenum, c[_cid].cstreet, c[_cid].ctown, c[_cid].ccounty);\n    }\n\n    function countClients() view public returns (uint) {\n        return clientAccts.length;\n    }\n\n    function getCustomerByName(bytes32 _cname) view public returns (uint, bytes32, int, int, bytes32, bytes32, bytes32) {\n        uint clientsCount = clientAccts.length;\n        uint clientid;\n        for (uint i=0; i<clientsCount; i++) {\n            uint personid = clientAccts[i];\n            Client storage customer =  c[personid];\n            if(keccak256(customer.cname) == keccak256(_cname)){\n                clientid = personid;\n                break;\n            }\n        }\n        return (c[clientid].cid, c[clientid].cname, c[clientid].cdob, c[clientid].clicencenum, c[clientid].cstreet, c[clientid].ctown, c[clientid].ccounty);\n\n    }\n\n\n}\n",
  "sourcePath": "/Users/johnsgeorge/Desktop/CarApplication/CarBackEnd/contracts/Customers.sol",
  "compiler": {
    "name": "solc",
    "version": "0.4.24+commit.e67f0147.Emscripten.clang"
  },
  "schemaVersion": "2.0.0",
  "updatedAt": "2018-07-31T15:14:06.629Z"
}