{
  "contractName": "Dealers",
  "abi": [
    {
      "constant": true,
      "inputs": [
        {
          "name": "",
          "type": "uint256"
        }
      ],
      "name": "dealerAccts",
      "outputs": [
        {
          "name": "",
          "type": "uint256"
        }
      ],
      "payable": false,
      "stateMutability": "view",
      "type": "function"
    },
    {
      "inputs": [
        {
          "name": "args",
          "type": "bytes32[]"
        }
      ],
      "payable": false,
      "stateMutability": "nonpayable",
      "type": "constructor"
    },
    {
      "constant": false,
      "inputs": [
        {
          "name": "_did",
          "type": "uint256"
        },
        {
          "name": "_dname",
          "type": "bytes32"
        },
        {
          "name": "_dphone",
          "type": "int256"
        },
        {
          "name": "_dstreet",
          "type": "bytes32"
        },
        {
          "name": "_dtown",
          "type": "bytes32"
        },
        {
          "name": "_dcounty",
          "type": "bytes32"
        }
      ],
      "name": "setDealer",
      "outputs": [],
      "payable": true,
      "stateMutability": "payable",
      "type": "function"
    },
    {
      "constant": true,
      "inputs": [],
      "name": "getDealers",
      "outputs": [
        {
          "name": "",
          "type": "uint256[]"
        }
      ],
      "payable": false,
      "stateMutability": "view",
      "type": "function"
    },
    {
      "constant": true,
      "inputs": [
        {
          "name": "_did",
          "type": "uint256"
        }
      ],
      "name": "getDealer",
      "outputs": [
        {
          "name": "",
          "type": "uint256"
        },
        {
          "name": "",
          "type": "bytes32"
        },
        {
          "name": "",
          "type": "int256"
        },
        {
          "name": "",
          "type": "bytes32"
        },
        {
          "name": "",
          "type": "bytes32"
        },
        {
          "name": "",
          "type": "bytes32"
        }
      ],
      "payable": false,
      "stateMutability": "view",
      "type": "function"
    },
    {
      "constant": true,
      "inputs": [],
      "name": "countDealers",
      "outputs": [
        {
          "name": "",
          "type": "uint256"
        }
      ],
      "payable": false,
      "stateMutability": "view",
      "type": "function"
    },
    {
      "constant": true,
      "inputs": [
        {
          "name": "_dname",
          "type": "string"
        }
      ],
      "name": "getDealerByName",
      "outputs": [
        {
          "name": "",
          "type": "uint256"
        },
        {
          "name": "",
          "type": "bytes32"
        },
        {
          "name": "",
          "type": "int256"
        },
        {
          "name": "",
          "type": "bytes32"
        },
        {
          "name": "",
          "type": "bytes32"
        },
        {
          "name": "",
          "type": "bytes32"
        }
      ],
      "payable": false,
      "stateMutability": "view",
      "type": "function"
    },
    {
      "constant": true,
      "inputs": [
        {
          "name": "_dealerID",
          "type": "uint256"
        }
      ],
      "name": "isADealer",
      "outputs": [
        {
          "name": "",
          "type": "bool"
        }
      ],
      "payable": false,
      "stateMutability": "view",
      "type": "function"
    },
    {
      "constant": false,
      "inputs": [
        {
          "name": "source",
          "type": "string"
        }
      ],
      "name": "stringToBytes32",
      "outputs": [
        {
          "name": "result",
          "type": "bytes32"
        }
      ],
      "payable": false,
      "stateMutability": "nonpayable",
      "type": "function"
    }
  ],
  "bytecode": "0x60806040523480156200001157600080fd5b5060405162000cff38038062000cff8339810180604052810190808051820192919050505062000191610bb96200008c6040805190810160405280600d81526020017f4a6f652d447566667920424d57000000000000000000000000000000000000008152506200044e640100000000026401000000009004565b613039620000de6040805190810160405280600b81526020017f3131204e6f7274682052640000000000000000000000000000000000000000008152506200044e640100000000026401000000009004565b6200012d6040805190810160405280600b81526020017f436861726c6573746f776e0000000000000000000000000000000000000000008152506200044e640100000000026401000000009004565b6200017c6040805190810160405280600681526020017f4475626c696e00000000000000000000000000000000000000000000000000008152506200044e640100000000026401000000009004565b6200047b640100000000026401000000009004565b620002ec610bba620001e76040805190810160405280600e81526020017f4a6f652d447566667920417564690000000000000000000000000000000000008152506200044e640100000000026401000000009004565b613039620002396040805190810160405280600a81526020017f4e6f727468205061726b000000000000000000000000000000000000000000008152506200044e640100000000026401000000009004565b620002886040805190810160405280600b81526020017f436861726c6573746f776e0000000000000000000000000000000000000000008152506200044e640100000000026401000000009004565b620002d76040805190810160405280600681526020017f4475626c696e00000000000000000000000000000000000000000000000000008152506200044e640100000000026401000000009004565b6200047b640100000000026401000000009004565b62000447610bbb620003426040805190810160405280601581526020017f42726164792773204d657263656465732d42656e7a00000000000000000000008152506200044e640100000000026401000000009004565b613039620003946040805190810160405280600c81526020017f4f6c64204e6176616e20526400000000000000000000000000000000000000008152506200044e640100000000026401000000009004565b620003e36040805190810160405280600b81526020017f436173746c656b6e6f636b0000000000000000000000000000000000000000008152506200044e640100000000026401000000009004565b620004326040805190810160405280600681526020017f4475626c696e00000000000000000000000000000000000000000000000000008152506200044e640100000000026401000000009004565b6200047b640100000000026401000000009004565b506200050e565b600060608290506000815114156200046d576000600102915062000475565b602083015191505b50919050565b60008060008881526020019081526020016000209050868160000181905550858160010181600019169055508481600201819055508381600301816000191690555082816004018160001916905550818160050181600019169055506001808890806001815401808255809150509060018203906000526020600020016000909192909190915055505050505050505050565b6107e1806200051e6000396000f30060806040526004361061008d576000357c0100000000000000000000000000000000000000000000000000000000900463ffffffff168062093683146100925780634a2c2938146101165780636e00bd821461015757806385e0bb1e146102175780638a08e6cd14610242578063cfb51928146102ae578063d19d6b0814610333578063ee79b56914610395575b600080fd5b34801561009e57600080fd5b506100bd600480360381019080803590602001909291905050506103da565b604051808781526020018660001916600019168152602001858152602001846000191660001916815260200183600019166000191681526020018260001916600019168152602001965050505050505060405180910390f35b34801561012257600080fd5b506101416004803603810190808035906020019092919050505061047c565b6040518082815260200191505060405180910390f35b34801561016357600080fd5b506101be600480360381019080803590602001908201803590602001908080601f016020809104026020016040519081016040528093929190818152602001838380828437820191505050505050919291929050505061049f565b604051808781526020018660001916600019168152602001858152602001846000191660001916815260200183600019166000191681526020018260001916600019168152602001965050505050505060405180910390f35b34801561022357600080fd5b5061022c61063b565b6040518082815260200191505060405180910390f35b34801561024e57600080fd5b50610257610648565b6040518080602001828103825283818151815260200191508051906020019060200280838360005b8381101561029a57808201518184015260208101905061027f565b505050509050019250505060405180910390f35b3480156102ba57600080fd5b50610315600480360381019080803590602001908201803590602001908080601f01602080910402602001604051908101604052809392919081815260200183838082843782019150505050505091929192905050506106a0565b60405180826000191660001916815260200191505060405180910390f35b610393600480360381019080803590602001909291908035600019169060200190929190803590602001909291908035600019169060200190929190803560001916906020019092919080356000191690602001909291905050506106cb565b005b3480156103a157600080fd5b506103c06004803603810190808035906020019092919050505061075e565b604051808215151515815260200191505060405180910390f35b60008060008060008060008088815260200190815260200160002060000154600080898152602001908152602001600020600101546000808a8152602001908152602001600020600201546000808b8152602001908152602001600020600301546000808c8152602001908152602001600020600401546000808d81526020019081526020016000206005015495509550955095509550955091939550919395565b60018181548110151561048b57fe5b906000526020600020016000915090505481565b60008060008060008060008060008060006001805490509450600092505b8483101561059d576001838154811015156104d457fe5b9060005260206000200154915060008083815260200190815260200160002090508b6040518082805190602001908083835b60208310151561052b5780518252602082019150602081019050602083039250610506565b6001836020036101000a038019825116818451168082178552505050505050905001915050604051809103902060001916816001015460405180826000191660001916815260200191505060405180910390206000191614156105905781935061059d565b82806001019350506104bd565b60008085815260200190815260200160002060000154600080868152602001908152602001600020600101546000808781526020019081526020016000206002015460008088815260200190815260200160002060030154600080898152602001908152602001600020600401546000808a8152602001908152602001600020600501549a509a509a509a509a509a50505050505091939550919395565b6000600180549050905090565b6060600180548060200260200160405190810160405280929190818152602001828054801561069657602002820191906000526020600020905b815481526020019060010190808311610682575b5050505050905090565b600060608290506000815114156106bd57600060010291506106c5565b602083015191505b50919050565b60008060008881526020019081526020016000209050868160000181905550858160010181600019169055508481600201819055508381600301816000191690555082816004018160001916905550818160050181600019169055506001808890806001815401808255809150509060018203906000526020600020016000909192909190915055505050505050505050565b600080600090505b6001805490508110156107aa578260018281548110151561078357fe5b9060005260206000200154141561079d57600191506107af565b8080600101915050610766565b600091505b509190505600a165627a7a72305820a5dcef521db0c9327ad5e1d2a240053dac041853fe1ed04b6378ad3fc87156af0029",
  "source": "pragma solidity ^0.4.18;\ncontract Dealers {\n\n    struct Dealer {\n        uint did;\n        bytes32 dname;\n        int dphone;\n        bytes32 dstreet;\n        bytes32 dtown;\n        bytes32 dcounty;\n    }\n    mapping (uint => Dealer) d;\n    uint[] public dealerAccts;\n\n    constructor(bytes32[] args) public {\n      setDealer(3001, stringToBytes32(\"Joe-Duffy BMW\"), 12345, stringToBytes32(\"11 North Rd\"), stringToBytes32(\"Charlestown\"), stringToBytes32(\"Dublin\"));\n      setDealer(3002, stringToBytes32(\"Joe-Duffy Audi\"), 12345, stringToBytes32(\"North Park\"), stringToBytes32(\"Charlestown\"), stringToBytes32(\"Dublin\"));\n      setDealer(3003, stringToBytes32(\"Brady's Mercedes-Benz\"), 12345, stringToBytes32(\"Old Navan Rd\"), stringToBytes32(\"Castleknock\"), stringToBytes32(\"Dublin\"));\n    }\n\n    function setDealer(uint _did, bytes32 _dname, int _dphone, bytes32 _dstreet, bytes32 _dtown, bytes32 _dcounty) public payable{\n        Dealer storage deal = d[_did];\n\n        deal.did = _did;\n        deal.dname = _dname;\n        deal.dphone = _dphone;\n        deal.dstreet = _dstreet;\n        deal.dtown = _dtown;\n        deal.dcounty = _dcounty;\n\n        dealerAccts.push(_did) -1;\n    }\n\n    function getDealers() view public returns(uint[]) {\n        return dealerAccts;\n    }\n\n    function getDealer(uint _did) view public returns (uint, bytes32, int, bytes32, bytes32, bytes32) {\n        return (d[_did].did, d[_did].dname, d[_did].dphone, d[_did].dstreet, d[_did].dtown, d[_did].dcounty);\n    }\n\n    function countDealers() view public returns (uint) {\n        return dealerAccts.length;\n    }\n\n    function getDealerByName(string _dname) view public returns (uint, bytes32, int, bytes32, bytes32, bytes32) {\n        uint dealersCount = dealerAccts.length;\n        uint dealerid;\n        for (uint i=0; i<dealersCount; i++) {\n            uint did = dealerAccts[i];\n            Dealer storage deal =  d[did];\n            if(keccak256(deal.dname) == keccak256(_dname)){\n                dealerid = did;\n                break;\n            }\n        }\n        return (d[dealerid].did, d[dealerid].dname, d[dealerid].dphone, d[dealerid].dstreet, d[dealerid].dtown, d[dealerid].dcounty);\n\n    }\n\n    function isADealer(uint _dealerID) view public returns(bool) {\n        uint i = 0;\n        while (i < dealerAccts.length) {\n            if(dealerAccts[i] == _dealerID) {\n                return true;\n            }\n            i++;\n        }\n        return false;\n    }\n\n    function stringToBytes32(string memory source) returns (bytes32 result) {\n      bytes memory tempEmptyStringTest = bytes(source);\n      if (tempEmptyStringTest.length == 0) {\n          return 0x0;\n      }\n\n      assembly {\n          result := mload(add(source, 32))\n      }\n    }\n\n\n}\n",
  "sourcePath": "/Users/johnsgeorge/Desktop/CarApplication/CarBackEnd/contracts/Dealers.sol",
  "compiler": {
    "name": "solc",
    "version": "0.4.24+commit.e67f0147.Emscripten.clang"
  },
  "schemaVersion": "2.0.0",
  "updatedAt": "2018-08-17T21:59:42.822Z"
}