{
  "contractName": "Dealers",
  "abi": [
    {
      "constant": true,
      "inputs": [
        {
          "name": "",
          "type": "uint256"
        }
      ],
      "name": "dealerAccts",
      "outputs": [
        {
          "name": "",
          "type": "uint256"
        }
      ],
      "payable": false,
      "stateMutability": "view",
      "type": "function"
    },
    {
      "inputs": [
        {
          "name": "args",
          "type": "bytes32[]"
        }
      ],
      "payable": false,
      "stateMutability": "nonpayable",
      "type": "constructor"
    },
    {
      "constant": false,
      "inputs": [
        {
          "name": "_did",
          "type": "uint256"
        },
        {
          "name": "_dname",
          "type": "bytes32"
        },
        {
          "name": "_dphone",
          "type": "int256"
        },
        {
          "name": "_dstreet",
          "type": "bytes32"
        },
        {
          "name": "_dtown",
          "type": "bytes32"
        },
        {
          "name": "_dcounty",
          "type": "bytes32"
        }
      ],
      "name": "setDealer",
      "outputs": [],
      "payable": true,
      "stateMutability": "payable",
      "type": "function"
    },
    {
      "constant": true,
      "inputs": [],
      "name": "getDealers",
      "outputs": [
        {
          "name": "",
          "type": "uint256[]"
        }
      ],
      "payable": false,
      "stateMutability": "view",
      "type": "function"
    },
    {
      "constant": true,
      "inputs": [
        {
          "name": "_did",
          "type": "uint256"
        }
      ],
      "name": "getDealer",
      "outputs": [
        {
          "name": "",
          "type": "uint256"
        },
        {
          "name": "",
          "type": "bytes32"
        },
        {
          "name": "",
          "type": "int256"
        },
        {
          "name": "",
          "type": "bytes32"
        },
        {
          "name": "",
          "type": "bytes32"
        },
        {
          "name": "",
          "type": "bytes32"
        }
      ],
      "payable": false,
      "stateMutability": "view",
      "type": "function"
    },
    {
      "constant": true,
      "inputs": [],
      "name": "countDealers",
      "outputs": [
        {
          "name": "",
          "type": "uint256"
        }
      ],
      "payable": false,
      "stateMutability": "view",
      "type": "function"
    },
    {
      "constant": true,
      "inputs": [
        {
          "name": "_dname",
          "type": "string"
        }
      ],
      "name": "getDealerByName",
      "outputs": [
        {
          "name": "",
          "type": "uint256"
        },
        {
          "name": "",
          "type": "bytes32"
        },
        {
          "name": "",
          "type": "int256"
        },
        {
          "name": "",
          "type": "bytes32"
        },
        {
          "name": "",
          "type": "bytes32"
        },
        {
          "name": "",
          "type": "bytes32"
        }
      ],
      "payable": false,
      "stateMutability": "view",
      "type": "function"
    },
    {
      "constant": false,
      "inputs": [
        {
          "name": "source",
          "type": "string"
        }
      ],
      "name": "stringToBytes32",
      "outputs": [
        {
          "name": "result",
          "type": "bytes32"
        }
      ],
      "payable": false,
      "stateMutability": "nonpayable",
      "type": "function"
    }
  ],
  "bytecode": "0x608060405234801561001057600080fd5b50604051610c33380380610c3383398101806040528101908080518201929190505050610184610bb96100866040805190810160405280600d81526020017f4a6f652d447566667920424d570000000000000000000000000000000000000081525061042c640100000000026401000000009004565b6130396100d66040805190810160405280600b81526020017f3131204e6f72746820526400000000000000000000000000000000000000000081525061042c640100000000026401000000009004565b6101236040805190810160405280600b81526020017f436861726c6573746f776e00000000000000000000000000000000000000000081525061042c640100000000026401000000009004565b6101706040805190810160405280600681526020017f4475626c696e000000000000000000000000000000000000000000000000000081525061042c640100000000026401000000009004565b610457640100000000026401000000009004565b6102d5610bba6101d76040805190810160405280600e81526020017f4a6f652d4475666679204175646900000000000000000000000000000000000081525061042c640100000000026401000000009004565b6130396102276040805190810160405280600a81526020017f4e6f727468205061726b0000000000000000000000000000000000000000000081525061042c640100000000026401000000009004565b6102746040805190810160405280600b81526020017f436861726c6573746f776e00000000000000000000000000000000000000000081525061042c640100000000026401000000009004565b6102c16040805190810160405280600681526020017f4475626c696e000000000000000000000000000000000000000000000000000081525061042c640100000000026401000000009004565b610457640100000000026401000000009004565b610426610bbb6103286040805190810160405280601581526020017f42726164792773204d657263656465732d42656e7a000000000000000000000081525061042c640100000000026401000000009004565b6130396103786040805190810160405280600c81526020017f4f6c64204e6176616e205264000000000000000000000000000000000000000081525061042c640100000000026401000000009004565b6103c56040805190810160405280600b81526020017f436173746c656b6e6f636b00000000000000000000000000000000000000000081525061042c640100000000026401000000009004565b6104126040805190810160405280600681526020017f4475626c696e000000000000000000000000000000000000000000000000000081525061042c640100000000026401000000009004565b610457640100000000026401000000009004565b506104ea565b600060608290506000815114156104495760006001029150610451565b602083015191505b50919050565b60008060008881526020019081526020016000209050868160000181905550858160010181600019169055508481600201819055508381600301816000191690555082816004018160001916905550818160050181600019169055506001808890806001815401808255809150509060018203906000526020600020016000909192909190915055505050505050505050565b61073a806104f96000396000f300608060405260043610610082576000357c0100000000000000000000000000000000000000000000000000000000900463ffffffff168062093683146100875780634a2c29381461010b5780636e00bd821461014c57806385e0bb1e1461020c5780638a08e6cd14610237578063cfb51928146102a3578063d19d6b0814610328575b600080fd5b34801561009357600080fd5b506100b26004803603810190808035906020019092919050505061038a565b604051808781526020018660001916600019168152602001858152602001846000191660001916815260200183600019166000191681526020018260001916600019168152602001965050505050505060405180910390f35b34801561011757600080fd5b506101366004803603810190808035906020019092919050505061042c565b6040518082815260200191505060405180910390f35b34801561015857600080fd5b506101b3600480360381019080803590602001908201803590602001908080601f016020809104026020016040519081016040528093929190818152602001838380828437820191505050505050919291929050505061044f565b604051808781526020018660001916600019168152602001858152602001846000191660001916815260200183600019166000191681526020018260001916600019168152602001965050505050505060405180910390f35b34801561021857600080fd5b506102216105eb565b6040518082815260200191505060405180910390f35b34801561024357600080fd5b5061024c6105f8565b6040518080602001828103825283818151815260200191508051906020019060200280838360005b8381101561028f578082015181840152602081019050610274565b505050509050019250505060405180910390f35b3480156102af57600080fd5b5061030a600480360381019080803590602001908201803590602001908080601f0160208091040260200160405190810160405280939291908181526020018383808284378201915050505050509192919290505050610650565b60405180826000191660001916815260200191505060405180910390f35b6103886004803603810190808035906020019092919080356000191690602001909291908035906020019092919080356000191690602001909291908035600019169060200190929190803560001916906020019092919050505061067b565b005b60008060008060008060008088815260200190815260200160002060000154600080898152602001908152602001600020600101546000808a8152602001908152602001600020600201546000808b8152602001908152602001600020600301546000808c8152602001908152602001600020600401546000808d81526020019081526020016000206005015495509550955095509550955091939550919395565b60018181548110151561043b57fe5b906000526020600020016000915090505481565b60008060008060008060008060008060006001805490509450600092505b8483101561054d5760018381548110151561048457fe5b9060005260206000200154915060008083815260200190815260200160002090508b6040518082805190602001908083835b6020831015156104db57805182526020820191506020810190506020830392506104b6565b6001836020036101000a038019825116818451168082178552505050505050905001915050604051809103902060001916816001015460405180826000191660001916815260200191505060405180910390206000191614156105405781935061054d565b828060010193505061046d565b60008085815260200190815260200160002060000154600080868152602001908152602001600020600101546000808781526020019081526020016000206002015460008088815260200190815260200160002060030154600080898152602001908152602001600020600401546000808a8152602001908152602001600020600501549a509a509a509a509a509a50505050505091939550919395565b6000600180549050905090565b6060600180548060200260200160405190810160405280929190818152602001828054801561064657602002820191906000526020600020905b815481526020019060010190808311610632575b5050505050905090565b6000606082905060008151141561066d5760006001029150610675565b602083015191505b50919050565b600080600088815260200190815260200160002090508681600001819055508581600101816000191690555084816002018190555083816003018160001916905550828160040181600019169055508181600501816000191690555060018088908060018154018082558091505090600182039060005260206000200160009091929091909150555050505050505050505600a165627a7a723058205fb9bcf0fc9818dde030e743a65dc10f0fcecec6df96b0e8d7db1da0484a6dd90029",
  "source": "pragma solidity ^0.4.18;\ncontract Dealers {\n\n    struct Dealer {\n        uint did;\n        bytes32 dname;\n        int dphone;\n        bytes32 dstreet;\n        bytes32 dtown;\n        bytes32 dcounty;\n    }\n    mapping (uint => Dealer) d;\n    uint[] public dealerAccts;\n\n    constructor(bytes32[] args) public {\n      setDealer(3001, stringToBytes32(\"Joe-Duffy BMW\"), 12345, stringToBytes32(\"11 North Rd\"), stringToBytes32(\"Charlestown\"), stringToBytes32(\"Dublin\"));\n      setDealer(3002, stringToBytes32(\"Joe-Duffy Audi\"), 12345, stringToBytes32(\"North Park\"), stringToBytes32(\"Charlestown\"), stringToBytes32(\"Dublin\"));\n      setDealer(3003, stringToBytes32(\"Brady's Mercedes-Benz\"), 12345, stringToBytes32(\"Old Navan Rd\"), stringToBytes32(\"Castleknock\"), stringToBytes32(\"Dublin\"));\n    }\n\n    function setDealer(uint _did, bytes32 _dname, int _dphone, bytes32 _dstreet, bytes32 _dtown, bytes32 _dcounty) public payable{\n        Dealer storage deal = d[_did];\n\n        deal.did = _did;\n        deal.dname = _dname;\n        deal.dphone = _dphone;\n        deal.dstreet = _dstreet;\n        deal.dtown = _dtown;\n        deal.dcounty = _dcounty;\n\n        dealerAccts.push(_did) -1;\n    }\n\n    function getDealers() view public returns(uint[]) {\n        return dealerAccts;\n    }\n\n    function getDealer(uint _did) view public returns (uint, bytes32, int, bytes32, bytes32, bytes32) {\n        return (d[_did].did, d[_did].dname, d[_did].dphone, d[_did].dstreet, d[_did].dtown, d[_did].dcounty);\n    }\n\n    function countDealers() view public returns (uint) {\n        return dealerAccts.length;\n    }\n\n    function getDealerByName(string _dname) view public returns (uint, bytes32, int, bytes32, bytes32, bytes32) {\n        uint dealersCount = dealerAccts.length;\n        uint dealerid;\n        for (uint i=0; i<dealersCount; i++) {\n            uint did = dealerAccts[i];\n            Dealer storage deal =  d[did];\n            if(keccak256(deal.dname) == keccak256(_dname)){\n                dealerid = did;\n                break;\n            }\n        }\n        return (d[dealerid].did, d[dealerid].dname, d[dealerid].dphone, d[dealerid].dstreet, d[dealerid].dtown, d[dealerid].dcounty);\n\n    }\n\n    function stringToBytes32(string memory source) returns (bytes32 result) {\n      bytes memory tempEmptyStringTest = bytes(source);\n      if (tempEmptyStringTest.length == 0) {\n          return 0x0;\n      }\n\n      assembly {\n          result := mload(add(source, 32))\n      }\n    }\n\n\n}\n",
  "sourcePath": "/Users/johnsgeorge/Desktop/CarApplication/CarBackEnd/contracts/Dealers.sol",
  "compiler": {
    "name": "solc",
    "version": "0.4.24+commit.e67f0147.Emscripten.clang"
  },
  "schemaVersion": "2.0.0",
  "updatedAt": "2018-08-08T17:48:54.068Z"
}