{
  "contractName": "Manufacturer",
  "abi": [
    {
      "constant": true,
      "inputs": [
        {
          "name": "",
          "type": "uint256"
        }
      ],
      "name": "BrandAccts",
      "outputs": [
        {
          "name": "",
          "type": "uint256"
        }
      ],
      "payable": false,
      "stateMutability": "view",
      "type": "function"
    },
    {
      "constant": false,
      "inputs": [
        {
          "name": "_mid",
          "type": "uint256"
        },
        {
          "name": "_name",
          "type": "bytes32"
        },
        {
          "name": "_country",
          "type": "string"
        },
        {
          "name": "_phone",
          "type": "int256"
        },
        {
          "name": "_website",
          "type": "string"
        }
      ],
      "name": "setBrand",
      "outputs": [],
      "payable": true,
      "stateMutability": "payable",
      "type": "function"
    },
    {
      "constant": true,
      "inputs": [],
      "name": "getBrands",
      "outputs": [
        {
          "name": "",
          "type": "uint256[]"
        }
      ],
      "payable": false,
      "stateMutability": "view",
      "type": "function"
    },
    {
      "constant": true,
      "inputs": [
        {
          "name": "_mid",
          "type": "uint256"
        }
      ],
      "name": "getBrand",
      "outputs": [
        {
          "name": "",
          "type": "uint256"
        },
        {
          "name": "",
          "type": "bytes32"
        },
        {
          "name": "",
          "type": "string"
        },
        {
          "name": "",
          "type": "int256"
        },
        {
          "name": "",
          "type": "string"
        }
      ],
      "payable": false,
      "stateMutability": "view",
      "type": "function"
    },
    {
      "constant": true,
      "inputs": [],
      "name": "countBrands",
      "outputs": [
        {
          "name": "",
          "type": "uint256"
        }
      ],
      "payable": false,
      "stateMutability": "view",
      "type": "function"
    }
  ],
  "bytecode": "0x608060405234801561001057600080fd5b506106f3806100206000396000f30060806040526004361061006d576000357c0100000000000000000000000000000000000000000000000000000000900463ffffffff16806319b6bbe41461007257806344041a8d146100b3578063822d487d146100de578063c562f8081461014a578063f0dc6d141461020e575b600080fd5b34801561007e57600080fd5b5061009d6004803603810190808035906020019092919050505061033d565b6040518082815260200191505060405180910390f35b3480156100bf57600080fd5b506100c8610360565b6040518082815260200191505060405180910390f35b3480156100ea57600080fd5b506100f361036d565b6040518080602001828103825283818151815260200191508051906020019060200280838360005b8381101561013657808201518184015260208101905061011b565b505050509050019250505060405180910390f35b61020c600480360381019080803590602001909291908035600019169060200190929190803590602001908201803590602001908080601f016020809104026020016040519081016040528093929190818152602001838380828437820191505050505050919291929080359060200190929190803590602001908201803590602001908080601f01602080910402602001604051908101604052809392919081815260200183838082843782019150505050505091929192905050506103c5565b005b34801561021a57600080fd5b5061023960048036038101908080359060200190929190505050610462565b6040518086815260200185600019166000191681526020018060200184815260200180602001838103835286818151815260200191508051906020019080838360005b8381101561029757808201518184015260208101905061027c565b50505050905090810190601f1680156102c45780820380516001836020036101000a031916815260200191505b50838103825284818151815260200191508051906020019080838360005b838110156102fd5780820151818401526020810190506102e2565b50505050905090810190601f16801561032a5780820380516001836020036101000a031916815260200191505b5097505050505050505060405180910390f35b60018181548110151561034c57fe5b906000526020600020016000915090505481565b6000600180549050905090565b606060018054806020026020016040519081016040528092919081815260200182805480156103bb57602002820191906000526020600020905b8154815260200190600101908083116103a7575b5050505050905090565b600080600087815260200190815260200160002090508581600001819055508481600101816000191690555083816002019080519060200190610409929190610622565b508281600301819055508181600401908051906020019061042b929190610622565b5060018087908060018154018082558091505090600182039060005260206000200160009091929091909150555050505050505050565b60008060606000606060008087815260200190815260200160002060000154600080888152602001908152602001600020600101546000808981526020019081526020016000206002016000808a8152602001908152602001600020600301546000808b8152602001908152602001600020600401828054600181600116156101000203166002900480601f01602080910402602001604051908101604052809291908181526020018280546001816001161561010002031660029004801561056c5780601f106105415761010080835404028352916020019161056c565b820191906000526020600020905b81548152906001019060200180831161054f57829003601f168201915b50505050509250808054600181600116156101000203166002900480601f0160208091040260200160405190810160405280929190818152602001828054600181600116156101000203166002900480156106085780601f106105dd57610100808354040283529160200191610608565b820191906000526020600020905b8154815290600101906020018083116105eb57829003601f168201915b505050505090509450945094509450945091939590929450565b828054600181600116156101000203166002900490600052602060002090601f016020900481019282601f1061066357805160ff1916838001178555610691565b82800160010185558215610691579182015b82811115610690578251825591602001919060010190610675565b5b50905061069e91906106a2565b5090565b6106c491905b808211156106c05760008160009055506001016106a8565b5090565b905600a165627a7a72305820b77c3bc2649098bb66f0057bdbcccb5dae940517aa93117aed578664023b1b1b0029",
  "source": "pragma solidity ^0.4.18;\ncontract Manufacturer {\n    \n    struct Brand {\n        uint mid;\n        bytes32 name;\n        string country;\n        int phone;\n        string website;\n    }\n    mapping (uint => Brand) brands;\n    uint[] public BrandAccts;\n    \n    function setBrand(uint _mid, bytes32 _name, string _country, int _phone, string _website) public payable{\n        var brand = brands[_mid];\n        \n        brand.mid = _mid;\n        brand.name = _name;\n        brand.country = _country;\n        brand.phone = _phone;\n        brand.website = _website;\n        \n        BrandAccts.push(_mid) -1;\n    }\n    \n    function getBrands() view public returns(uint[]) {\n        return BrandAccts;\n    }\n    \n    function getBrand(uint _mid) view public returns (uint, bytes32, string, int, string) {\n        return (brands[_mid].mid, brands[_mid].name, brands[_mid].country, brands[_mid].phone, brands[_mid].website);\n    }\n    \n    function countBrands() view public returns (uint) {\n        return BrandAccts.length;\n    }\n    \n}",
  "sourcePath": "/Users/johnsgeorge/Desktop/CarApplication/CarBackEnd/contracts/Manufacturer.sol",
  "compiler": {
    "name": "solc",
    "version": "0.4.24+commit.e67f0147.Emscripten.clang"
  },
  "schemaVersion": "2.0.0",
  "updatedAt": "2018-07-25T18:15:52.991Z"
}