{
  "contractName": "Manufacturer",
  "abi": [
    {
      "constant": true,
      "inputs": [
        {
          "name": "",
          "type": "uint256"
        }
      ],
      "name": "BrandAccts",
      "outputs": [
        {
          "name": "",
          "type": "uint256"
        }
      ],
      "payable": false,
      "stateMutability": "view",
      "type": "function"
    },
    {
      "constant": false,
      "inputs": [
        {
          "name": "_mid",
          "type": "uint256"
        },
        {
          "name": "_name",
          "type": "bytes32"
        },
        {
          "name": "_country",
          "type": "bytes32"
        },
        {
          "name": "_phone",
          "type": "int256"
        },
        {
          "name": "_website",
          "type": "bytes32"
        }
      ],
      "name": "setBrand",
      "outputs": [],
      "payable": true,
      "stateMutability": "payable",
      "type": "function"
    },
    {
      "constant": true,
      "inputs": [],
      "name": "getBrands",
      "outputs": [
        {
          "name": "",
          "type": "uint256[]"
        }
      ],
      "payable": false,
      "stateMutability": "view",
      "type": "function"
    },
    {
      "constant": true,
      "inputs": [
        {
          "name": "_mid",
          "type": "uint256"
        }
      ],
      "name": "getManufacturerById",
      "outputs": [
        {
          "name": "",
          "type": "uint256"
        },
        {
          "name": "",
          "type": "bytes32"
        },
        {
          "name": "",
          "type": "bytes32"
        },
        {
          "name": "",
          "type": "int256"
        },
        {
          "name": "",
          "type": "bytes32"
        }
      ],
      "payable": false,
      "stateMutability": "view",
      "type": "function"
    },
    {
      "constant": true,
      "inputs": [],
      "name": "countBrands",
      "outputs": [
        {
          "name": "",
          "type": "uint256"
        }
      ],
      "payable": false,
      "stateMutability": "view",
      "type": "function"
    },
    {
      "constant": true,
      "inputs": [
        {
          "name": "_name",
          "type": "bytes32"
        }
      ],
      "name": "getManufacturerByName",
      "outputs": [
        {
          "name": "",
          "type": "uint256"
        },
        {
          "name": "",
          "type": "bytes32"
        },
        {
          "name": "",
          "type": "bytes32"
        },
        {
          "name": "",
          "type": "int256"
        },
        {
          "name": "",
          "type": "bytes32"
        }
      ],
      "payable": false,
      "stateMutability": "view",
      "type": "function"
    }
  ],
  "bytecode": "0x608060405234801561001057600080fd5b50610596806100206000396000f300608060405260043610610078576000357c0100000000000000000000000000000000000000000000000000000000900463ffffffff16806319b6bbe41461007d57806344041a8d146100be578063715eabaa146100e9578063822d487d1461013d578063d4db02b7146101a9578063da08402d14610222575b600080fd5b34801561008957600080fd5b506100a860048036038101908080359060200190929190505050610297565b6040518082815260200191505060405180910390f35b3480156100ca57600080fd5b506100d36102ba565b6040518082815260200191505060405180910390f35b61013b60048036038101908080359060200190929190803560001916906020019092919080356000191690602001909291908035906020019092919080356000191690602001909291905050506102c7565b005b34801561014957600080fd5b5061015261034c565b6040518080602001828103825283818151815260200191508051906020019060200280838360005b8381101561019557808201518184015260208101905061017a565b505050509050019250505060405180910390f35b3480156101b557600080fd5b506101d860048036038101908080356000191690602001909291905050506103a4565b604051808681526020018560001916600019168152602001846000191660001916815260200183815260200182600019166000191681526020019550505050505060405180910390f35b34801561022e57600080fd5b5061024d600480360381019080803590602001909291905050506104e1565b604051808681526020018560001916600019168152602001846000191660001916815260200183815260200182600019166000191681526020019550505050505060405180910390f35b6001818154811015156102a657fe5b906000526020600020016000915090505481565b6000600180549050905090565b6000806000878152602001908152602001600020905085816000018190555084816001018160001916905550838160020181600019169055508281600301819055508181600401816000191690555060018087908060018154018082558091505090600182039060005260206000200160009091929091909150555050505050505050565b6060600180548060200260200160405190810160405280929190818152602001828054801561039a57602002820191906000526020600020905b815481526020019060010190808311610386575b5050505050905090565b6000806000806000806000806000806001805490509450600092505b8483101561045b576001838154811015156103d757fe5b9060005260206000200154915060008083815260200190815260200160002090508a6040518082600019166000191681526020019150506040518091039020600019168160010154604051808260001916600019168152602001915050604051809103902060001916141561044e5781935061045b565b82806001019350506103c0565b600080858152602001908152602001600020600001546000808681526020019081526020016000206001015460008087815260200190815260200160002060020154600080888152602001908152602001600020600301546000808981526020019081526020016000206004015499509950995099509950505050505091939590929450565b60008060008060008060008781526020019081526020016000206000015460008088815260200190815260200160002060010154600080898152602001908152602001600020600201546000808a8152602001908152602001600020600301546000808b81526020019081526020016000206004015494509450945094509450919395909294505600a165627a7a72305820e9091f9f964d51b6815349afd7640c338e9b0a4483c3fc323a07fb0b1c9623900029",
  "source": "pragma solidity ^0.4.18;\ncontract Manufacturer {\n\n    struct Brand {\n        uint mid;\n        bytes32 name;\n        bytes32 country;\n        int phone;\n        bytes32 website;\n    }\n    mapping (uint => Brand) brands;\n    uint[] public BrandAccts;\n\n    function setBrand(uint _mid, bytes32 _name, bytes32 _country, int _phone, bytes32 _website) public payable{\n        Brand storage branding = brands[_mid];\n\n        branding.mid = _mid;\n        branding.name = _name;\n        branding.country = _country;\n        branding.phone = _phone;\n        branding.website = _website;\n\n        BrandAccts.push(_mid) -1;\n    }\n\n    function getBrands() view public returns(uint[]) {\n        return BrandAccts;\n    }\n\n    function getManufacturerById(uint _mid) view public returns (uint, bytes32, bytes32, int, bytes32) {\n        return (brands[_mid].mid, brands[_mid].name, brands[_mid].country, brands[_mid].phone, brands[_mid].website);\n    }\n\n    function countBrands() view public returns (uint) {\n        return BrandAccts.length;\n    }\n\n    function getManufacturerByName(bytes32 _name) view public returns (uint, bytes32, bytes32, int, bytes32) {\n        uint brandCount = BrandAccts.length;\n        uint mid;\n        for (uint i=0; i<brandCount; i++) {\n            uint brandId = BrandAccts[i];\n            Brand storage brand = brands[brandId];\n            if(keccak256(brand.name) == keccak256(_name)){\n                mid = brandId;\n                break;\n            }\n        }\n        return (brands[mid].mid, brands[mid].name, brands[mid].country, brands[mid].phone, brands[mid].website);\n\n    }\n\n\n}\n",
  "sourcePath": "/Users/johnsgeorge/Desktop/CarApplication/CarBackEnd/contracts/Manufacturer.sol",
  "compiler": {
    "name": "solc",
    "version": "0.4.24+commit.e67f0147.Emscripten.clang"
  },
  "schemaVersion": "2.0.0",
  "updatedAt": "2018-07-30T22:33:59.435Z"
}