{
  "contractName": "Manufacturer",
  "abi": [
    {
      "constant": true,
      "inputs": [
        {
          "name": "",
          "type": "uint256"
        }
      ],
      "name": "BrandAccts",
      "outputs": [
        {
          "name": "",
          "type": "uint256"
        }
      ],
      "payable": false,
      "stateMutability": "view",
      "type": "function"
    },
    {
      "inputs": [
        {
          "name": "args",
          "type": "bytes32[]"
        }
      ],
      "payable": false,
      "stateMutability": "nonpayable",
      "type": "constructor"
    },
    {
      "constant": false,
      "inputs": [
        {
          "name": "_mid",
          "type": "uint256"
        },
        {
          "name": "_name",
          "type": "bytes32"
        },
        {
          "name": "_country",
          "type": "bytes32"
        },
        {
          "name": "_phone",
          "type": "int256"
        },
        {
          "name": "_website",
          "type": "bytes32"
        }
      ],
      "name": "setBrand",
      "outputs": [],
      "payable": true,
      "stateMutability": "payable",
      "type": "function"
    },
    {
      "constant": true,
      "inputs": [],
      "name": "getBrands",
      "outputs": [
        {
          "name": "",
          "type": "uint256[]"
        }
      ],
      "payable": false,
      "stateMutability": "view",
      "type": "function"
    },
    {
      "constant": true,
      "inputs": [
        {
          "name": "_mid",
          "type": "uint256"
        }
      ],
      "name": "getManufacturerById",
      "outputs": [
        {
          "name": "",
          "type": "uint256"
        },
        {
          "name": "",
          "type": "bytes32"
        },
        {
          "name": "",
          "type": "bytes32"
        },
        {
          "name": "",
          "type": "int256"
        },
        {
          "name": "",
          "type": "bytes32"
        }
      ],
      "payable": false,
      "stateMutability": "view",
      "type": "function"
    },
    {
      "constant": true,
      "inputs": [],
      "name": "countBrands",
      "outputs": [
        {
          "name": "",
          "type": "uint256"
        }
      ],
      "payable": false,
      "stateMutability": "view",
      "type": "function"
    },
    {
      "constant": true,
      "inputs": [
        {
          "name": "_name",
          "type": "string"
        }
      ],
      "name": "getManufacturerByName",
      "outputs": [
        {
          "name": "",
          "type": "uint256"
        },
        {
          "name": "",
          "type": "bytes32"
        },
        {
          "name": "",
          "type": "bytes32"
        },
        {
          "name": "",
          "type": "int256"
        },
        {
          "name": "",
          "type": "bytes32"
        }
      ],
      "payable": false,
      "stateMutability": "view",
      "type": "function"
    },
    {
      "constant": false,
      "inputs": [
        {
          "name": "source",
          "type": "string"
        }
      ],
      "name": "stringToBytes32",
      "outputs": [
        {
          "name": "result",
          "type": "bytes32"
        }
      ],
      "payable": false,
      "stateMutability": "nonpayable",
      "type": "function"
    }
  ],
  "bytecode": "0x60806040523480156200001157600080fd5b506040516200124f3803806200124f83398101806040528101908080518201929190505050620001436103e96200008c6040805190810160405280600381526020017f424d57000000000000000000000000000000000000000000000000000000000081525062000abf640100000000026401000000009004565b620000db6040805190810160405280600781526020017f4765726d616e790000000000000000000000000000000000000000000000000081525062000abf640100000000026401000000009004565b6212d6876200012e6040805190810160405280600d81526020017f626d7740676d61696c2e636f6d0000000000000000000000000000000000000081525062000abf640100000000026401000000009004565b62000aec640100000000026401000000009004565b620002506103ea620001996040805190810160405280600b81526020017f526f6c6c7320526f79636500000000000000000000000000000000000000000081525062000abf640100000000026401000000009004565b620001e86040805190810160405280600281526020017f554b00000000000000000000000000000000000000000000000000000000000081525062000abf640100000000026401000000009004565b6212d6886200023b6040805190810160405280601581526020017f726f6c6c732d726f79636540676d61696c2e636f6d000000000000000000000081525062000abf640100000000026401000000009004565b62000aec640100000000026401000000009004565b6200035d6103eb620002a66040805190810160405280600481526020017f417564690000000000000000000000000000000000000000000000000000000081525062000abf640100000000026401000000009004565b620002f56040805190810160405280600781526020017f4765726d616e790000000000000000000000000000000000000000000000000081525062000abf640100000000026401000000009004565b6212d687620003486040805190810160405280600e81526020017f6175646940676d61696c2e636f6d00000000000000000000000000000000000081525062000abf640100000000026401000000009004565b62000aec640100000000026401000000009004565b6200046a6103ec620003b36040805190810160405280600d81526020017f4d657263656465732d42656e7a0000000000000000000000000000000000000081525062000abf640100000000026401000000009004565b620004026040805190810160405280600781526020017f4765726d616e790000000000000000000000000000000000000000000000000081525062000abf640100000000026401000000009004565b6212d687620004556040805190810160405280601781526020017f6d657263656465732d62656e7a40676d61696c2e636f6d00000000000000000081525062000abf640100000000026401000000009004565b62000aec640100000000026401000000009004565b620005776103ed620004c06040805190810160405280600a81526020017f4c616e642d526f7665720000000000000000000000000000000000000000000081525062000abf640100000000026401000000009004565b6200050f6040805190810160405280600281526020017f554b00000000000000000000000000000000000000000000000000000000000081525062000abf640100000000026401000000009004565b6212d687620005626040805190810160405280601481526020017f6c616e642d726f76657240676d61696c2e636f6d00000000000000000000000081525062000abf640100000000026401000000009004565b62000aec640100000000026401000000009004565b620006846103ee620005cd6040805190810160405280600781526020017f506f72736368650000000000000000000000000000000000000000000000000081525062000abf640100000000026401000000009004565b6200061c6040805190810160405280600781526020017f4765726d616e790000000000000000000000000000000000000000000000000081525062000abf640100000000026401000000009004565b6212d6876200066f6040805190810160405280601181526020017f706f727363686540676d61696c2e636f6d00000000000000000000000000000081525062000abf640100000000026401000000009004565b62000aec640100000000026401000000009004565b620007916103ee620006da6040805190810160405280600781526020017f42656e746c65790000000000000000000000000000000000000000000000000081525062000abf640100000000026401000000009004565b620007296040805190810160405280600281526020017f554b00000000000000000000000000000000000000000000000000000000000081525062000abf640100000000026401000000009004565b6212d6876200077c6040805190810160405280601181526020017f62656e746c657940676d61696c2e636f6d00000000000000000000000000000081525062000abf640100000000026401000000009004565b62000aec640100000000026401000000009004565b6200089e6103f0620007e76040805190810160405280600681526020017f4a6167756172000000000000000000000000000000000000000000000000000081525062000abf640100000000026401000000009004565b620008366040805190810160405280600281526020017f554b00000000000000000000000000000000000000000000000000000000000081525062000abf640100000000026401000000009004565b6212d687620008896040805190810160405280601081526020017f6a616775617240676d61696c2e636f6d0000000000000000000000000000000081525062000abf640100000000026401000000009004565b62000aec640100000000026401000000009004565b620009ab6103f1620008f46040805190810160405280600581526020017f4c6578757300000000000000000000000000000000000000000000000000000081525062000abf640100000000026401000000009004565b620009436040805190810160405280600281526020017f554b00000000000000000000000000000000000000000000000000000000000081525062000abf640100000000026401000000009004565b6212d687620009966040805190810160405280600f81526020017f6c6578757340676d61696c2e636f6d000000000000000000000000000000000081525062000abf640100000000026401000000009004565b62000aec640100000000026401000000009004565b62000ab86103f262000a016040805190810160405280600881526020017f4d6173657261746900000000000000000000000000000000000000000000000081525062000abf640100000000026401000000009004565b62000a506040805190810160405280600281526020017f554b00000000000000000000000000000000000000000000000000000000000081525062000abf640100000000026401000000009004565b6212d68762000aa36040805190810160405280601281526020017f6d6173657261746940676d61696c2e636f6d000000000000000000000000000081525062000abf640100000000026401000000009004565b62000aec640100000000026401000000009004565b5062000b71565b6000606082905060008151141562000ade576000600102915062000ae6565b602083015191505b50919050565b6000806000878152602001908152602001600020905085816000018190555084816001018160001916905550838160020181600019169055508281600301819055508181600401816000191690555060018087908060018154018082558091505090600182039060005260206000200160009091929091909150555050505050505050565b6106ce8062000b816000396000f300608060405260043610610083576000357c0100000000000000000000000000000000000000000000000000000000900463ffffffff16806319b6bbe41461008857806344041a8d146100c95780636c1f4200146100f4578063715eabaa146101a5578063822d487d146101f9578063cfb5192814610265578063da08402d146102ea575b600080fd5b34801561009457600080fd5b506100b36004803603810190808035906020019092919050505061035f565b6040518082815260200191505060405180910390f35b3480156100d557600080fd5b506100de610382565b6040518082815260200191505060405180910390f35b34801561010057600080fd5b5061015b600480360381019080803590602001908201803590602001908080601f016020809104026020016040519081016040528093929190818152602001838380828437820191505050505050919291929050505061038f565b604051808681526020018560001916600019168152602001846000191660001916815260200183815260200182600019166000191681526020019550505050505060405180910390f35b6101f76004803603810190808035906020019092919080356000191690602001909291908035600019169060200190929190803590602001909291908035600019169060200190929190505050610511565b005b34801561020557600080fd5b5061020e610596565b6040518080602001828103825283818151815260200191508051906020019060200280838360005b83811015610251578082015181840152602081019050610236565b505050509050019250505060405180910390f35b34801561027157600080fd5b506102cc600480360381019080803590602001908201803590602001908080601f01602080910402602001604051908101604052809392919081815260200183838082843782019150505050505091929192905050506105ee565b60405180826000191660001916815260200191505060405180910390f35b3480156102f657600080fd5b5061031560048036038101908080359060200190929190505050610619565b604051808681526020018560001916600019168152602001846000191660001916815260200183815260200182600019166000191681526020019550505050505060405180910390f35b60018181548110151561036e57fe5b906000526020600020016000915090505481565b6000600180549050905090565b6000806000806000806000806000806001805490509450600092505b8483101561048b576001838154811015156103c257fe5b9060005260206000200154915060008083815260200190815260200160002090508a6040518082805190602001908083835b60208310151561041957805182526020820191506020810190506020830392506103f4565b6001836020036101000a0380198251168184511680821785525050505050509050019150506040518091039020600019168160010154604051808260001916600019168152602001915050604051809103902060001916141561047e5781935061048b565b82806001019350506103ab565b600080858152602001908152602001600020600001546000808681526020019081526020016000206001015460008087815260200190815260200160002060020154600080888152602001908152602001600020600301546000808981526020019081526020016000206004015499509950995099509950505050505091939590929450565b6000806000878152602001908152602001600020905085816000018190555084816001018160001916905550838160020181600019169055508281600301819055508181600401816000191690555060018087908060018154018082558091505090600182039060005260206000200160009091929091909150555050505050505050565b606060018054806020026020016040519081016040528092919081815260200182805480156105e457602002820191906000526020600020905b8154815260200190600101908083116105d0575b5050505050905090565b6000606082905060008151141561060b5760006001029150610613565b602083015191505b50919050565b60008060008060008060008781526020019081526020016000206000015460008088815260200190815260200160002060010154600080898152602001908152602001600020600201546000808a8152602001908152602001600020600301546000808b81526020019081526020016000206004015494509450945094509450919395909294505600a165627a7a72305820aff9c5e63d6d0889329785471afb4a400aee3d74974d8ccb7c458c88ca8ed6850029",
  "source": "pragma solidity ^0.4.18;\ncontract Manufacturer {\n\n    struct Brand {\n        uint mid;\n        bytes32 name;\n        bytes32 country;\n        int phone;\n        bytes32 website;\n    }\n    mapping (uint => Brand) brands;\n    uint[] public BrandAccts;\n\n    constructor(bytes32[] args) public {\n        setBrand(1001, stringToBytes32(\"BMW\"), stringToBytes32(\"Germany\"), 1234567, stringToBytes32(\"bmw@gmail.com\"));\n        setBrand(1002, stringToBytes32(\"Rolls Royce\"), stringToBytes32(\"UK\"), 1234568, stringToBytes32(\"rolls-royce@gmail.com\"));\n        setBrand(1003, stringToBytes32(\"Audi\"), stringToBytes32(\"Germany\"), 1234567, stringToBytes32(\"audi@gmail.com\"));\n        setBrand(1004, stringToBytes32(\"Mercedes-Benz\"), stringToBytes32(\"Germany\"), 1234567, stringToBytes32(\"mercedes-benz@gmail.com\"));\n        setBrand(1005, stringToBytes32(\"Land-Rover\"), stringToBytes32(\"UK\"), 1234567, stringToBytes32(\"land-rover@gmail.com\"));\n        setBrand(1006, stringToBytes32(\"Porsche\"), stringToBytes32(\"Germany\"), 1234567, stringToBytes32(\"porsche@gmail.com\"));\n        setBrand(1006, stringToBytes32(\"Bentley\"), stringToBytes32(\"UK\"), 1234567, stringToBytes32(\"bentley@gmail.com\"));\n        setBrand(1008, stringToBytes32(\"Jaguar\"), stringToBytes32(\"UK\"), 1234567, stringToBytes32(\"jaguar@gmail.com\"));\n        setBrand(1009, stringToBytes32(\"Lexus\"), stringToBytes32(\"UK\"), 1234567, stringToBytes32(\"lexus@gmail.com\"));\n        setBrand(1010, stringToBytes32(\"Maserati\"), stringToBytes32(\"UK\"), 1234567, stringToBytes32(\"maserati@gmail.com\"));\n    }\n\n    function setBrand(uint _mid, bytes32 _name, bytes32 _country, int _phone, bytes32 _website) public payable{\n        Brand storage branding = brands[_mid];\n\n        branding.mid = _mid;\n        branding.name = _name;\n        branding.country = _country;\n        branding.phone = _phone;\n        branding.website = _website;\n\n        BrandAccts.push(_mid) -1;\n    }\n\n    function getBrands() view public returns(uint[]) {\n        return BrandAccts;\n    }\n\n    function getManufacturerById(uint _mid) view public returns (uint, bytes32, bytes32, int, bytes32) {\n        return (brands[_mid].mid, brands[_mid].name, brands[_mid].country, brands[_mid].phone, brands[_mid].website);\n    }\n\n    function countBrands() view public returns (uint) {\n        return BrandAccts.length;\n    }\n\n    function getManufacturerByName(string _name) view public returns (uint, bytes32, bytes32, int, bytes32) {\n        uint brandCount = BrandAccts.length;\n        uint mid;\n        for (uint i=0; i<brandCount; i++) {\n            uint brandId = BrandAccts[i];\n            Brand storage brand = brands[brandId];\n            if(keccak256(brand.name) == keccak256(_name)){\n                mid = brandId;\n                break;\n            }\n        }\n        return (brands[mid].mid, brands[mid].name, brands[mid].country, brands[mid].phone, brands[mid].website);\n\n    }\n\n    function stringToBytes32(string memory source) returns (bytes32 result) {\n      bytes memory tempEmptyStringTest = bytes(source);\n      if (tempEmptyStringTest.length == 0) {\n          return 0x0;\n      }\n\n      assembly {\n          result := mload(add(source, 32))\n      }\n    }\n\n\n}\n",
  "sourcePath": "/Users/johnsgeorge/Desktop/CarApplication/CarBackEnd/contracts/Manufacturer.sol",
  "compiler": {
    "name": "solc",
    "version": "0.4.24+commit.e67f0147.Emscripten.clang"
  },
  "schemaVersion": "2.0.0",
  "updatedAt": "2018-08-08T17:48:54.055Z"
}