{
  "contractName": "Manufacturer",
  "abi": [
    {
      "constant": true,
      "inputs": [
        {
          "name": "",
          "type": "uint256"
        }
      ],
      "name": "BrandAccts",
      "outputs": [
        {
          "name": "",
          "type": "uint256"
        }
      ],
      "payable": false,
      "stateMutability": "view",
      "type": "function"
    },
    {
      "inputs": [
        {
          "name": "args",
          "type": "bytes32[]"
        }
      ],
      "payable": false,
      "stateMutability": "nonpayable",
      "type": "constructor"
    },
    {
      "constant": false,
      "inputs": [
        {
          "name": "_mid",
          "type": "uint256"
        },
        {
          "name": "_name",
          "type": "bytes32"
        },
        {
          "name": "_country",
          "type": "bytes32"
        },
        {
          "name": "_phone",
          "type": "int256"
        },
        {
          "name": "_website",
          "type": "bytes32"
        }
      ],
      "name": "setBrand",
      "outputs": [],
      "payable": true,
      "stateMutability": "payable",
      "type": "function"
    },
    {
      "constant": true,
      "inputs": [],
      "name": "getBrands",
      "outputs": [
        {
          "name": "",
          "type": "uint256[]"
        }
      ],
      "payable": false,
      "stateMutability": "view",
      "type": "function"
    },
    {
      "constant": true,
      "inputs": [
        {
          "name": "_mid",
          "type": "uint256"
        }
      ],
      "name": "getManufacturerById",
      "outputs": [
        {
          "name": "",
          "type": "uint256"
        },
        {
          "name": "",
          "type": "bytes32"
        },
        {
          "name": "",
          "type": "bytes32"
        },
        {
          "name": "",
          "type": "int256"
        },
        {
          "name": "",
          "type": "bytes32"
        }
      ],
      "payable": false,
      "stateMutability": "view",
      "type": "function"
    },
    {
      "constant": true,
      "inputs": [],
      "name": "countBrands",
      "outputs": [
        {
          "name": "",
          "type": "uint256"
        }
      ],
      "payable": false,
      "stateMutability": "view",
      "type": "function"
    },
    {
      "constant": true,
      "inputs": [
        {
          "name": "_name",
          "type": "bytes32"
        }
      ],
      "name": "getManufacturerByName",
      "outputs": [
        {
          "name": "",
          "type": "uint256"
        },
        {
          "name": "",
          "type": "bytes32"
        },
        {
          "name": "",
          "type": "bytes32"
        },
        {
          "name": "",
          "type": "int256"
        },
        {
          "name": "",
          "type": "bytes32"
        }
      ],
      "payable": false,
      "stateMutability": "view",
      "type": "function"
    },
    {
      "constant": false,
      "inputs": [
        {
          "name": "source",
          "type": "string"
        }
      ],
      "name": "stringToBytes32",
      "outputs": [
        {
          "name": "result",
          "type": "bytes32"
        }
      ],
      "payable": false,
      "stateMutability": "nonpayable",
      "type": "function"
    }
  ],
  "bytecode": "0x608060405234801561001057600080fd5b50604051610953380380610953833981018060405281019080805182019291905050506101386103e96100866040805190810160405280600381526020017f424d570000000000000000000000000000000000000000000000000000000000815250610243640100000000026401000000009004565b6100d36040805190810160405280600781526020017f4765726d616e7900000000000000000000000000000000000000000000000000815250610243640100000000026401000000009004565b6212d6876101246040805190810160405280600d81526020017f5465737440746573742e636f6d00000000000000000000000000000000000000815250610243640100000000026401000000009004565b61026e640100000000026401000000009004565b61023d6103ea61018b6040805190810160405280600b81526020017f526f6c6c7320526f796365000000000000000000000000000000000000000000815250610243640100000000026401000000009004565b6101d86040805190810160405280600281526020017f554b000000000000000000000000000000000000000000000000000000000000815250610243640100000000026401000000009004565b6212d6886102296040805190810160405280600f81526020017f54657374554b40746573742e636f6d0000000000000000000000000000000000815250610243640100000000026401000000009004565b61026e640100000000026401000000009004565b506102f3565b600060608290506000815114156102605760006001029150610268565b602083015191505b50919050565b6000806000878152602001908152602001600020905085816000018190555084816001018160001916905550838160020181600019169055508281600301819055508181600401816000191690555060018087908060018154018082558091505090600182039060005260206000200160009091929091909150555050505050505050565b610651806103026000396000f300608060405260043610610083576000357c0100000000000000000000000000000000000000000000000000000000900463ffffffff16806319b6bbe41461008857806344041a8d146100c9578063715eabaa146100f4578063822d487d14610148578063cfb51928146101b4578063d4db02b714610239578063da08402d146102b2575b600080fd5b34801561009457600080fd5b506100b360048036038101908080359060200190929190505050610327565b6040518082815260200191505060405180910390f35b3480156100d557600080fd5b506100de61034a565b6040518082815260200191505060405180910390f35b6101466004803603810190808035906020019092919080356000191690602001909291908035600019169060200190929190803590602001909291908035600019169060200190929190505050610357565b005b34801561015457600080fd5b5061015d6103dc565b6040518080602001828103825283818151815260200191508051906020019060200280838360005b838110156101a0578082015181840152602081019050610185565b505050509050019250505060405180910390f35b3480156101c057600080fd5b5061021b600480360381019080803590602001908201803590602001908080601f0160208091040260200160405190810160405280939291908181526020018383808284378201915050505050509192919290505050610434565b60405180826000191660001916815260200191505060405180910390f35b34801561024557600080fd5b50610268600480360381019080803560001916906020019092919050505061045f565b604051808681526020018560001916600019168152602001846000191660001916815260200183815260200182600019166000191681526020019550505050505060405180910390f35b3480156102be57600080fd5b506102dd6004803603810190808035906020019092919050505061059c565b604051808681526020018560001916600019168152602001846000191660001916815260200183815260200182600019166000191681526020019550505050505060405180910390f35b60018181548110151561033657fe5b906000526020600020016000915090505481565b6000600180549050905090565b6000806000878152602001908152602001600020905085816000018190555084816001018160001916905550838160020181600019169055508281600301819055508181600401816000191690555060018087908060018154018082558091505090600182039060005260206000200160009091929091909150555050505050505050565b6060600180548060200260200160405190810160405280929190818152602001828054801561042a57602002820191906000526020600020905b815481526020019060010190808311610416575b5050505050905090565b600060608290506000815114156104515760006001029150610459565b602083015191505b50919050565b6000806000806000806000806000806001805490509450600092505b848310156105165760018381548110151561049257fe5b9060005260206000200154915060008083815260200190815260200160002090508a6040518082600019166000191681526020019150506040518091039020600019168160010154604051808260001916600019168152602001915050604051809103902060001916141561050957819350610516565b828060010193505061047b565b600080858152602001908152602001600020600001546000808681526020019081526020016000206001015460008087815260200190815260200160002060020154600080888152602001908152602001600020600301546000808981526020019081526020016000206004015499509950995099509950505050505091939590929450565b60008060008060008060008781526020019081526020016000206000015460008088815260200190815260200160002060010154600080898152602001908152602001600020600201546000808a8152602001908152602001600020600301546000808b81526020019081526020016000206004015494509450945094509450919395909294505600a165627a7a72305820aa8ac3d2cca6870d7d5c023903379fee8181bda75baf0eb07577f5710d363c690029",
  "source": "pragma solidity ^0.4.18;\ncontract Manufacturer {\n\n    struct Brand {\n        uint mid;\n        bytes32 name;\n        bytes32 country;\n        int phone;\n        bytes32 website;\n    }\n    mapping (uint => Brand) brands;\n    uint[] public BrandAccts;\n\n    constructor(bytes32[] args) public {\n      setBrand(1001, stringToBytes32(\"BMW\"), stringToBytes32(\"Germany\"), 1234567, stringToBytes32(\"Test@test.com\"));\n      setBrand(1002, stringToBytes32(\"Rolls Royce\"), stringToBytes32(\"UK\"), 1234568, stringToBytes32(\"TestUK@test.com\"));\n    }\n\n    function setBrand(uint _mid, bytes32 _name, bytes32 _country, int _phone, bytes32 _website) public payable{\n        Brand storage branding = brands[_mid];\n\n        branding.mid = _mid;\n        branding.name = _name;\n        branding.country = _country;\n        branding.phone = _phone;\n        branding.website = _website;\n\n        BrandAccts.push(_mid) -1;\n    }\n\n    function getBrands() view public returns(uint[]) {\n        return BrandAccts;\n    }\n\n    function getManufacturerById(uint _mid) view public returns (uint, bytes32, bytes32, int, bytes32) {\n        return (brands[_mid].mid, brands[_mid].name, brands[_mid].country, brands[_mid].phone, brands[_mid].website);\n    }\n\n    function countBrands() view public returns (uint) {\n        return BrandAccts.length;\n    }\n\n    function getManufacturerByName(bytes32 _name) view public returns (uint, bytes32, bytes32, int, bytes32) {\n        uint brandCount = BrandAccts.length;\n        uint mid;\n        for (uint i=0; i<brandCount; i++) {\n            uint brandId = BrandAccts[i];\n            Brand storage brand = brands[brandId];\n            if(keccak256(brand.name) == keccak256(_name)){\n                mid = brandId;\n                break;\n            }\n        }\n        return (brands[mid].mid, brands[mid].name, brands[mid].country, brands[mid].phone, brands[mid].website);\n\n    }\n\n    function stringToBytes32(string memory source) returns (bytes32 result) {\n      bytes memory tempEmptyStringTest = bytes(source);\n      if (tempEmptyStringTest.length == 0) {\n          return 0x0;\n      }\n\n      assembly {\n          result := mload(add(source, 32))\n      }\n    }\n}\n",
  "sourcePath": "/Users/johnsgeorge/Desktop/CarApplication/CarBackEnd/contracts/Manufacturer.sol",
  "compiler": {
    "name": "solc",
    "version": "0.4.24+commit.e67f0147.Emscripten.clang"
  },
  "schemaVersion": "2.0.0",
  "updatedAt": "2018-08-06T12:54:57.200Z"
}