{
  "contractName": "Scrappage",
  "abi": [
    {
      "constant": true,
      "inputs": [
        {
          "name": "",
          "type": "uint256"
        }
      ],
      "name": "scrapAccts",
      "outputs": [
        {
          "name": "",
          "type": "uint256"
        }
      ],
      "payable": false,
      "stateMutability": "view",
      "type": "function"
    },
    {
      "inputs": [
        {
          "name": "args",
          "type": "bytes32[]"
        }
      ],
      "payable": false,
      "stateMutability": "nonpayable",
      "type": "constructor"
    },
    {
      "constant": false,
      "inputs": [
        {
          "name": "_carid",
          "type": "uint256"
        },
        {
          "name": "_scrapDate",
          "type": "int256"
        }
      ],
      "name": "setScraps",
      "outputs": [],
      "payable": true,
      "stateMutability": "payable",
      "type": "function"
    },
    {
      "constant": true,
      "inputs": [],
      "name": "getScraps",
      "outputs": [
        {
          "name": "",
          "type": "uint256[]"
        }
      ],
      "payable": false,
      "stateMutability": "view",
      "type": "function"
    },
    {
      "constant": true,
      "inputs": [
        {
          "name": "_carid",
          "type": "uint256"
        }
      ],
      "name": "getScrap",
      "outputs": [
        {
          "name": "",
          "type": "uint256"
        },
        {
          "name": "",
          "type": "int256"
        }
      ],
      "payable": false,
      "stateMutability": "view",
      "type": "function"
    },
    {
      "constant": true,
      "inputs": [],
      "name": "countScraps",
      "outputs": [
        {
          "name": "",
          "type": "uint256"
        }
      ],
      "payable": false,
      "stateMutability": "view",
      "type": "function"
    },
    {
      "constant": false,
      "inputs": [
        {
          "name": "source",
          "type": "string"
        }
      ],
      "name": "stringToBytes32",
      "outputs": [
        {
          "name": "result",
          "type": "bytes32"
        }
      ],
      "payable": false,
      "stateMutability": "nonpayable",
      "type": "function"
    }
  ],
  "bytecode": "0x608060405234801561001057600080fd5b50604051610480380380610480833981018060405281019080805182019291905050506100526107d7635b0968f7610058640100000000026401000000009004565b506100b3565b6000806000848152602001908152602001600020905082816000018190555081816001018190555060018084908060018154018082558091505090600182039060005260206000200160009091929091909150555050505050565b6103be806100c26000396000f300608060405260043610610078576000357c0100000000000000000000000000000000000000000000000000000000900463ffffffff168063168f6da61461007d57806345fb7d07146100c557806388697619146100ef578063c11873be14610130578063cfb519281461015b578063eacd0fd9146101e0575b600080fd5b34801561008957600080fd5b506100a86004803603810190808035906020019092919050505061024c565b604051808381526020018281526020019250505060405180910390f35b6100ed6004803603810190808035906020019092919080359060200190929190505050610284565b005b3480156100fb57600080fd5b5061011a600480360381019080803590602001909291905050506102df565b6040518082815260200191505060405180910390f35b34801561013c57600080fd5b50610145610302565b6040518082815260200191505060405180910390f35b34801561016757600080fd5b506101c2600480360381019080803590602001908201803590602001908080601f016020809104026020016040519081016040528093929190818152602001838380828437820191505050505050919291929050505061030f565b60405180826000191660001916815260200191505060405180910390f35b3480156101ec57600080fd5b506101f561033a565b6040518080602001828103825283818151815260200191508051906020019060200280838360005b8381101561023857808201518184015260208101905061021d565b505050509050019250505060405180910390f35b600080600080848152602001908152602001600020600001546000808581526020019081526020016000206001015491509150915091565b6000806000848152602001908152602001600020905082816000018190555081816001018190555060018084908060018154018082558091505090600182039060005260206000200160009091929091909150555050505050565b6001818154811015156102ee57fe5b906000526020600020016000915090505481565b6000600180549050905090565b6000606082905060008151141561032c5760006001029150610334565b602083015191505b50919050565b6060600180548060200260200160405190810160405280929190818152602001828054801561038857602002820191906000526020600020905b815481526020019060010190808311610374575b50505050509050905600a165627a7a72305820559655297b73965917cefade8b8fd4c46047fe1ea14ceed4dd0c55e3d502ba1b0029",
  "source": "pragma solidity ^0.4.18;\ncontract Scrappage {\n\n    struct Scrap {\n        uint carid;\n        int scrapDate;\n    }\n    mapping (uint => Scrap) scraps;\n    uint[] public scrapAccts;\n\n    constructor(bytes32[] args) public {\n      setScraps(2007, 1527343351) ;\n    }\n\n    function setScraps(uint _carid, int _scrapDate) public payable{\n        Scrap storage scrap = scraps[_carid];\n\n        scrap.carid = _carid;\n        scrap.scrapDate = _scrapDate;\n\n\n        scrapAccts.push(_carid) -1;\n    }\n\n    function getScraps() view public returns(uint[]) {\n        return scrapAccts;\n    }\n\n    function getScrap(uint _carid) view public returns (uint, int) {\n        return (scraps[_carid].carid, scraps[_carid].scrapDate);\n    }\n\n    function countScraps() view public returns (uint) {\n        return scrapAccts.length;\n    }\n\n    function stringToBytes32(string memory source) returns (bytes32 result) {\n      bytes memory tempEmptyStringTest = bytes(source);\n      if (tempEmptyStringTest.length == 0) {\n          return 0x0;\n      }\n\n      assembly {\n          result := mload(add(source, 32))\n      }\n    }\n\n\n}\n",
  "sourcePath": "/Users/johnsgeorge/Desktop/CarApplication/CarBackEnd/contracts/Scrappage.sol",
  "compiler": {
    "name": "solc",
    "version": "0.4.24+commit.e67f0147.Emscripten.clang"
  },
  "schemaVersion": "2.0.0",
  "updatedAt": "2018-08-26T23:00:54.217Z"
}