{
  "contractName": "ServiceCenters",
  "abi": [
    {
      "constant": true,
      "inputs": [
        {
          "name": "",
          "type": "uint256"
        }
      ],
      "name": "serviceCentAccts",
      "outputs": [
        {
          "name": "",
          "type": "uint256"
        }
      ],
      "payable": false,
      "stateMutability": "view",
      "type": "function"
    },
    {
      "inputs": [
        {
          "name": "args",
          "type": "bytes32[]"
        }
      ],
      "payable": false,
      "stateMutability": "nonpayable",
      "type": "constructor"
    },
    {
      "constant": false,
      "inputs": [
        {
          "name": "_SCid",
          "type": "uint256"
        },
        {
          "name": "_SCname",
          "type": "bytes32"
        },
        {
          "name": "_SCphone",
          "type": "int256"
        },
        {
          "name": "_SCstreet",
          "type": "bytes32"
        },
        {
          "name": "_SCtown",
          "type": "bytes32"
        },
        {
          "name": "_SCcounty",
          "type": "bytes32"
        }
      ],
      "name": "setServiceCent",
      "outputs": [],
      "payable": true,
      "stateMutability": "payable",
      "type": "function"
    },
    {
      "constant": true,
      "inputs": [],
      "name": "getServiceCents",
      "outputs": [
        {
          "name": "",
          "type": "uint256[]"
        }
      ],
      "payable": false,
      "stateMutability": "view",
      "type": "function"
    },
    {
      "constant": true,
      "inputs": [
        {
          "name": "_SCid",
          "type": "uint256"
        }
      ],
      "name": "getServiceCent",
      "outputs": [
        {
          "name": "",
          "type": "uint256"
        },
        {
          "name": "",
          "type": "bytes32"
        },
        {
          "name": "",
          "type": "int256"
        },
        {
          "name": "",
          "type": "bytes32"
        },
        {
          "name": "",
          "type": "bytes32"
        },
        {
          "name": "",
          "type": "bytes32"
        }
      ],
      "payable": false,
      "stateMutability": "view",
      "type": "function"
    },
    {
      "constant": true,
      "inputs": [],
      "name": "countServiceCents",
      "outputs": [
        {
          "name": "",
          "type": "uint256"
        }
      ],
      "payable": false,
      "stateMutability": "view",
      "type": "function"
    },
    {
      "constant": true,
      "inputs": [
        {
          "name": "_serviceCenterID",
          "type": "uint256"
        }
      ],
      "name": "isAServiceCenter",
      "outputs": [
        {
          "name": "",
          "type": "bool"
        }
      ],
      "payable": false,
      "stateMutability": "view",
      "type": "function"
    },
    {
      "constant": true,
      "inputs": [
        {
          "name": "_SCname",
          "type": "string"
        }
      ],
      "name": "getServiceCentersByName",
      "outputs": [
        {
          "name": "",
          "type": "uint256"
        },
        {
          "name": "",
          "type": "bytes32"
        },
        {
          "name": "",
          "type": "int256"
        },
        {
          "name": "",
          "type": "bytes32"
        },
        {
          "name": "",
          "type": "bytes32"
        },
        {
          "name": "",
          "type": "bytes32"
        }
      ],
      "payable": false,
      "stateMutability": "view",
      "type": "function"
    }
  ],
  "bytecode": "0x608060405234801561001057600080fd5b50604051610a8a380380610a8a833981018060405281019080805182019291905050506100d5611b597f476f77616e20536572766963652043656e7465720000000000000000000000006202f1697f31392042616c6c656e74726565000000000000000000000000000000000000007f436173746c656b6e6f636b0000000000000000000000000000000000000000007f4475626c696e00000000000000000000000000000000000000000000000000006102c1640100000000026401000000009004565b610177611b5a7f4d534c20536572766963652043656e74657200000000000000000000000000006201f80a7f31392042616c6c656e74726565000000000000000000000000000000000000007f436173746c656b6e6f636b0000000000000000000000000000000000000000007f4475626c696e00000000000000000000000000000000000000000000000000006102c1640100000000026401000000009004565b610219611b5b7f5472756e6b2020526f61642047617261676500000000000000000000000000006203a8e17f31392042616c6c656e74726565000000000000000000000000000000000000007f436173746c656b6e6f636b0000000000000000000000000000000000000000007f4475626c696e00000000000000000000000000000000000000000000000000006102c1640100000000026401000000009004565b6102bb611b5c7f436173746c656b6e6f636b2047617261676500000000000000000000000000006201fb337f31392042616c6c656e74726565000000000000000000000000000000000000007f436173746c656b6e6f636b0000000000000000000000000000000000000000007f4475626c696e00000000000000000000000000000000000000000000000000006102c1640100000000026401000000009004565b50610354565b60008060008881526020019081526020016000209050868160000181905550858160010181600019169055508481600201819055508381600301816000191690555082816004018160001916905550818160050181600019169055506001808890806001815401808255809150509060018203906000526020600020016000909192909190915055505050505050505050565b610727806103636000396000f300608060405260043610610083576000357c0100000000000000000000000000000000000000000000000000000000900463ffffffff1680631b57d09314610088578063454325b4146100f4578063465f91681461013557806370f15f5a1461017a578063881f155c146101dc5780639016faff1461029c578063b6f8d30714610320575b600080fd5b34801561009457600080fd5b5061009d61034b565b6040518080602001828103825283818151815260200191508051906020019060200280838360005b838110156100e05780820151818401526020810190506100c5565b505050509050019250505060405180910390f35b34801561010057600080fd5b5061011f600480360381019080803590602001909291905050506103a3565b6040518082815260200191505060405180910390f35b34801561014157600080fd5b50610160600480360381019080803590602001909291905050506103c6565b604051808215151515815260200191505060405180910390f35b6101da6004803603810190808035906020019092919080356000191690602001909291908035906020019092919080356000191690602001909291908035600019169060200190929190803560001916906020019092919050505061041d565b005b3480156101e857600080fd5b50610243600480360381019080803590602001908201803590602001908080601f01602080910402602001604051908101604052809392919081815260200183838082843782019150505050505091929192905050506104b0565b604051808781526020018660001916600019168152602001858152602001846000191660001916815260200183600019166000191681526020018260001916600019168152602001965050505050505060405180910390f35b3480156102a857600080fd5b506102c76004803603810190808035906020019092919050505061064c565b604051808781526020018660001916600019168152602001858152602001846000191660001916815260200183600019166000191681526020018260001916600019168152602001965050505050505060405180910390f35b34801561032c57600080fd5b506103356106ee565b6040518082815260200191505060405180910390f35b6060600180548060200260200160405190810160405280929190818152602001828054801561039957602002820191906000526020600020905b815481526020019060010190808311610385575b5050505050905090565b6001818154811015156103b257fe5b906000526020600020016000915090505481565b600080600090505b60018054905081101561041257826001828154811015156103eb57fe5b906000526020600020015414156104055760019150610417565b80806001019150506103ce565b600091505b50919050565b60008060008881526020019081526020016000209050868160000181905550858160010181600019169055508481600201819055508381600301816000191690555082816004018160001916905550818160050181600019169055506001808890806001815401808255809150509060018203906000526020600020016000909192909190915055505050505050505050565b60008060008060008060008060008060006001805490509450600092505b848310156105ae576001838154811015156104e557fe5b9060005260206000200154915060008083815260200190815260200160002090508b6040518082805190602001908083835b60208310151561053c5780518252602082019150602081019050602083039250610517565b6001836020036101000a038019825116818451168082178552505050505050905001915050604051809103902060001916816001015460405180826000191660001916815260200191505060405180910390206000191614156105a1578193506105ae565b82806001019350506104ce565b60008085815260200190815260200160002060000154600080868152602001908152602001600020600101546000808781526020019081526020016000206002015460008088815260200190815260200160002060030154600080898152602001908152602001600020600401546000808a8152602001908152602001600020600501549a509a509a509a509a509a50505050505091939550919395565b60008060008060008060008088815260200190815260200160002060000154600080898152602001908152602001600020600101546000808a8152602001908152602001600020600201546000808b8152602001908152602001600020600301546000808c8152602001908152602001600020600401546000808d81526020019081526020016000206005015495509550955095509550955091939550919395565b60006001805490509050905600a165627a7a72305820345ac281c16d085c9cba951883b51e4b3cdc7c802099bed883798ab5c165c2270029",
  "source": "pragma solidity ^0.4.18;\ncontract ServiceCenters {\n\n    struct ServiceCent {\n        uint SCid;\n        bytes32 SCname;\n        int SCphone;\n        bytes32 SCstreet;\n        bytes32 SCtown;\n        bytes32 SCcounty;\n    }\n    mapping (uint => ServiceCent) sc;\n    uint[] public serviceCentAccts;\n\n    constructor(bytes32[] args) public {\n      setServiceCent(7001, \"Gowan Service Center\", 192873, \"19 Ballentree\", \"Castleknock\", \"Dublin\");\n      setServiceCent(7002, \"MSL Service Center\", 129034, \"19 Ballentree\", \"Castleknock\", \"Dublin\");\n      setServiceCent(7003, \"Trunk  Road Garage\", 239841, \"19 Ballentree\", \"Castleknock\", \"Dublin\");\n      setServiceCent(7004, \"Castleknock Garage\", 129843, \"19 Ballentree\", \"Castleknock\", \"Dublin\");\n    }\n\n    function setServiceCent(uint _SCid, bytes32 _SCname, int _SCphone, bytes32 _SCstreet, bytes32 _SCtown, bytes32 _SCcounty) public payable{\n        ServiceCent storage serviceCent = sc[_SCid];\n\n        serviceCent.SCid = _SCid;\n        serviceCent.SCname = _SCname;\n        serviceCent.SCphone = _SCphone;\n        serviceCent.SCstreet = _SCstreet;\n        serviceCent.SCtown = _SCtown;\n        serviceCent.SCcounty = _SCcounty;\n\n        serviceCentAccts.push(_SCid) -1;\n    }\n\n    function getServiceCents() view public returns(uint[]) {\n        return serviceCentAccts;\n    }\n\n    function getServiceCent(uint _SCid) view public returns (uint, bytes32, int, bytes32, bytes32, bytes32) {\n        return (sc[_SCid].SCid, sc[_SCid].SCname, sc[_SCid].SCphone, sc[_SCid].SCstreet, sc[_SCid].SCtown, sc[_SCid].SCcounty);\n    }\n\n    function countServiceCents() view public returns (uint) {\n        return serviceCentAccts.length;\n    }\n\n    function isAServiceCenter(uint _serviceCenterID) view public returns(bool) {\n        uint i = 0;\n        while (i < serviceCentAccts.length) {\n            if(serviceCentAccts[i] == _serviceCenterID) {\n                return true;\n            }\n            i++;\n        }\n        return false;\n    }\n\n    function getServiceCentersByName(string _SCname) view public returns (uint, bytes32, int, bytes32, bytes32, bytes32) {\n        uint serviceCenterCount = serviceCentAccts.length;\n        uint serviceCenterid;\n        for (uint i=0; i<serviceCenterCount; i++) {\n            uint scid = serviceCentAccts[i];\n            ServiceCent storage serviceCent =  sc[scid];\n            if(keccak256(serviceCent.SCname) == keccak256(_SCname)){\n                serviceCenterid = scid;\n                break;\n            }\n        }\n        return (sc[serviceCenterid].SCid, sc[serviceCenterid].SCname, sc[serviceCenterid].SCphone, sc[serviceCenterid].SCstreet, sc[serviceCenterid].SCtown, sc[serviceCenterid].SCcounty);\n\n    }\n\n\n}\n",
  "sourcePath": "/Users/johnsgeorge/Desktop/CarApplication/CarBackEnd/contracts/ServiceCenters.sol",
  "compiler": {
    "name": "solc",
    "version": "0.4.24+commit.e67f0147.Emscripten.clang"
  },
  "schemaVersion": "2.0.0",
  "updatedAt": "2018-08-17T21:59:42.835Z"
}