{
  "contractName": "ServiceJobs",
  "abi": [
    {
      "constant": true,
      "inputs": [
        {
          "name": "",
          "type": "uint256"
        }
      ],
      "name": "JobsDoneAccts",
      "outputs": [
        {
          "name": "",
          "type": "uint256"
        }
      ],
      "payable": false,
      "stateMutability": "view",
      "type": "function"
    },
    {
      "constant": false,
      "inputs": [
        {
          "name": "_jobsID",
          "type": "uint256"
        },
        {
          "name": "_jobsDetails",
          "type": "bytes32"
        },
        {
          "name": "_jobsCost",
          "type": "int256"
        }
      ],
      "name": "setJobsDone",
      "outputs": [],
      "payable": true,
      "stateMutability": "payable",
      "type": "function"
    },
    {
      "constant": true,
      "inputs": [],
      "name": "getJobsDone",
      "outputs": [
        {
          "name": "",
          "type": "uint256[]"
        }
      ],
      "payable": false,
      "stateMutability": "view",
      "type": "function"
    },
    {
      "constant": true,
      "inputs": [
        {
          "name": "_jobsID",
          "type": "uint256"
        }
      ],
      "name": "getJobsDoneById",
      "outputs": [
        {
          "name": "",
          "type": "uint256"
        },
        {
          "name": "",
          "type": "bytes32"
        },
        {
          "name": "",
          "type": "int256"
        }
      ],
      "payable": false,
      "stateMutability": "view",
      "type": "function"
    },
    {
      "constant": true,
      "inputs": [],
      "name": "countJobsDone",
      "outputs": [
        {
          "name": "",
          "type": "uint256"
        }
      ],
      "payable": false,
      "stateMutability": "view",
      "type": "function"
    },
    {
      "constant": true,
      "inputs": [
        {
          "name": "_jobsDetails",
          "type": "string"
        }
      ],
      "name": "getServiceJobsByName",
      "outputs": [
        {
          "name": "",
          "type": "uint256"
        },
        {
          "name": "",
          "type": "bytes32"
        },
        {
          "name": "",
          "type": "int256"
        }
      ],
      "payable": false,
      "stateMutability": "view",
      "type": "function"
    }
  ],
  "bytecode": "0x608060405234801561001057600080fd5b50610535806100206000396000f300608060405260043610610078576000357c0100000000000000000000000000000000000000000000000000000000900463ffffffff1680630ed703271461007d578063131d2d9c146100a85780634e2008bf146100e0578063b7fcdfac14610173578063f0aeeb34146101df578063ff62cc5814610236575b600080fd5b34801561008957600080fd5b50610092610277565b6040518082815260200191505060405180910390f35b6100de60048036038101908080359060200190929190803560001916906020019092919080359060200190929190505050610284565b005b3480156100ec57600080fd5b50610147600480360381019080803590602001908201803590602001908080601f01602080910402602001604051908101604052809392919081815260200183838082843782019150505050505091929192905050506102ed565b604051808481526020018360001916600019168152602001828152602001935050505060405180910390f35b34801561017f57600080fd5b5061018861043a565b6040518080602001828103825283818151815260200191508051906020019060200280838360005b838110156101cb5780820151818401526020810190506101b0565b505050509050019250505060405180910390f35b3480156101eb57600080fd5b5061020a60048036038101908080359060200190929190505050610492565b604051808481526020018360001916600019168152602001828152602001935050505060405180910390f35b34801561024257600080fd5b50610261600480360381019080803590602001909291905050506104e6565b6040518082815260200191505060405180910390f35b6000600180549050905090565b60008060008581526020019081526020016000209050838160000181905550828160010181600019169055508181600201819055506001808590806001815401808255809150509060018203906000526020600020016000909192909190915055505050505050565b6000806000806000806000806001805490509450600092505b848310156103e65760018381548110151561031d57fe5b906000526020600020015491506000808381526020019081526020016000209050886040518082805190602001908083835b602083101515610374578051825260208201915060208101905060208303925061034f565b6001836020036101000a038019825116818451168082178552505050505050905001915050604051809103902060001916816001015460405180826000191660001916815260200191505060405180910390206000191614156103d9578193506103e6565b8280600101935050610306565b60008085815260200190815260200160002060000154600080868152602001908152602001600020600101546000808781526020019081526020016000206002015497509750975050505050509193909250565b6060600180548060200260200160405190810160405280929190818152602001828054801561048857602002820191906000526020600020905b815481526020019060010190808311610474575b5050505050905090565b60008060008060008581526020019081526020016000206000015460008086815260200190815260200160002060010154600080878152602001908152602001600020600201549250925092509193909250565b6001818154811015156104f557fe5b9060005260206000200160009150905054815600a165627a7a72305820e047521b18630cba65a2197543d88b27eefc1db8af49caf279bbba900b0af5f20029",
  "source": "pragma solidity ^0.4.18;\ncontract ServiceJobs {\n\n    struct JobsDone {\n        uint jobsID;\n        bytes32 jobsDetails;\n        int jobsCost;\n    }\n    mapping (uint => JobsDone) jd;\n    uint[] public JobsDoneAccts;\n\n    function setJobsDone(uint _jobsID, bytes32 _jobsDetails, int _jobsCost) public payable{\n        JobsDone storage jobsDone = jd[_jobsID];\n\n        jobsDone.jobsID = _jobsID;\n        jobsDone.jobsDetails = _jobsDetails;\n        jobsDone.jobsCost = _jobsCost;\n\n        JobsDoneAccts.push(_jobsID) -1;\n    }\n\n    function getJobsDone() view public returns(uint[]) {\n        return JobsDoneAccts;\n    }\n\n    function getJobsDoneById(uint _jobsID) view public returns (uint, bytes32, int) {\n        return (jd[_jobsID].jobsID, jd[_jobsID].jobsDetails, jd[_jobsID].jobsCost);\n    }\n\n    function countJobsDone() view public returns (uint) {\n        return JobsDoneAccts.length;\n    }\n\n    function getServiceJobsByName(string _jobsDetails) view public returns (uint, bytes32, int) {\n        uint serviceJobsCount = JobsDoneAccts.length;\n        uint jobsDoneid;\n        for (uint i=0; i<serviceJobsCount; i++) {\n            uint JDid = JobsDoneAccts[i];\n            JobsDone storage jobsDone =  jd[JDid];\n            if(keccak256(jobsDone.jobsDetails) == keccak256(_jobsDetails)){\n                jobsDoneid = JDid;\n                break;\n            }\n        }\n        return (jd[jobsDoneid].jobsID, jd[jobsDoneid].jobsDetails, jd[jobsDoneid].jobsCost);\n\n    }\n\n\n}\n",
  "sourcePath": "/Users/johnsgeorge/Desktop/CarApplication/CarBackEnd/contracts/ServiceJobs.sol",
  "compiler": {
    "name": "solc",
    "version": "0.4.24+commit.e67f0147.Emscripten.clang"
  },
  "schemaVersion": "2.0.0",
  "updatedAt": "2018-08-08T17:48:54.072Z"
}