{
  "contractName": "ServiceCenters",
  "abi": [
    {
      "constant": true,
      "inputs": [
        {
          "name": "",
          "type": "uint256"
        }
      ],
      "name": "serviceCentAccts",
      "outputs": [
        {
          "name": "",
          "type": "uint256"
        }
      ],
      "payable": false,
      "stateMutability": "view",
      "type": "function"
    },
    {
      "constant": false,
      "inputs": [
        {
          "name": "_SCid",
          "type": "uint256"
        },
        {
          "name": "_SCname",
          "type": "bytes32"
        },
        {
          "name": "_SCphone",
          "type": "int256"
        },
        {
          "name": "_SCstreet",
          "type": "bytes32"
        },
        {
          "name": "_SCtown",
          "type": "bytes32"
        },
        {
          "name": "_SCcounty",
          "type": "bytes32"
        }
      ],
      "name": "setServiceCent",
      "outputs": [],
      "payable": true,
      "stateMutability": "payable",
      "type": "function"
    },
    {
      "constant": true,
      "inputs": [],
      "name": "getServiceCents",
      "outputs": [
        {
          "name": "",
          "type": "uint256[]"
        }
      ],
      "payable": false,
      "stateMutability": "view",
      "type": "function"
    },
    {
      "constant": true,
      "inputs": [
        {
          "name": "_SCid",
          "type": "uint256"
        }
      ],
      "name": "getServiceCent",
      "outputs": [
        {
          "name": "",
          "type": "uint256"
        },
        {
          "name": "",
          "type": "bytes32"
        },
        {
          "name": "",
          "type": "int256"
        },
        {
          "name": "",
          "type": "bytes32"
        },
        {
          "name": "",
          "type": "bytes32"
        },
        {
          "name": "",
          "type": "bytes32"
        }
      ],
      "payable": false,
      "stateMutability": "view",
      "type": "function"
    },
    {
      "constant": true,
      "inputs": [],
      "name": "countServiceCents",
      "outputs": [
        {
          "name": "",
          "type": "uint256"
        }
      ],
      "payable": false,
      "stateMutability": "view",
      "type": "function"
    },
    {
      "constant": true,
      "inputs": [
        {
          "name": "_SCname",
          "type": "string"
        }
      ],
      "name": "getServiceCentersByName",
      "outputs": [
        {
          "name": "",
          "type": "uint256"
        },
        {
          "name": "",
          "type": "bytes32"
        },
        {
          "name": "",
          "type": "int256"
        },
        {
          "name": "",
          "type": "bytes32"
        },
        {
          "name": "",
          "type": "bytes32"
        },
        {
          "name": "",
          "type": "bytes32"
        }
      ],
      "payable": false,
      "stateMutability": "view",
      "type": "function"
    }
  ],
  "bytecode": "0x608060405234801561001057600080fd5b50610680806100206000396000f300608060405260043610610078576000357c0100000000000000000000000000000000000000000000000000000000900463ffffffff1680631b57d0931461007d578063454325b4146100e957806370f15f5a1461012a578063881f155c1461018c5780639016faff1461024c578063b6f8d307146102d0575b600080fd5b34801561008957600080fd5b506100926102fb565b6040518080602001828103825283818151815260200191508051906020019060200280838360005b838110156100d55780820151818401526020810190506100ba565b505050509050019250505060405180910390f35b3480156100f557600080fd5b5061011460048036038101908080359060200190929190505050610353565b6040518082815260200191505060405180910390f35b61018a60048036038101908080359060200190929190803560001916906020019092919080359060200190929190803560001916906020019092919080356000191690602001909291908035600019169060200190929190505050610376565b005b34801561019857600080fd5b506101f3600480360381019080803590602001908201803590602001908080601f0160208091040260200160405190810160405280939291908181526020018383808284378201915050505050509192919290505050610409565b604051808781526020018660001916600019168152602001858152602001846000191660001916815260200183600019166000191681526020018260001916600019168152602001965050505050505060405180910390f35b34801561025857600080fd5b50610277600480360381019080803590602001909291905050506105a5565b604051808781526020018660001916600019168152602001858152602001846000191660001916815260200183600019166000191681526020018260001916600019168152602001965050505050505060405180910390f35b3480156102dc57600080fd5b506102e5610647565b6040518082815260200191505060405180910390f35b6060600180548060200260200160405190810160405280929190818152602001828054801561034957602002820191906000526020600020905b815481526020019060010190808311610335575b5050505050905090565b60018181548110151561036257fe5b906000526020600020016000915090505481565b60008060008881526020019081526020016000209050868160000181905550858160010181600019169055508481600201819055508381600301816000191690555082816004018160001916905550818160050181600019169055506001808890806001815401808255809150509060018203906000526020600020016000909192909190915055505050505050505050565b60008060008060008060008060008060006001805490509450600092505b848310156105075760018381548110151561043e57fe5b9060005260206000200154915060008083815260200190815260200160002090508b6040518082805190602001908083835b6020831015156104955780518252602082019150602081019050602083039250610470565b6001836020036101000a038019825116818451168082178552505050505050905001915050604051809103902060001916816001015460405180826000191660001916815260200191505060405180910390206000191614156104fa57819350610507565b8280600101935050610427565b60008085815260200190815260200160002060000154600080868152602001908152602001600020600101546000808781526020019081526020016000206002015460008088815260200190815260200160002060030154600080898152602001908152602001600020600401546000808a8152602001908152602001600020600501549a509a509a509a509a509a50505050505091939550919395565b60008060008060008060008088815260200190815260200160002060000154600080898152602001908152602001600020600101546000808a8152602001908152602001600020600201546000808b8152602001908152602001600020600301546000808c8152602001908152602001600020600401546000808d81526020019081526020016000206005015495509550955095509550955091939550919395565b60006001805490509050905600a165627a7a72305820c011e7665ec349c877424218089c8702cf525697182005928268fd9dd3d421c40029",
  "source": "pragma solidity ^0.4.18;\ncontract ServiceCenters {\n\n    struct ServiceCent {\n        uint SCid;\n        bytes32 SCname;\n        int SCphone;\n        bytes32 SCstreet;\n        bytes32 SCtown;\n        bytes32 SCcounty;\n    }\n    mapping (uint => ServiceCent) sc;\n    uint[] public serviceCentAccts;\n\n    function setServiceCent(uint _SCid, bytes32 _SCname, int _SCphone, bytes32 _SCstreet, bytes32 _SCtown, bytes32 _SCcounty) public payable{\n        ServiceCent storage serviceCent = sc[_SCid];\n\n        serviceCent.SCid = _SCid;\n        serviceCent.SCname = _SCname;\n        serviceCent.SCphone = _SCphone;\n        serviceCent.SCstreet = _SCstreet;\n        serviceCent.SCtown = _SCtown;\n        serviceCent.SCcounty = _SCcounty;\n\n        serviceCentAccts.push(_SCid) -1;\n    }\n\n    function getServiceCents() view public returns(uint[]) {\n        return serviceCentAccts;\n    }\n\n    function getServiceCent(uint _SCid) view public returns (uint, bytes32, int, bytes32, bytes32, bytes32) {\n        return (sc[_SCid].SCid, sc[_SCid].SCname, sc[_SCid].SCphone, sc[_SCid].SCstreet, sc[_SCid].SCtown, sc[_SCid].SCcounty);\n    }\n\n    function countServiceCents() view public returns (uint) {\n        return serviceCentAccts.length;\n    }\n\n    function getServiceCentersByName(string _SCname) view public returns (uint, bytes32, int, bytes32, bytes32, bytes32) {\n        uint serviceCenterCount = serviceCentAccts.length;\n        uint serviceCenterid;\n        for (uint i=0; i<serviceCenterCount; i++) {\n            uint scid = serviceCentAccts[i];\n            ServiceCent storage serviceCent =  sc[scid];\n            if(keccak256(serviceCent.SCname) == keccak256(_SCname)){\n                serviceCenterid = scid;\n                break;\n            }\n        }\n        return (sc[serviceCenterid].SCid, sc[serviceCenterid].SCname, sc[serviceCenterid].SCphone, sc[serviceCenterid].SCstreet, sc[serviceCenterid].SCtown, sc[serviceCenterid].SCcounty);\n\n    }\n\n\n}\n",
  "sourcePath": "/Users/johnsgeorge/Desktop/CarApplication/CarBackEnd/contracts/ServiceCenters.sol",
  "compiler": {
    "name": "solc",
    "version": "0.4.24+commit.e67f0147.Emscripten.clang"
  },
  "schemaVersion": "2.0.0",
  "updatedAt": "2018-08-06T12:54:57.211Z"
}