{
  "contractName": "Transactions",
  "abi": [
    {
      "constant": true,
      "inputs": [
        {
          "name": "",
          "type": "uint256"
        }
      ],
      "name": "transactionAccts",
      "outputs": [
        {
          "name": "",
          "type": "uint256"
        }
      ],
      "payable": false,
      "stateMutability": "view",
      "type": "function"
    },
    {
      "constant": false,
      "inputs": [
        {
          "name": "_tid",
          "type": "uint256"
        },
        {
          "name": "_tdate",
          "type": "uint256"
        },
        {
          "name": "_did",
          "type": "uint256"
        },
        {
          "name": "_carid",
          "type": "uint256"
        },
        {
          "name": "_cid",
          "type": "uint256"
        },
        {
          "name": "_buyOrSell",
          "type": "bytes32"
        },
        {
          "name": "_tamount",
          "type": "int256"
        },
        {
          "name": "_tmileage",
          "type": "int256"
        }
      ],
      "name": "setTransaction",
      "outputs": [],
      "payable": true,
      "stateMutability": "payable",
      "type": "function"
    },
    {
      "constant": true,
      "inputs": [],
      "name": "getTransactions",
      "outputs": [
        {
          "name": "",
          "type": "uint256[]"
        }
      ],
      "payable": false,
      "stateMutability": "view",
      "type": "function"
    },
    {
      "constant": true,
      "inputs": [
        {
          "name": "_tid",
          "type": "uint256"
        }
      ],
      "name": "getTransactionDetail",
      "outputs": [
        {
          "name": "",
          "type": "uint256"
        },
        {
          "name": "",
          "type": "uint256"
        },
        {
          "name": "",
          "type": "bytes32"
        },
        {
          "name": "",
          "type": "int256"
        },
        {
          "name": "",
          "type": "int256"
        }
      ],
      "payable": false,
      "stateMutability": "view",
      "type": "function"
    },
    {
      "constant": true,
      "inputs": [
        {
          "name": "_tid",
          "type": "uint256"
        }
      ],
      "name": "getTransactionRelations",
      "outputs": [
        {
          "name": "",
          "type": "uint256"
        },
        {
          "name": "",
          "type": "uint256"
        },
        {
          "name": "",
          "type": "uint256"
        },
        {
          "name": "",
          "type": "uint256"
        }
      ],
      "payable": false,
      "stateMutability": "view",
      "type": "function"
    },
    {
      "constant": true,
      "inputs": [],
      "name": "countTransactions",
      "outputs": [
        {
          "name": "",
          "type": "uint256"
        }
      ],
      "payable": false,
      "stateMutability": "view",
      "type": "function"
    }
  ],
  "bytecode": "0x608060405234801561001057600080fd5b506104bf806100206000396000f300608060405260043610610078576000357c0100000000000000000000000000000000000000000000000000000000900463ffffffff16806383920e901461007d5780639ff512fa146100e9578063b2035aea1461014e578063f5db6f40146101b8578063f81fc230146101f9578063fc9394be14610224575b600080fd5b34801561008957600080fd5b5061009261027a565b6040518080602001828103825283818151815260200191508051906020019060200280838360005b838110156100d55780820151818401526020810190506100ba565b505050509050019250505060405180910390f35b3480156100f557600080fd5b50610114600480360381019080803590602001909291905050506102d2565b6040518086815260200185815260200184600019166000191681526020018381526020018281526020019550505050505060405180910390f35b6101b660048036038101908080359060200190929190803590602001909291908035906020019092919080359060200190929190803590602001909291908035600019169060200190929190803590602001909291908035906020019092919050505061035b565b005b3480156101c457600080fd5b506101e3600480360381019080803590602001909291905050506103f6565b6040518082815260200191505060405180910390f35b34801561020557600080fd5b5061020e610419565b6040518082815260200191505060405180910390f35b34801561023057600080fd5b5061024f60048036038101908080359060200190929190505050610426565b6040518085815260200184815260200183815260200182815260200194505050505060405180910390f35b606060018054806020026020016040519081016040528092919081815260200182805480156102c857602002820191906000526020600020905b8154815260200190600101908083116102b4575b5050505050905090565b60008060008060008060008781526020019081526020016000206000015460008088815260200190815260200160002060010154600080898152602001908152602001600020600501546000808a8152602001908152602001600020600601546000808b8152602001908152602001600020600701549450945094509450945091939590929450565b60008060008a81526020019081526020016000209050888160000181905550878160010181905550868160020181905550858160030181905550848160040181905550838160050181600019169055508281600601819055508181600701819055506001808a908060018154018082558091505090600182039060005260206000200160009091929091909150555050505050505050505050565b60018181548110151561040557fe5b906000526020600020016000915090505481565b6000600180549050905090565b60008060008060008086815260200190815260200160002060000154600080878152602001908152602001600020600201546000808881526020019081526020016000206003015460008089815260200190815260200160002060040154935093509350935091935091935600a165627a7a72305820d8fc75af81e4cebc8a7c708696b8246962f3983eefa0bf0f8617169b6c7872230029",
  "source": "pragma solidity ^0.4.18;\n\ncontract Transactions {\n\n    struct Transaction {\n        uint tid;\n        uint tdate;\n        uint did;\n        uint carid;\n        uint cid;\n        bytes32 buyOrSell;\n        int tamount;\n        int tmileage;\n    }\n    mapping (uint => Transaction) transactions;\n    uint[] public transactionAccts;\n\n    function setTransaction(uint _tid, uint _tdate, uint _did, uint _carid, uint _cid, bytes32 _buyOrSell, int _tamount, int _tmileage) public payable{\n        Transaction storage transaction = transactions[_tid];\n\n        transaction.tid = _tid;\n        transaction.tdate = _tdate;\n        transaction.did = _did;\n        transaction.carid = _carid;\n        transaction.cid = _cid;\n        transaction.buyOrSell = _buyOrSell;\n        transaction.tamount = _tamount;\n        transaction.tmileage = _tmileage;\n\n        transactionAccts.push(_tid) -1;\n    }\n\n    function getTransactions() view public returns(uint[]) {\n        return transactionAccts;\n    }\n\n    function getTransactionDetail(uint _tid) view public returns (uint, uint, bytes32, int, int) {\n        return (transactions[_tid].tid, transactions[_tid].tdate, transactions[_tid].buyOrSell, transactions[_tid].tamount, transactions[_tid].tmileage);\n    }\n\n    function getTransactionRelations(uint _tid) view public returns (uint, uint, uint, uint) {\n        return (transactions[_tid].tid, transactions[_tid].did, transactions[_tid].carid, transactions[_tid].cid);\n    }\n\n    function countTransactions() view public returns (uint) {\n        return transactionAccts.length;\n    }\n\n\n}\n",
  "sourcePath": "/Users/johnsgeorge/Desktop/CarApplication/CarBackEnd/contracts/Transactions.sol",
  "compiler": {
    "name": "solc",
    "version": "0.4.24+commit.e67f0147.Emscripten.clang"
  },
  "schemaVersion": "2.0.0",
  "updatedAt": "2018-07-31T15:14:06.627Z"
}