{
  "contractName": "Transactions",
  "abi": [
    {
      "constant": true,
      "inputs": [],
      "name": "count",
      "outputs": [
        {
          "name": "",
          "type": "uint256"
        }
      ],
      "payable": false,
      "stateMutability": "view",
      "type": "function"
    },
    {
      "constant": true,
      "inputs": [
        {
          "name": "",
          "type": "uint256"
        }
      ],
      "name": "transactionAccts",
      "outputs": [
        {
          "name": "",
          "type": "uint256"
        }
      ],
      "payable": false,
      "stateMutability": "view",
      "type": "function"
    },
    {
      "inputs": [
        {
          "name": "args",
          "type": "bytes32[]"
        }
      ],
      "payable": false,
      "stateMutability": "nonpayable",
      "type": "constructor"
    },
    {
      "constant": false,
      "inputs": [
        {
          "name": "_tid",
          "type": "uint256"
        },
        {
          "name": "_tdate",
          "type": "uint256"
        },
        {
          "name": "_did",
          "type": "uint256"
        },
        {
          "name": "_carid",
          "type": "uint256"
        },
        {
          "name": "_cid",
          "type": "uint256"
        },
        {
          "name": "_buyOrSell",
          "type": "bytes32"
        },
        {
          "name": "_tamount",
          "type": "int256"
        },
        {
          "name": "_tmileage",
          "type": "int256"
        }
      ],
      "name": "setTransaction",
      "outputs": [],
      "payable": true,
      "stateMutability": "payable",
      "type": "function"
    },
    {
      "constant": true,
      "inputs": [],
      "name": "getTransactions",
      "outputs": [
        {
          "name": "",
          "type": "uint256[]"
        }
      ],
      "payable": false,
      "stateMutability": "view",
      "type": "function"
    },
    {
      "constant": true,
      "inputs": [
        {
          "name": "_tid",
          "type": "uint256"
        }
      ],
      "name": "getTransactionDetail",
      "outputs": [
        {
          "name": "",
          "type": "uint256"
        },
        {
          "name": "",
          "type": "uint256"
        },
        {
          "name": "",
          "type": "bytes32"
        },
        {
          "name": "",
          "type": "int256"
        },
        {
          "name": "",
          "type": "int256"
        }
      ],
      "payable": false,
      "stateMutability": "view",
      "type": "function"
    },
    {
      "constant": true,
      "inputs": [
        {
          "name": "_tid",
          "type": "uint256"
        }
      ],
      "name": "getTransactionRelations",
      "outputs": [
        {
          "name": "",
          "type": "uint256"
        },
        {
          "name": "",
          "type": "uint256"
        },
        {
          "name": "",
          "type": "uint256"
        },
        {
          "name": "",
          "type": "uint256"
        }
      ],
      "payable": false,
      "stateMutability": "view",
      "type": "function"
    },
    {
      "constant": true,
      "inputs": [],
      "name": "countTransactions",
      "outputs": [
        {
          "name": "",
          "type": "uint256"
        }
      ],
      "payable": false,
      "stateMutability": "view",
      "type": "function"
    },
    {
      "constant": true,
      "inputs": [
        {
          "name": "_carid",
          "type": "uint256"
        }
      ],
      "name": "getTransctionsForCar",
      "outputs": [
        {
          "name": "",
          "type": "uint256[]"
        }
      ],
      "payable": false,
      "stateMutability": "view",
      "type": "function"
    },
    {
      "constant": true,
      "inputs": [
        {
          "name": "_customerId",
          "type": "uint256"
        }
      ],
      "name": "getCurrentCarForCust",
      "outputs": [
        {
          "name": "",
          "type": "uint256[]"
        }
      ],
      "payable": false,
      "stateMutability": "view",
      "type": "function"
    },
    {
      "constant": true,
      "inputs": [
        {
          "name": "_customerId",
          "type": "uint256"
        }
      ],
      "name": "getPrevousCarForCust",
      "outputs": [
        {
          "name": "",
          "type": "uint256[]"
        }
      ],
      "payable": false,
      "stateMutability": "view",
      "type": "function"
    },
    {
      "constant": false,
      "inputs": [
        {
          "name": "values",
          "type": "uint256[]"
        },
        {
          "name": "value",
          "type": "uint256"
        }
      ],
      "name": "IndexOf",
      "outputs": [
        {
          "name": "",
          "type": "uint256"
        }
      ],
      "payable": false,
      "stateMutability": "nonpayable",
      "type": "function"
    },
    {
      "constant": false,
      "inputs": [
        {
          "name": "source",
          "type": "string"
        }
      ],
      "name": "stringToBytes32",
      "outputs": [
        {
          "name": "result",
          "type": "bytes32"
        }
      ],
      "payable": false,
      "stateMutability": "nonpayable",
      "type": "function"
    }
  ],
  "bytecode": "0x60806040526113886002553480156200001757600080fd5b50604051620012d2380380620012d283398101806040528101908080518201929190505050620000b9611389616eb9610bb96107d1610fa26200009e6040805190810160405280600481526020017f73656c6c00000000000000000000000000000000000000000000000000000000815250620003ae640100000000026401000000009004565b617918612ee0620003db640100000000026401000000009004565b6200013661138a616eb9610bb96107d2610fa26200011b6040805190810160405280600481526020017f73656c6c00000000000000000000000000000000000000000000000000000000815250620003ae640100000000026401000000009004565b617530615dc0620003db640100000000026401000000009004565b620001b261138b616eb9610bb96107d2610fa2620001986040805190810160405280600381526020017f6275790000000000000000000000000000000000000000000000000000000000815250620003ae640100000000026401000000009004565b6188b86000620003db640100000000026401000000009004565b6200022f61138c615603610bb96107d6610fa4620002146040805190810160405280600381526020017f6275790000000000000000000000000000000000000000000000000000000000815250620003ae640100000000026401000000009004565b6198586180e8620003db640100000000026401000000009004565b620002ac61138d61e469610bb96107d7610fa2620002916040805190810160405280600481526020017f73656c6c00000000000000000000000000000000000000000000000000000000815250620003ae640100000000026401000000009004565b61fde861afc8620003db640100000000026401000000009004565b6200032a61138e614d85610bb96107d8610fa66200030e6040805190810160405280600381526020017f6275790000000000000000000000000000000000000000000000000000000000815250620003ae640100000000026401000000009004565b620124f86155f0620003db640100000000026401000000009004565b620003a761138f615603610bb96107d6610fa76200038c6040805190810160405280600481526020017f73656c6c00000000000000000000000000000000000000000000000000000000815250620003ae640100000000026401000000009004565b6190886180e8620003db640100000000026401000000009004565b506200048e565b60006060829050600081511415620003cd5760006001029150620003d5565b602083015191505b50919050565b600080600060025481526020019081526020016000209050600254816000018190555087816001018190555086816002018190555085816003018190555084816004018190555083816005018160001916905550828160060181905550818160070181905550600180600254908060018154018082558091505090600182039060005260206000200160009091929091909150555050600260008154809291906001019190505550505050505050505050565b610e34806200049e6000396000f3006080604052600436106100ba576000357c0100000000000000000000000000000000000000000000000000000000900463ffffffff16806306661abd146100bf5780630706607e146100ea5780630bfba3431461016c5780636e4b5ad6146101f057806383920e901461027257806388ac5c9f146102de5780639ff512fa14610360578063b2035aea146103c5578063cfb519281461042f578063f5db6f40146104b4578063f81fc230146104f5578063fc9394be14610520575b600080fd5b3480156100cb57600080fd5b506100d4610576565b6040518082815260200191505060405180910390f35b3480156100f657600080fd5b506101156004803603810190808035906020019092919050505061057c565b6040518080602001828103825283818151815260200191508051906020019060200280838360005b8381101561015857808201518184015260208101905061013d565b505050509050019250505060405180910390f35b34801561017857600080fd5b506101da6004803603810190808035906020019082018035906020019080806020026020016040519081016040528093929190818152602001838360200280828437820191505050505050919291929080359060200190929190505050610703565b6040518082815260200191505060405180910390f35b3480156101fc57600080fd5b5061021b6004803603810190808035906020019092919050505061074f565b6040518080602001828103825283818151815260200191508051906020019060200280838360005b8381101561025e578082015181840152602081019050610243565b505050509050019250505060405180910390f35b34801561027e57600080fd5b50610287610848565b6040518080602001828103825283818151815260200191508051906020019060200280838360005b838110156102ca5780820151818401526020810190506102af565b505050509050019250505060405180910390f35b3480156102ea57600080fd5b50610309600480360381019080803590602001909291905050506108a0565b6040518080602001828103825283818151815260200191508051906020019060200280838360005b8381101561034c578082015181840152602081019050610331565b505050509050019250505060405180910390f35b34801561036c57600080fd5b5061038b60048036038101908080359060200190929190505050610c04565b6040518086815260200185815260200184600019166000191681526020018381526020018281526020019550505050505060405180910390f35b61042d600480360381019080803590602001909291908035906020019092919080359060200190929190803590602001909291908035906020019092919080356000191690602001909291908035906020019092919080359060200190929190505050610c8d565b005b34801561043b57600080fd5b50610496600480360381019080803590602001908201803590602001908080601f0160208091040260200160405190810160405280939291908181526020018383808284378201915050505050509192919290505050610d40565b60405180826000191660001916815260200191505060405180910390f35b3480156104c057600080fd5b506104df60048036038101908080359060200190929190505050610d6b565b6040518082815260200191505060405180910390f35b34801561050157600080fd5b5061050a610d8e565b6040518082815260200191505060405180910390f35b34801561052c57600080fd5b5061054b60048036038101908080359060200190929190505050610d9b565b6040518085815260200184815260200183815260200182815260200194505050505060405180910390f35b60025481565b60606000806000806000806001805490509450600092505b848310156106a6576001838154811015156105ab57fe5b90600052602060002001549150600080838152602001908152602001600020905087816004015414801561066157506106186040805190810160405280600381526020017f6275790000000000000000000000000000000000000000000000000000000000815250610d40565b6040518082600019166000191681526020019150506040518091039020600019168160050154604051808260001916600019168152602001915050604051809103902060001916145b156106995760018682600301549080600181540180825580915050906001820390600052602060002001600090919290919091505550505b8280600101935050610594565b858054806020026020016040519081016040528092919081815260200182805480156106f157602002820191906000526020600020905b8154815260200190600101908083116106dd575b50505050509650505050505050919050565b600080600090505b82848281518110151561071a57fe5b9060200190602002015114158015610733575083518111155b1561074557808060010191505061070b565b8091505092915050565b60606000806000806000806001805490509450600092505b848310156107eb5760018381548110151561077e57fe5b90600052602060002001549150600080838152602001908152602001600020905087816003015414156107de5760018682600001549080600181540180825580915050906001820390600052602060002001600090919290919091505550505b8280600101935050610767565b8580548060200260200160405190810160405280929190818152602001828054801561083657602002820191906000526020600020905b815481526020019060010190808311610822575b50505050509650505050505050919050565b6060600180548060200260200160405190810160405280929190818152602001828054801561089657602002820191906000526020600020905b815481526020019060010190808311610882575b5050505050905090565b606060008060008060008060006001805490509550600093505b858410156109cc576001848154811015156108d157fe5b906000526020600020015492506000808481526020019081526020016000209150888260040154148015610987575061093e6040805190810160405280600481526020017f73656c6c00000000000000000000000000000000000000000000000000000000815250610d40565b6040518082600019166000191681526020019150506040518091039020600019168260050154604051808260001916600019168152602001915050604051809103902060001916145b156109bf5760018783600301549080600181540180825580915050906001820390600052602060002001600090919290919091505550505b83806001019450506108ba565b600087805490501115610ba657600093505b85841015610ba5576001848154811015156109f557fe5b906000526020600020015492506000808481526020019081526020016000209150888260040154148015610aab5750610a626040805190810160405280600381526020017f6275790000000000000000000000000000000000000000000000000000000000815250610d40565b6040518082600019166000191681526020019150506040518091039020600019168260050154604051808260001916600019168152602001915050604051809103902060001916145b8015610b1757508680549050610b1488805480602002602001604051908101604052809291908181526020018280548015610b0557602002820191906000526020600020905b815481526020019060010190808311610af1575b50505050508460030154610703565b14155b15610b9857610b7987805480602002602001604051908101604052809291908181526020018280548015610b6a57602002820191906000526020600020905b815481526020019060010190808311610b56575b50505050508360030154610703565b90508681815481101515610b8957fe5b90600052602060002001600090555b83806001019450506109de565b5b86805480602002602001604051908101604052809291908181526020018280548015610bf157602002820191906000526020600020905b815481526020019060010190808311610bdd575b5050505050975050505050505050919050565b60008060008060008060008781526020019081526020016000206000015460008088815260200190815260200160002060010154600080898152602001908152602001600020600501546000808a8152602001908152602001600020600601546000808b8152602001908152602001600020600701549450945094509450945091939590929450565b600080600060025481526020019081526020016000209050600254816000018190555087816001018190555086816002018190555085816003018190555084816004018190555083816005018160001916905550828160060181905550818160070181905550600180600254908060018154018082558091505090600182039060005260206000200160009091929091909150555050600260008154809291906001019190505550505050505050505050565b60006060829050600081511415610d5d5760006001029150610d65565b602083015191505b50919050565b600181815481101515610d7a57fe5b906000526020600020016000915090505481565b6000600180549050905090565b60008060008060008086815260200190815260200160002060000154600080878152602001908152602001600020600201546000808881526020019081526020016000206003015460008089815260200190815260200160002060040154935093509350935091935091935600a165627a7a723058203cd3b93b89ce4f1386ecdf577c27b83061a697f6310fc9fcc8f374940b85732b0029",
  "source": "pragma solidity ^0.4.18;\n\ncontract Transactions {\n\n    struct Transaction {\n        uint tid;\n        uint tdate;\n        uint did;\n        uint carid;\n        uint cid;\n        bytes32 buyOrSell;\n        int tamount;\n        int tmileage;\n    }\n    mapping (uint => Transaction) transactions;\n    uint[] public transactionAccts;\n    uint public count = 5000;\n\n\n    constructor(bytes32[] args) public {\n      setTransaction(5001, 28345, 3001, 2001, 4002, stringToBytes32(\"sell\"), 31000, 12000);\n      setTransaction(5002, 28345, 3001, 2002, 4002, stringToBytes32(\"sell\"), 30000, 24000);\n      setTransaction(5003, 28345, 3001, 2002, 4002, stringToBytes32(\"buy\"), 35000, 0);\n      setTransaction(5004, 22019, 3001, 2006, 4004, stringToBytes32(\"buy\"), 39000, 33000);\n      setTransaction(5005, 58473, 3001, 2007, 4002, stringToBytes32(\"sell\"), 65000, 45000);\n      setTransaction(5006, 19845, 3001, 2008, 4006, stringToBytes32(\"buy\"), 75000, 22000);\n      setTransaction(5007, 22019, 3001, 2006, 4007, stringToBytes32(\"sell\"), 37000, 33000);\n    }\n\n    function setTransaction(uint _tid, uint _tdate, uint _did, uint _carid, uint _cid, bytes32 _buyOrSell, int _tamount, int _tmileage) public payable{\n        Transaction storage transaction = transactions[count];\n\n        transaction.tid = count;\n        transaction.tdate = _tdate;\n        transaction.did = _did;\n        transaction.carid = _carid;\n        transaction.cid = _cid;\n        transaction.buyOrSell = _buyOrSell;\n        transaction.tamount = _tamount;\n        transaction.tmileage = _tmileage;\n\n        transactionAccts.push(count) -1;\n        count++;\n\n    }\n\n    function getTransactions() view public returns(uint[]) {\n        return transactionAccts;\n    }\n\n    function getTransactionDetail(uint _tid) view public returns (uint, uint, bytes32, int, int) {\n        return (transactions[_tid].tid, transactions[_tid].tdate, transactions[_tid].buyOrSell, transactions[_tid].tamount, transactions[_tid].tmileage);\n    }\n\n    function getTransactionRelations(uint _tid) view public returns (uint, uint, uint, uint) {\n        return (transactions[_tid].tid, transactions[_tid].did, transactions[_tid].carid, transactions[_tid].cid);\n    }\n\n    function countTransactions() view public returns (uint) {\n        return transactionAccts.length;\n    }\n\n    function getTransctionsForCar(uint _carid) view public returns (uint[]) {\n        uint[] transactionIDs;\n\n        uint transCount = transactionAccts.length;\n        uint mid;\n        for (uint i=0; i<transCount; i++) {\n            uint transId = transactionAccts[i];\n            Transaction storage transaction = transactions[transId];\n            if(transaction.carid == _carid){\n                transactionIDs.push(transaction.tid) -1;\n            }\n        }\n        return (transactionIDs);\n\n    }\n\n    function getCurrentCarForCust(uint _customerId) view public returns (uint[]) {\n        uint[] carIDs;\n\n        uint transCount = transactionAccts.length;\n        uint mid;\n        uint i;\n        uint transId;\n        Transaction storage transaction;\n        for (i=0; i<transCount; i++) {\n            transId = transactionAccts[i];\n            transaction = transactions[transId];\n\n            if((transaction.cid == _customerId) &&\n            (keccak256(transaction.buyOrSell) == keccak256(stringToBytes32(\"sell\")))\n            ){\n                carIDs.push(transaction.carid) -1;\n            }\n        }\n        if(carIDs.length > 0){\n            for (i=0; i<transCount; i++) {\n                transId = transactionAccts[i];\n                transaction = transactions[transId];\n\n                if((transaction.cid == _customerId) &&\n                (keccak256(transaction.buyOrSell) == keccak256(stringToBytes32(\"buy\"))) &&\n                (IndexOf(carIDs, transaction.carid) != carIDs.length)\n                ){\n                    uint index = IndexOf(carIDs, transaction.carid);\n                    delete carIDs[index];\n                }\n            }\n        }\n        return (carIDs);\n\n    }\n\n    function getPrevousCarForCust(uint _customerId) view public returns (uint[]) {\n        uint[] carIDs;\n\n        uint transCount = transactionAccts.length;\n        uint mid;\n        for (uint i=0; i<transCount; i++) {\n            uint transId = transactionAccts[i];\n            Transaction storage transaction = transactions[transId];\n            if((transaction.cid == _customerId) &&\n            (keccak256(transaction.buyOrSell) == keccak256(stringToBytes32(\"buy\")))){\n                carIDs.push(transaction.carid) -1;\n            }\n        }\n        return (carIDs);\n\n    }\n\n\n    function IndexOf(uint[] values, uint value) returns(uint) {\n        uint i = 0;\n        while ((values[i] != value) && i <= values.length) {\n          i++;\n        }\n        return i;\n    }\n\n    function stringToBytes32(string memory source) returns (bytes32 result) {\n      bytes memory tempEmptyStringTest = bytes(source);\n      if (tempEmptyStringTest.length == 0) {\n          return 0x0;\n      }\n\n      assembly {\n          result := mload(add(source, 32))\n      }\n    }\n\n}\n",
  "sourcePath": "/Users/johnsgeorge/Desktop/CarApplication/CarBackEnd/contracts/Transactions.sol",
  "compiler": {
    "name": "solc",
    "version": "0.4.24+commit.e67f0147.Emscripten.clang"
  },
  "schemaVersion": "2.0.0",
  "updatedAt": "2018-08-17T21:59:42.860Z"
}