{
  "contractName": "Transactions",
  "abi": [
    {
      "constant": true,
      "inputs": [
        {
          "name": "",
          "type": "uint256"
        }
      ],
      "name": "transactionAccts",
      "outputs": [
        {
          "name": "",
          "type": "uint256"
        }
      ],
      "payable": false,
      "stateMutability": "view",
      "type": "function"
    },
    {
      "inputs": [
        {
          "name": "args",
          "type": "bytes32[]"
        }
      ],
      "payable": false,
      "stateMutability": "nonpayable",
      "type": "constructor"
    },
    {
      "constant": false,
      "inputs": [
        {
          "name": "_tid",
          "type": "uint256"
        },
        {
          "name": "_tdate",
          "type": "uint256"
        },
        {
          "name": "_did",
          "type": "uint256"
        },
        {
          "name": "_carid",
          "type": "uint256"
        },
        {
          "name": "_cid",
          "type": "uint256"
        },
        {
          "name": "_buyOrSell",
          "type": "bytes32"
        },
        {
          "name": "_tamount",
          "type": "int256"
        },
        {
          "name": "_tmileage",
          "type": "int256"
        }
      ],
      "name": "setTransaction",
      "outputs": [],
      "payable": true,
      "stateMutability": "payable",
      "type": "function"
    },
    {
      "constant": true,
      "inputs": [],
      "name": "getTransactions",
      "outputs": [
        {
          "name": "",
          "type": "uint256[]"
        }
      ],
      "payable": false,
      "stateMutability": "view",
      "type": "function"
    },
    {
      "constant": true,
      "inputs": [
        {
          "name": "_tid",
          "type": "uint256"
        }
      ],
      "name": "getTransactionDetail",
      "outputs": [
        {
          "name": "",
          "type": "uint256"
        },
        {
          "name": "",
          "type": "uint256"
        },
        {
          "name": "",
          "type": "bytes32"
        },
        {
          "name": "",
          "type": "int256"
        },
        {
          "name": "",
          "type": "int256"
        }
      ],
      "payable": false,
      "stateMutability": "view",
      "type": "function"
    },
    {
      "constant": true,
      "inputs": [
        {
          "name": "_tid",
          "type": "uint256"
        }
      ],
      "name": "getTransactionRelations",
      "outputs": [
        {
          "name": "",
          "type": "uint256"
        },
        {
          "name": "",
          "type": "uint256"
        },
        {
          "name": "",
          "type": "uint256"
        },
        {
          "name": "",
          "type": "uint256"
        }
      ],
      "payable": false,
      "stateMutability": "view",
      "type": "function"
    },
    {
      "constant": true,
      "inputs": [],
      "name": "countTransactions",
      "outputs": [
        {
          "name": "",
          "type": "uint256"
        }
      ],
      "payable": false,
      "stateMutability": "view",
      "type": "function"
    },
    {
      "constant": false,
      "inputs": [
        {
          "name": "source",
          "type": "string"
        }
      ],
      "name": "stringToBytes32",
      "outputs": [
        {
          "name": "result",
          "type": "bytes32"
        }
      ],
      "payable": false,
      "stateMutability": "nonpayable",
      "type": "function"
    }
  ],
  "bytecode": "0x608060405234801561001057600080fd5b506040516109d73803806109d7833981018060405281019080805182019291905050506100ac611389616eb9610bb96107d1610fa16100926040805190810160405280600481526020017f73656c6c00000000000000000000000000000000000000000000000000000000815250610388640100000000026401000000009004565b617918612ee06103b3640100000000026401000000009004565b61012561138a616eb9610bb96107d2610fa261010b6040805190810160405280600481526020017f73656c6c00000000000000000000000000000000000000000000000000000000815250610388640100000000026401000000009004565b617530615dc06103b3640100000000026401000000009004565b61019d61138b616eb9610bb96107d3610fa36101846040805190810160405280600481526020017f73656c6c00000000000000000000000000000000000000000000000000000000815250610388640100000000026401000000009004565b6188b860006103b3640100000000026401000000009004565b61021661138c615603610bb96107d6610fa46101fc6040805190810160405280600381526020017f6275790000000000000000000000000000000000000000000000000000000000815250610388640100000000026401000000009004565b6198586180e86103b3640100000000026401000000009004565b61028f61138d61e469610bb96107d7610fa56102756040805190810160405280600481526020017f73656c6c00000000000000000000000000000000000000000000000000000000815250610388640100000000026401000000009004565b61fde861afc86103b3640100000000026401000000009004565b61030961138e614d85610bb96107d8610fa66102ee6040805190810160405280600381526020017f6275790000000000000000000000000000000000000000000000000000000000815250610388640100000000026401000000009004565b620124f86155f06103b3640100000000026401000000009004565b61038261138c615603610bb96107d6610fa76103686040805190810160405280600481526020017f73656c6c00000000000000000000000000000000000000000000000000000000815250610388640100000000026401000000009004565b6190886180e86103b3640100000000026401000000009004565b5061044e565b600060608290506000815114156103a557600060010291506103ad565b602083015191505b50919050565b60008060008a81526020019081526020016000209050888160000181905550878160010181905550868160020181905550858160030181905550848160040181905550838160050181600019169055508281600601819055508181600701819055506001808a908060018154018082558091505090600182039060005260206000200160009091929091909150555050505050505050505050565b61057a8061045d6000396000f300608060405260043610610083576000357c0100000000000000000000000000000000000000000000000000000000900463ffffffff16806383920e90146100885780639ff512fa146100f4578063b2035aea14610159578063cfb51928146101c3578063f5db6f4014610248578063f81fc23014610289578063fc9394be146102b4575b600080fd5b34801561009457600080fd5b5061009d61030a565b6040518080602001828103825283818151815260200191508051906020019060200280838360005b838110156100e05780820151818401526020810190506100c5565b505050509050019250505060405180910390f35b34801561010057600080fd5b5061011f60048036038101908080359060200190929190505050610362565b6040518086815260200185815260200184600019166000191681526020018381526020018281526020019550505050505060405180910390f35b6101c16004803603810190808035906020019092919080359060200190929190803590602001909291908035906020019092919080359060200190929190803560001916906020019092919080359060200190929190803590602001909291905050506103eb565b005b3480156101cf57600080fd5b5061022a600480360381019080803590602001908201803590602001908080601f0160208091040260200160405190810160405280939291908181526020018383808284378201915050505050509192919290505050610486565b60405180826000191660001916815260200191505060405180910390f35b34801561025457600080fd5b50610273600480360381019080803590602001909291905050506104b1565b6040518082815260200191505060405180910390f35b34801561029557600080fd5b5061029e6104d4565b6040518082815260200191505060405180910390f35b3480156102c057600080fd5b506102df600480360381019080803590602001909291905050506104e1565b6040518085815260200184815260200183815260200182815260200194505050505060405180910390f35b6060600180548060200260200160405190810160405280929190818152602001828054801561035857602002820191906000526020600020905b815481526020019060010190808311610344575b5050505050905090565b60008060008060008060008781526020019081526020016000206000015460008088815260200190815260200160002060010154600080898152602001908152602001600020600501546000808a8152602001908152602001600020600601546000808b8152602001908152602001600020600701549450945094509450945091939590929450565b60008060008a81526020019081526020016000209050888160000181905550878160010181905550868160020181905550858160030181905550848160040181905550838160050181600019169055508281600601819055508181600701819055506001808a908060018154018082558091505090600182039060005260206000200160009091929091909150555050505050505050505050565b600060608290506000815114156104a357600060010291506104ab565b602083015191505b50919050565b6001818154811015156104c057fe5b906000526020600020016000915090505481565b6000600180549050905090565b60008060008060008086815260200190815260200160002060000154600080878152602001908152602001600020600201546000808881526020019081526020016000206003015460008089815260200190815260200160002060040154935093509350935091935091935600a165627a7a723058208cb40a11ce357c70b33ed18bf86713154b10193160b437c2cea1f1cdd9962fcc0029",
  "source": "pragma solidity ^0.4.18;\n\ncontract Transactions {\n\n    struct Transaction {\n        uint tid;\n        uint tdate;\n        uint did;\n        uint carid;\n        uint cid;\n        bytes32 buyOrSell;\n        int tamount;\n        int tmileage;\n    }\n    mapping (uint => Transaction) transactions;\n    uint[] public transactionAccts;\n\n    constructor(bytes32[] args) public {\n      setTransaction(5001, 28345, 3001, 2001, 4001, stringToBytes32(\"sell\"), 31000, 12000);\n      setTransaction(5002, 28345, 3001, 2002, 4002, stringToBytes32(\"sell\"), 30000, 24000);\n      setTransaction(5003, 28345, 3001, 2003, 4003, stringToBytes32(\"sell\"), 35000, 0);\n      setTransaction(5004, 22019, 3001, 2006, 4004, stringToBytes32(\"buy\"), 39000, 33000);\n      setTransaction(5005, 58473, 3001, 2007, 4005, stringToBytes32(\"sell\"), 65000, 45000);\n      setTransaction(5006, 19845, 3001, 2008, 4006, stringToBytes32(\"buy\"), 75000, 22000);\n      setTransaction(5004, 22019, 3001, 2006, 4007, stringToBytes32(\"sell\"), 37000, 33000);\n    }\n\n    function setTransaction(uint _tid, uint _tdate, uint _did, uint _carid, uint _cid, bytes32 _buyOrSell, int _tamount, int _tmileage) public payable{\n        Transaction storage transaction = transactions[_tid];\n\n        transaction.tid = _tid;\n        transaction.tdate = _tdate;\n        transaction.did = _did;\n        transaction.carid = _carid;\n        transaction.cid = _cid;\n        transaction.buyOrSell = _buyOrSell;\n        transaction.tamount = _tamount;\n        transaction.tmileage = _tmileage;\n\n        transactionAccts.push(_tid) -1;\n    }\n\n    function getTransactions() view public returns(uint[]) {\n        return transactionAccts;\n    }\n\n    function getTransactionDetail(uint _tid) view public returns (uint, uint, bytes32, int, int) {\n        return (transactions[_tid].tid, transactions[_tid].tdate, transactions[_tid].buyOrSell, transactions[_tid].tamount, transactions[_tid].tmileage);\n    }\n\n    function getTransactionRelations(uint _tid) view public returns (uint, uint, uint, uint) {\n        return (transactions[_tid].tid, transactions[_tid].did, transactions[_tid].carid, transactions[_tid].cid);\n    }\n\n    function countTransactions() view public returns (uint) {\n        return transactionAccts.length;\n    }\n\n\n    function stringToBytes32(string memory source) returns (bytes32 result) {\n      bytes memory tempEmptyStringTest = bytes(source);\n      if (tempEmptyStringTest.length == 0) {\n          return 0x0;\n      }\n\n      assembly {\n          result := mload(add(source, 32))\n      }\n    }\n\n}\n",
  "sourcePath": "/Users/johnsgeorge/Desktop/CarApplication/CarBackEnd/contracts/Transactions.sol",
  "compiler": {
    "name": "solc",
    "version": "0.4.24+commit.e67f0147.Emscripten.clang"
  },
  "schemaVersion": "2.0.0",
  "updatedAt": "2018-08-08T17:48:54.085Z"
}