{
  "contractName": "VehicleServiceDetails",
  "abi": [
    {
      "constant": true,
      "inputs": [
        {
          "name": "",
          "type": "uint256"
        }
      ],
      "name": "ServiceDetailAccts",
      "outputs": [
        {
          "name": "",
          "type": "uint256"
        }
      ],
      "payable": false,
      "stateMutability": "view",
      "type": "function"
    },
    {
      "constant": false,
      "inputs": [
        {
          "name": "_serviceID",
          "type": "uint256"
        },
        {
          "name": "_jobID",
          "type": "uint256"
        }
      ],
      "name": "setServiceDetail",
      "outputs": [],
      "payable": true,
      "stateMutability": "payable",
      "type": "function"
    },
    {
      "constant": true,
      "inputs": [],
      "name": "getServiceDetails",
      "outputs": [
        {
          "name": "",
          "type": "uint256[]"
        }
      ],
      "payable": false,
      "stateMutability": "view",
      "type": "function"
    },
    {
      "constant": true,
      "inputs": [
        {
          "name": "_serviceID",
          "type": "uint256"
        }
      ],
      "name": "getServiceDetailById",
      "outputs": [
        {
          "name": "",
          "type": "uint256"
        },
        {
          "name": "",
          "type": "uint256"
        }
      ],
      "payable": false,
      "stateMutability": "view",
      "type": "function"
    },
    {
      "constant": true,
      "inputs": [],
      "name": "countBrands",
      "outputs": [
        {
          "name": "",
          "type": "uint256"
        }
      ],
      "payable": false,
      "stateMutability": "view",
      "type": "function"
    }
  ],
  "bytecode": "0x608060405234801561001057600080fd5b50610303806100206000396000f30060806040526004361061006d576000357c0100000000000000000000000000000000000000000000000000000000900463ffffffff168063393322e31461007257806344041a8d1461009c578063b0fd8954146100c7578063b9b1666114610133578063e0b71be91461017b575b600080fd5b61009a60048036038101908080359060200190929190803590602001909291905050506101bc565b005b3480156100a857600080fd5b506100b1610217565b6040518082815260200191505060405180910390f35b3480156100d357600080fd5b506100dc610224565b6040518080602001828103825283818151815260200191508051906020019060200280838360005b8381101561011f578082015181840152602081019050610104565b505050509050019250505060405180910390f35b34801561013f57600080fd5b5061015e6004803603810190808035906020019092919050505061027c565b604051808381526020018281526020019250505060405180910390f35b34801561018757600080fd5b506101a6600480360381019080803590602001909291905050506102b4565b6040518082815260200191505060405180910390f35b6000806000848152602001908152602001600020905082816000018190555081816001018190555060018084908060018154018082558091505090600182039060005260206000200160009091929091909150555050505050565b6000600180549050905090565b6060600180548060200260200160405190810160405280929190818152602001828054801561027257602002820191906000526020600020905b81548152602001906001019080831161025e575b5050505050905090565b600080600080848152602001908152602001600020600001546000808581526020019081526020016000206000015491509150915091565b6001818154811015156102c357fe5b9060005260206000200160009150905054815600a165627a7a72305820b1bf9bfdc4cd0ced6796a996be4f5f6184bddf86ca4d3f503ed8ef1b1b773a930029",
  "source": "pragma solidity ^0.4.18;\ncontract VehicleServiceDetails {\n\n    struct ServiceDetail {\n        uint serviceID;\n        uint jobID;\n    }\n    mapping (uint => ServiceDetail) serviceDetails;\n    uint[] public ServiceDetailAccts;\n\n    function setServiceDetail(uint _serviceID, uint _jobID) public payable{\n        ServiceDetail storage serviceDetail = serviceDetails[_serviceID];\n\n        serviceDetail.serviceID = _serviceID;\n        serviceDetail.jobID = _jobID;\n\n        ServiceDetailAccts.push(_serviceID) -1;\n    }\n\n    function getServiceDetails() view public returns(uint[]) {\n        return ServiceDetailAccts;\n    }\n\n    function getServiceDetailById(uint _serviceID) view public returns (uint, uint) {\n        return (serviceDetails[_serviceID].serviceID, serviceDetails[_serviceID].serviceID);\n    }\n\n    function countBrands() view public returns (uint) {\n        return ServiceDetailAccts.length;\n    }\n\n\n}\n",
  "sourcePath": "/Users/johnsgeorge/Desktop/CarApplication/CarBackEnd/contracts/VehicleServiceDetails.sol",
  "compiler": {
    "name": "solc",
    "version": "0.4.24+commit.e67f0147.Emscripten.clang"
  },
  "schemaVersion": "2.0.0",
  "updatedAt": "2018-08-08T17:48:54.066Z"
}