{
  "contractName": "VehicleServices",
  "abi": [
    {
      "constant": true,
      "inputs": [
        {
          "name": "",
          "type": "uint256"
        }
      ],
      "name": "serviceAccts",
      "outputs": [
        {
          "name": "",
          "type": "uint256"
        }
      ],
      "payable": false,
      "stateMutability": "view",
      "type": "function"
    },
    {
      "constant": false,
      "inputs": [
        {
          "name": "_Sid",
          "type": "uint256"
        },
        {
          "name": "_Sdate",
          "type": "int256"
        },
        {
          "name": "_SCid",
          "type": "uint256"
        },
        {
          "name": "_carid",
          "type": "uint256"
        },
        {
          "name": "_Smileage",
          "type": "int256"
        },
        {
          "name": "_SrepairDetails",
          "type": "bytes32"
        },
        {
          "name": "_Scost",
          "type": "int256"
        }
      ],
      "name": "setServicebyID",
      "outputs": [],
      "payable": true,
      "stateMutability": "payable",
      "type": "function"
    },
    {
      "constant": true,
      "inputs": [],
      "name": "getServices",
      "outputs": [
        {
          "name": "",
          "type": "uint256[]"
        }
      ],
      "payable": false,
      "stateMutability": "view",
      "type": "function"
    },
    {
      "constant": true,
      "inputs": [
        {
          "name": "_Sid",
          "type": "uint256"
        }
      ],
      "name": "getService",
      "outputs": [
        {
          "name": "",
          "type": "uint256"
        },
        {
          "name": "",
          "type": "int256"
        },
        {
          "name": "",
          "type": "int256"
        },
        {
          "name": "",
          "type": "bytes32"
        },
        {
          "name": "",
          "type": "int256"
        }
      ],
      "payable": false,
      "stateMutability": "view",
      "type": "function"
    },
    {
      "constant": true,
      "inputs": [
        {
          "name": "_Sid",
          "type": "uint256"
        }
      ],
      "name": "getServiceRelations",
      "outputs": [
        {
          "name": "",
          "type": "uint256"
        },
        {
          "name": "",
          "type": "uint256"
        },
        {
          "name": "",
          "type": "uint256"
        }
      ],
      "payable": false,
      "stateMutability": "view",
      "type": "function"
    },
    {
      "constant": true,
      "inputs": [],
      "name": "countServices",
      "outputs": [
        {
          "name": "",
          "type": "uint256"
        }
      ],
      "payable": false,
      "stateMutability": "view",
      "type": "function"
    }
  ],
  "bytecode": "0x608060405234801561001057600080fd5b5061048b806100206000396000f300608060405260043610610078576000357c0100000000000000000000000000000000000000000000000000000000900463ffffffff1680632c9dc2f91461007d57806375417851146100cc5780637649aeb014610138578063cd6e43d314610198578063e54d19d2146101d9578063ef0e239b14610204575b600080fd5b34801561008957600080fd5b506100a860048036038101908080359060200190929190505050610269565b60405180848152602001838152602001828152602001935050505060405180910390f35b3480156100d857600080fd5b506100e16102bd565b6040518080602001828103825283818151815260200191508051906020019060200280838360005b83811015610124578082015181840152602081019050610109565b505050509050019250505060405180910390f35b6101966004803603810190808035906020019092919080359060200190929190803590602001909291908035906020019092919080359060200190929190803560001916906020019092919080359060200190929190505050610315565b005b3480156101a457600080fd5b506101c3600480360381019080803590602001909291905050506103a6565b6040518082815260200191505060405180910390f35b3480156101e557600080fd5b506101ee6103c9565b6040518082815260200191505060405180910390f35b34801561021057600080fd5b5061022f600480360381019080803590602001909291905050506103d6565b6040518086815260200185815260200184815260200183600019166000191681526020018281526020019550505050505060405180910390f35b60008060008060008581526020019081526020016000206000015460008086815260200190815260200160002060020154600080878152602001908152602001600020600301549250925092509193909250565b6060600180548060200260200160405190810160405280929190818152602001828054801561030b57602002820191906000526020600020905b8154815260200190600101908083116102f7575b5050505050905090565b6000806000898152602001908152602001600020905087816000018190555086816001018190555085816002018190555084816003018190555083816004018190555082816005018160001916905550818160060181905550600180899080600181540180825580915050906001820390600052602060002001600090919290919091505550505050505050505050565b6001818154811015156103b557fe5b906000526020600020016000915090505481565b6000600180549050905090565b60008060008060008060008781526020019081526020016000206000015460008088815260200190815260200160002060010154600080898152602001908152602001600020600401546000808a8152602001908152602001600020600501546000808b81526020019081526020016000206006015494509450945094509450919395909294505600a165627a7a72305820a907a191ac608ae1f2d3aaa2037616950bba2ad0c33862c9fd2abd174f2802430029",
  "source": "pragma solidity ^0.4.18;\ncontract VehicleServices {\n\n    struct Service {\n        uint Sid;\n        int Sdate;\n        uint SCid;\n        uint carid;\n        int Smileage;\n        bytes32 SrepairDetails;\n        int Scost;\n    }\n    mapping (uint => Service) services;\n    uint[] public serviceAccts;\n\n    function setServicebyID(uint _Sid, int _Sdate, uint _SCid, uint _carid, int _Smileage, bytes32 _SrepairDetails, int _Scost) public payable{\n        Service storage service = services[_Sid];\n\n        service.Sid = _Sid;\n        service.Sdate = _Sdate;\n        service.SCid = _SCid;\n        service.carid = _carid;\n        service.Smileage = _Smileage;\n        service.SrepairDetails = _SrepairDetails;\n        service.Scost = _Scost;\n\n        serviceAccts.push(_Sid) -1;\n    }\n\n    function getServices() view public returns(uint[]) {\n        return serviceAccts;\n    }\n\n    function getService(uint _Sid) view public returns (uint, int, int, bytes32, int) {\n        return (services[_Sid].Sid, services[_Sid].Sdate, services[_Sid].Smileage, services[_Sid].SrepairDetails, services[_Sid].Scost);\n    }\n\n    function getServiceRelations(uint _Sid) view public returns (uint, uint, uint) {\n        return (services[_Sid].Sid, services[_Sid].SCid, services[_Sid].carid);\n    }\n\n    function countServices() view public returns (uint) {\n        return serviceAccts.length;\n    }\n\n\n}\n",
  "sourcePath": "/Users/johnsgeorge/Desktop/CarApplication/CarBackEnd/contracts/VehicleServices.sol",
  "compiler": {
    "name": "solc",
    "version": "0.4.24+commit.e67f0147.Emscripten.clang"
  },
  "schemaVersion": "2.0.0",
  "updatedAt": "2018-08-06T12:54:57.209Z"
}