{
  "contractName": "Vehicles",
  "abi": [
    {
      "constant": true,
      "inputs": [
        {
          "name": "",
          "type": "uint256"
        }
      ],
      "name": "carAccts",
      "outputs": [
        {
          "name": "",
          "type": "uint256"
        }
      ],
      "payable": false,
      "stateMutability": "view",
      "type": "function"
    },
    {
      "inputs": [
        {
          "name": "args",
          "type": "bytes32[]"
        }
      ],
      "payable": false,
      "stateMutability": "nonpayable",
      "type": "constructor"
    },
    {
      "constant": false,
      "inputs": [
        {
          "name": "_carid",
          "type": "uint256"
        },
        {
          "name": "_model",
          "type": "bytes32"
        },
        {
          "name": "_year",
          "type": "int256"
        },
        {
          "name": "_value",
          "type": "int256"
        },
        {
          "name": "_active",
          "type": "bool"
        },
        {
          "name": "_mid",
          "type": "uint256"
        }
      ],
      "name": "setCar",
      "outputs": [],
      "payable": true,
      "stateMutability": "payable",
      "type": "function"
    },
    {
      "constant": true,
      "inputs": [],
      "name": "getCars",
      "outputs": [
        {
          "name": "",
          "type": "uint256[]"
        }
      ],
      "payable": false,
      "stateMutability": "view",
      "type": "function"
    },
    {
      "constant": true,
      "inputs": [
        {
          "name": "_carid",
          "type": "uint256"
        }
      ],
      "name": "getCar",
      "outputs": [
        {
          "name": "",
          "type": "uint256"
        },
        {
          "name": "",
          "type": "bytes32"
        },
        {
          "name": "",
          "type": "int256"
        },
        {
          "name": "",
          "type": "int256"
        },
        {
          "name": "",
          "type": "bool"
        },
        {
          "name": "",
          "type": "uint256"
        }
      ],
      "payable": false,
      "stateMutability": "view",
      "type": "function"
    },
    {
      "constant": true,
      "inputs": [],
      "name": "countCars",
      "outputs": [
        {
          "name": "",
          "type": "uint256"
        }
      ],
      "payable": false,
      "stateMutability": "view",
      "type": "function"
    },
    {
      "constant": true,
      "inputs": [
        {
          "name": "_model",
          "type": "string"
        }
      ],
      "name": "getVehicleByModel",
      "outputs": [
        {
          "name": "",
          "type": "uint256"
        },
        {
          "name": "",
          "type": "bytes32"
        },
        {
          "name": "",
          "type": "int256"
        },
        {
          "name": "",
          "type": "int256"
        },
        {
          "name": "",
          "type": "bool"
        },
        {
          "name": "",
          "type": "uint256"
        }
      ],
      "payable": false,
      "stateMutability": "view",
      "type": "function"
    },
    {
      "constant": false,
      "inputs": [
        {
          "name": "source",
          "type": "string"
        }
      ],
      "name": "stringToBytes32",
      "outputs": [
        {
          "name": "result",
          "type": "bytes32"
        }
      ],
      "payable": false,
      "stateMutability": "nonpayable",
      "type": "function"
    }
  ],
  "bytecode": "0x60806040523480156200001157600080fd5b5060405162000dc838038062000dc883398101806040528101908080518201929190505050620000ac6107d16200008c6040805190810160405280600881526020017f3320536572696573000000000000000000000000000000000000000000000000815250620005c8640100000000026401000000009004565b6107e161791860016103e9620005f5640100000000026401000000009004565b620001226107d2620001026040805190810160405280600881526020017f3320536572696573000000000000000000000000000000000000000000000000815250620005c8640100000000026401000000009004565b6107e061753060016103e9620005f5640100000000026401000000009004565b620001986107d3620001786040805190810160405280600881526020017f3320536572696573000000000000000000000000000000000000000000000000815250620005c8640100000000026401000000009004565b6107e26180e860016103e9620005f5640100000000026401000000009004565b6200020e6107d4620001ee6040805190810160405280600881526020017f3320536572696573000000000000000000000000000000000000000000000000815250620005c8640100000000026401000000009004565b6107e26184d060016103e9620005f5640100000000026401000000009004565b620002846107d5620002646040805190810160405280600881526020017f3520536572696573000000000000000000000000000000000000000000000000815250620005c8640100000000026401000000009004565b6107e061985860016103e9620005f5640100000000026401000000009004565b620002fa6107d6620002da6040805190810160405280600881526020017f3520536572696573000000000000000000000000000000000000000000000000815250620005c8640100000000026401000000009004565b6107e0619c4060016103e9620005f5640100000000026401000000009004565b620003716107d7620003506040805190810160405280600881526020017f3820536572696573000000000000000000000000000000000000000000000000815250620005c8640100000000026401000000009004565b6107e062012cc860016103e9620005f5640100000000026401000000009004565b620003e76107d8620003c76040805190810160405280600881526020017f3820536572696573000000000000000000000000000000000000000000000000815250620005c8640100000000026401000000009004565b6107e061fde860016103e9620005f5640100000000026401000000009004565b6200045d6107d96200043d6040805190810160405280600981526020017f5833205365726965730000000000000000000000000000000000000000000000815250620005c8640100000000026401000000009004565b6107e061d6d860016103e9620005f5640100000000026401000000009004565b620004d36107da620004b36040805190810160405280600981526020017f5833205365726965730000000000000000000000000000000000000000000000815250620005c8640100000000026401000000009004565b6107e061c35060016103e9620005f5640100000000026401000000009004565b6200054a6107db620005296040805190810160405280601181526020017f526f6c6c732d526f7963652047686f7374000000000000000000000000000000815250620005c8640100000000026401000000009004565b6107e0620493e060016103ea620005f5640100000000026401000000009004565b620005c16107dc620005a06040805190810160405280601181526020017f526f6c6c732d526f7963652047686f7374000000000000000000000000000000815250620005c8640100000000026401000000009004565b6107df6205573060016103ea620005f5640100000000026401000000009004565b506200068f565b60006060829050600081511415620005e75760006001029150620005ef565b602083015191505b50919050565b6000806000888152602001908152602001600020905086816000018190555085816001018160001916905550848160020181905550838160030181905550828160040160006101000a81548160ff0219169083151502179055508181600501819055506001808890806001815401808255809150509060018203906000526020600020016000909192909190915055505050505050505050565b610729806200069f6000396000f300608060405260043610610082576000357c0100000000000000000000000000000000000000000000000000000000900463ffffffff168062f257471461008757806317c392861461013357806345bae1eb1461019f5780635bd1b8c5146101e05780635e8be1901461020b578063ae3d0eec1461027b578063cfb51928146102d3575b600080fd5b34801561009357600080fd5b506100ee600480360381019080803590602001908201803590602001908080601f0160208091040260200160405190810160405280939291908181526020018383808284378201915050505050509192919290505050610358565b60405180878152602001866000191660001916815260200185815260200184815260200183151515158152602001828152602001965050505050505060405180910390f35b34801561013f57600080fd5b50610148610501565b6040518080602001828103825283818151815260200191508051906020019060200280838360005b8381101561018b578082015181840152602081019050610170565b505050509050019250505060405180910390f35b3480156101ab57600080fd5b506101ca60048036038101908080359060200190929190505050610559565b6040518082815260200191505060405180910390f35b3480156101ec57600080fd5b506101f561057c565b6040518082815260200191505060405180910390f35b34801561021757600080fd5b5061023660048036038101908080359060200190929190505050610589565b60405180878152602001866000191660001916815260200185815260200184815260200183151515158152602001828152602001965050505050505060405180910390f35b6102d1600480360381019080803590602001909291908035600019169060200190929190803590602001909291908035906020019092919080351515906020019092919080359060200190929190505050610638565b005b3480156102df57600080fd5b5061033a600480360381019080803590602001908201803590602001908080601f01602080910402602001604051908101604052809392919081815260200183838082843782019150505050505091929192905050506106d2565b60405180826000191660001916815260200191505060405180910390f35b60008060008060008060008060008060006001805490509450600092505b848310156104565760018381548110151561038d57fe5b9060005260206000200154915060008083815260200190815260200160002090508b6040518082805190602001908083835b6020831015156103e457805182526020820191506020810190506020830392506103bf565b6001836020036101000a0380198251168184511680821785525050505050509050019150506040518091039020600019168160010154604051808260001916600019168152602001915050604051809103902060001916141561044957819350610456565b8280600101935050610376565b6000808581526020019081526020016000206000015460008086815260200190815260200160002060010154600080878152602001908152602001600020600201546000808881526020019081526020016000206003015460008089815260200190815260200160002060040160009054906101000a900460ff166000808a8152602001908152602001600020600501549a509a509a509a509a509a50505050505091939550919395565b6060600180548060200260200160405190810160405280929190818152602001828054801561054f57602002820191906000526020600020905b81548152602001906001019080831161053b575b5050505050905090565b60018181548110151561056857fe5b906000526020600020016000915090505481565b6000600180549050905090565b60008060008060008060008088815260200190815260200160002060000154600080898152602001908152602001600020600101546000808a8152602001908152602001600020600201546000808b8152602001908152602001600020600301546000808c815260200190815260200160002060040160009054906101000a900460ff166000808d81526020019081526020016000206005015495509550955095509550955091939550919395565b6000806000888152602001908152602001600020905086816000018190555085816001018160001916905550848160020181905550838160030181905550828160040160006101000a81548160ff0219169083151502179055508181600501819055506001808890806001815401808255809150509060018203906000526020600020016000909192909190915055505050505050505050565b600060608290506000815114156106ef57600060010291506106f7565b602083015191505b509190505600a165627a7a72305820cc13b099790be38b5305682a1b5aded9cfce03d6884c495b8dc1a5e1f935ed650029",
  "source": "pragma solidity ^0.4.18;\ncontract Vehicles {\n\n    struct Car {\n        uint carid;\n        bytes32 model;\n        int year;\n        int value;\n        bool active;\n        uint mid;\n    }\n    mapping (uint => Car) c;\n    uint[] public carAccts;\n\n    constructor(bytes32[] args) public {\n      setCar(2001, stringToBytes32(\"3 Series\"), 2017, 31000, true, 1001);\n      setCar(2002, stringToBytes32(\"3 Series\"), 2016, 30000, true, 1001);\n      setCar(2003, stringToBytes32(\"3 Series\"), 2018, 33000, true, 1001);\n      setCar(2004, stringToBytes32(\"3 Series\"), 2018, 34000, true, 1001);\n      setCar(2005, stringToBytes32(\"5 Series\"), 2016, 39000, true, 1001);\n      setCar(2006, stringToBytes32(\"5 Series\"), 2016, 40000, true, 1001);\n      setCar(2007, stringToBytes32(\"8 Series\"), 2016, 77000, true, 1001);\n      setCar(2008, stringToBytes32(\"8 Series\"), 2016, 65000, true, 1001);\n      setCar(2009, stringToBytes32(\"X3 Series\"), 2016, 55000, true, 1001);\n      setCar(2010, stringToBytes32(\"X3 Series\"), 2016, 50000, true, 1001);\n      setCar(2011, stringToBytes32(\"Rolls-Royce Ghost\"), 2016, 300000, true, 1002);\n      setCar(2012, stringToBytes32(\"Rolls-Royce Ghost\"), 2015, 350000, true, 1002);\n    }\n\n\n    function setCar(uint _carid, bytes32 _model, int _year, int _value, bool _active, uint _mid) public payable{\n        Car storage cars = c[_carid];\n\n        cars.carid = _carid;\n        cars.model = _model;\n        cars.year = _year;\n        cars.value = _value;\n        cars.active = _active;\n        cars.mid = _mid;\n        carAccts.push(_carid) -1;\n    }\n\n    function getCars() view public returns(uint[]) {\n        return carAccts;\n    }\n\n    function getCar(uint _carid) view public returns (uint, bytes32, int, int, bool, uint) {\n        return (c[_carid].carid, c[_carid].model, c[_carid].year, c[_carid].value, c[_carid].active, c[_carid].mid);\n    }\n\n    function countCars() view public returns (uint) {\n        return carAccts.length;\n    }\n\n\n    function getVehicleByModel(string _model) view public returns (uint, bytes32, int, int, bool, uint) {\n        uint carsCount = carAccts.length;\n        uint vehicleid;\n        for (uint i=0; i<carsCount; i++) {\n            uint carId = carAccts[i];\n            Car storage car =  c[carId];\n            if(keccak256(car.model) == keccak256(_model)){\n                vehicleid = carId;\n                break;\n            }\n        }\n        return (c[vehicleid].carid, c[vehicleid].model, c[vehicleid].year, c[vehicleid].value, c[vehicleid].active, c[vehicleid].mid);\n\n    }\n\n    function stringToBytes32(string memory source) returns (bytes32 result) {\n      bytes memory tempEmptyStringTest = bytes(source);\n      if (tempEmptyStringTest.length == 0) {\n          return 0x0;\n      }\n\n      assembly {\n          result := mload(add(source, 32))\n      }\n    }\n\n}\n",
  "sourcePath": "/Users/johnsgeorge/Desktop/CarApplication/CarBackEnd/contracts/Vehicles.sol",
  "compiler": {
    "name": "solc",
    "version": "0.4.24+commit.e67f0147.Emscripten.clang"
  },
  "schemaVersion": "2.0.0",
  "updatedAt": "2018-08-08T17:48:54.060Z"
}