{
  "contractName": "Vehicles",
  "abi": [
    {
      "constant": true,
      "inputs": [
        {
          "name": "",
          "type": "uint256"
        }
      ],
      "name": "carAccts",
      "outputs": [
        {
          "name": "",
          "type": "uint256"
        }
      ],
      "payable": false,
      "stateMutability": "view",
      "type": "function"
    },
    {
      "constant": false,
      "inputs": [
        {
          "name": "_carid",
          "type": "uint256"
        },
        {
          "name": "_model",
          "type": "bytes32"
        },
        {
          "name": "_year",
          "type": "int256"
        },
        {
          "name": "_value",
          "type": "int256"
        },
        {
          "name": "_active",
          "type": "bool"
        },
        {
          "name": "_mid",
          "type": "uint256"
        }
      ],
      "name": "setCar",
      "outputs": [],
      "payable": true,
      "stateMutability": "payable",
      "type": "function"
    },
    {
      "constant": true,
      "inputs": [],
      "name": "getCars",
      "outputs": [
        {
          "name": "",
          "type": "uint256[]"
        }
      ],
      "payable": false,
      "stateMutability": "view",
      "type": "function"
    },
    {
      "constant": true,
      "inputs": [
        {
          "name": "_carid",
          "type": "uint256"
        }
      ],
      "name": "getCar",
      "outputs": [
        {
          "name": "",
          "type": "uint256"
        },
        {
          "name": "",
          "type": "bytes32"
        },
        {
          "name": "",
          "type": "int256"
        },
        {
          "name": "",
          "type": "int256"
        },
        {
          "name": "",
          "type": "bool"
        },
        {
          "name": "",
          "type": "uint256"
        }
      ],
      "payable": false,
      "stateMutability": "view",
      "type": "function"
    },
    {
      "constant": true,
      "inputs": [],
      "name": "countCars",
      "outputs": [
        {
          "name": "",
          "type": "uint256"
        }
      ],
      "payable": false,
      "stateMutability": "view",
      "type": "function"
    },
    {
      "constant": true,
      "inputs": [
        {
          "name": "_model",
          "type": "bytes32"
        }
      ],
      "name": "getVehicleByModel",
      "outputs": [
        {
          "name": "",
          "type": "uint256"
        },
        {
          "name": "",
          "type": "bytes32"
        },
        {
          "name": "",
          "type": "int256"
        },
        {
          "name": "",
          "type": "int256"
        },
        {
          "name": "",
          "type": "bool"
        },
        {
          "name": "",
          "type": "uint256"
        }
      ],
      "payable": false,
      "stateMutability": "view",
      "type": "function"
    }
  ],
  "bytecode": "0x608060405234801561001057600080fd5b506105f2806100206000396000f300608060405260043610610078576000357c0100000000000000000000000000000000000000000000000000000000900463ffffffff16806317c392861461007d57806345bae1eb146100e95780635bd1b8c51461012a5780635e8be19014610155578063736e43ea146101c5578063ae3d0eec14610239575b600080fd5b34801561008957600080fd5b50610092610291565b6040518080602001828103825283818151815260200191508051906020019060200280838360005b838110156100d55780820151818401526020810190506100ba565b505050509050019250505060405180910390f35b3480156100f557600080fd5b50610114600480360381019080803590602001909291905050506102e9565b6040518082815260200191505060405180910390f35b34801561013657600080fd5b5061013f61030c565b6040518082815260200191505060405180910390f35b34801561016157600080fd5b5061018060048036038101908080359060200190929190505050610319565b60405180878152602001866000191660001916815260200185815260200184815260200183151515158152602001828152602001965050505050505060405180910390f35b3480156101d157600080fd5b506101f460048036038101908080356000191690602001909291905050506103c8565b60405180878152602001866000191660001916815260200185815260200184815260200183151515158152602001828152602001965050505050505060405180910390f35b61028f60048036038101908080359060200190929190803560001916906020019092919080359060200190929190803590602001909291908035151590602001909291908035906020019092919050505061052c565b005b606060018054806020026020016040519081016040528092919081815260200182805480156102df57602002820191906000526020600020905b8154815260200190600101908083116102cb575b5050505050905090565b6001818154811015156102f857fe5b906000526020600020016000915090505481565b6000600180549050905090565b60008060008060008060008088815260200190815260200160002060000154600080898152602001908152602001600020600101546000808a8152602001908152602001600020600201546000808b8152602001908152602001600020600301546000808c815260200190815260200160002060040160009054906101000a900460ff166000808d81526020019081526020016000206005015495509550955095509550955091939550919395565b60008060008060008060008060008060006001805490509450600092505b84831015610481576001838154811015156103fd57fe5b9060005260206000200154915060008083815260200190815260200160002090508b6040518082600019166000191681526020019150506040518091039020600019168160010154604051808260001916600019168152602001915050604051809103902060001916141561047457819350610481565b82806001019350506103e6565b6000808581526020019081526020016000206000015460008086815260200190815260200160002060010154600080878152602001908152602001600020600201546000808881526020019081526020016000206003015460008089815260200190815260200160002060040160009054906101000a900460ff166000808a8152602001908152602001600020600501549a509a509a509a509a509a50505050505091939550919395565b6000806000888152602001908152602001600020905086816000018190555085816001018160001916905550848160020181905550838160030181905550828160040160006101000a81548160ff02191690831515021790555081816005018190555060018088908060018154018082558091505090600182039060005260206000200160009091929091909150555050505050505050505600a165627a7a72305820cf99d2bab87a6ce506aee2b4de84e534b7e8d70e3044a8dd1c918b20f3c52d350029",
  "source": "pragma solidity ^0.4.18;\ncontract Vehicles {\n\n    struct Car {\n        uint carid;\n        bytes32 model;\n        int year;\n        int value;\n        bool active;\n        uint mid;\n    }\n    mapping (uint => Car) c;\n    uint[] public carAccts;\n\n    function setCar(uint _carid, bytes32 _model, int _year, int _value, bool _active, uint _mid) public payable{\n        Car storage cars = c[_carid];\n\n        cars.carid = _carid;\n        cars.model = _model;\n        cars.year = _year;\n        cars.value = _value;\n        cars.active = _active;\n        cars.mid = _mid;\n        carAccts.push(_carid) -1;\n    }\n\n    function getCars() view public returns(uint[]) {\n        return carAccts;\n    }\n\n    function getCar(uint _carid) view public returns (uint, bytes32, int, int, bool, uint) {\n        return (c[_carid].carid, c[_carid].model, c[_carid].year, c[_carid].value, c[_carid].active, c[_carid].mid);\n    }\n\n    function countCars() view public returns (uint) {\n        return carAccts.length;\n    }\n\n\n    function getVehicleByModel(bytes32 _model) view public returns (uint, bytes32, int, int, bool, uint) {\n        uint carsCount = carAccts.length;\n        uint vehicleid;\n        for (uint i=0; i<carsCount; i++) {\n            uint carId = carAccts[i];\n            Car storage car =  c[carId];\n            if(keccak256(car.model) == keccak256(_model)){\n                vehicleid = carId;\n                break;\n            }\n        }\n        return (c[vehicleid].carid, c[vehicleid].model, c[vehicleid].year, c[vehicleid].value, c[vehicleid].active, c[vehicleid].mid);\n\n    }\n\n}\n",
  "sourcePath": "/Users/johnsgeorge/Desktop/CarApplication/CarBackEnd/contracts/Vehicles.sol",
  "compiler": {
    "name": "solc",
    "version": "0.4.24+commit.e67f0147.Emscripten.clang"
  },
  "schemaVersion": "2.0.0",
  "updatedAt": "2018-08-06T12:54:57.195Z"
}