{
  "contractName": "VehicleService",
  "abi": [
    {
      "constant": true,
      "inputs": [
        {
          "name": "",
          "type": "uint256"
        }
      ],
      "name": "serviceAccts",
      "outputs": [
        {
          "name": "",
          "type": "uint256"
        }
      ],
      "payable": false,
      "stateMutability": "view",
      "type": "function"
    },
    {
      "constant": false,
      "inputs": [
        {
          "name": "_Sid",
          "type": "uint256"
        },
        {
          "name": "_Sdate",
          "type": "int256"
        },
        {
          "name": "_SCid",
          "type": "uint256"
        },
        {
          "name": "_carid",
          "type": "uint256"
        },
        {
          "name": "_Smileage",
          "type": "int256"
        },
        {
          "name": "_SrepairType",
          "type": "bytes32"
        },
        {
          "name": "_SrepairDetails",
          "type": "bytes32"
        },
        {
          "name": "_Scost",
          "type": "int256"
        }
      ],
      "name": "setServicebyID",
      "outputs": [],
      "payable": true,
      "stateMutability": "payable",
      "type": "function"
    },
    {
      "constant": true,
      "inputs": [],
      "name": "getServices",
      "outputs": [
        {
          "name": "",
          "type": "uint256[]"
        }
      ],
      "payable": false,
      "stateMutability": "view",
      "type": "function"
    },
    {
      "constant": true,
      "inputs": [
        {
          "name": "_Sid",
          "type": "uint256"
        }
      ],
      "name": "getService",
      "outputs": [
        {
          "name": "",
          "type": "uint256"
        },
        {
          "name": "",
          "type": "int256"
        },
        {
          "name": "",
          "type": "int256"
        },
        {
          "name": "",
          "type": "bytes32"
        },
        {
          "name": "",
          "type": "bytes32"
        },
        {
          "name": "",
          "type": "int256"
        }
      ],
      "payable": false,
      "stateMutability": "view",
      "type": "function"
    },
    {
      "constant": true,
      "inputs": [
        {
          "name": "_Sid",
          "type": "uint256"
        }
      ],
      "name": "getServiceRelations",
      "outputs": [
        {
          "name": "",
          "type": "uint256"
        },
        {
          "name": "",
          "type": "uint256"
        },
        {
          "name": "",
          "type": "uint256"
        }
      ],
      "payable": false,
      "stateMutability": "view",
      "type": "function"
    },
    {
      "constant": true,
      "inputs": [],
      "name": "countServices",
      "outputs": [
        {
          "name": "",
          "type": "uint256"
        }
      ],
      "payable": false,
      "stateMutability": "view",
      "type": "function"
    }
  ],
  "bytecode": "0x608060405234801561001057600080fd5b506104cf806100206000396000f300608060405260043610610078576000357c0100000000000000000000000000000000000000000000000000000000900463ffffffff1680632c9dc2f91461007d57806375417851146100cc578063ba9b99d914610138578063cd6e43d3146101a6578063e54d19d2146101e7578063ef0e239b14610212575b600080fd5b34801561008957600080fd5b506100a860048036038101908080359060200190929190505050610286565b60405180848152602001838152602001828152602001935050505060405180910390f35b3480156100d857600080fd5b506100e16102da565b6040518080602001828103825283818151815260200191508051906020019060200280838360005b83811015610124578082015181840152602081019050610109565b505050509050019250505060405180910390f35b6101a460048036038101908080359060200190929190803590602001909291908035906020019092919080359060200190929190803590602001909291908035600019169060200190929190803560001916906020019092919080359060200190929190505050610332565b005b3480156101b257600080fd5b506101d1600480360381019080803590602001909291905050506103d1565b6040518082815260200191505060405180910390f35b3480156101f357600080fd5b506101fc6103f4565b6040518082815260200191505060405180910390f35b34801561021e57600080fd5b5061023d60048036038101908080359060200190929190505050610401565b6040518087815260200186815260200185815260200184600019166000191681526020018360001916600019168152602001828152602001965050505050505060405180910390f35b60008060008060008581526020019081526020016000206000015460008086815260200190815260200160002060020154600080878152602001908152602001600020600301549250925092509193909250565b6060600180548060200260200160405190810160405280929190818152602001828054801561032857602002820191906000526020600020905b815481526020019060010190808311610314575b5050505050905090565b60008060008a8152602001908152602001600020905088816000018190555087816001018190555086816002018190555085816003018190555084816004018190555083816005018160001916905550828160060181600019169055508181600701819055506001808a908060018154018082558091505090600182039060005260206000200160009091929091909150555050505050505050505050565b6001818154811015156103e057fe5b906000526020600020016000915090505481565b6000600180549050905090565b60008060008060008060008088815260200190815260200160002060000154600080898152602001908152602001600020600101546000808a8152602001908152602001600020600401546000808b8152602001908152602001600020600501546000808c8152602001908152602001600020600601546000808d815260200190815260200160002060070154955095509550955095509550919395509193955600a165627a7a723058209a1da2552ae3d5691bbf7919d0bbe0b9f95816c22f265611f03b4f91658d3d330029",
  "source": "pragma solidity ^0.4.18;\ncontract VehicleService {\n\n    struct Service {\n        uint Sid;\n        int Sdate;\n        uint SCid;\n        uint carid;\n        int Smileage;\n        bytes32 SrepairType;\n        bytes32 SrepairDetails;\n        int Scost;\n    }\n    mapping (uint => Service) services;\n    uint[] public serviceAccts;\n\n    function setServicebyID(uint _Sid, int _Sdate, uint _SCid, uint _carid, int _Smileage, bytes32 _SrepairType, bytes32 _SrepairDetails, int _Scost) public payable{\n        Service storage service = services[_Sid];\n\n        service.Sid = _Sid;\n        service.Sdate = _Sdate;\n        service.SCid = _SCid;\n        service.carid = _carid;\n        service.Smileage = _Smileage;\n        service.SrepairType = _SrepairType;\n        service.SrepairDetails = _SrepairDetails;\n        service.Scost = _Scost;\n\n        serviceAccts.push(_Sid) -1;\n    }\n\n    function getServices() view public returns(uint[]) {\n        return serviceAccts;\n    }\n\n    function getService(uint _Sid) view public returns (uint, int, int, bytes32, bytes32, int) {\n        return (services[_Sid].Sid, services[_Sid].Sdate, services[_Sid].Smileage, services[_Sid].SrepairType, services[_Sid].SrepairDetails, services[_Sid].Scost);\n    }\n\n    function getServiceRelations(uint _Sid) view public returns (uint, uint, uint) {\n        return (services[_Sid].Sid, services[_Sid].SCid, services[_Sid].carid);\n    }\n\n    function countServices() view public returns (uint) {\n        return serviceAccts.length;\n    }\n\n\n}\n",
  "sourcePath": "/Users/johnsgeorge/Desktop/CarApplication/CarBackEnd/contracts/VehicleServices.sol",
  "compiler": {
    "name": "solc",
    "version": "0.4.24+commit.e67f0147.Emscripten.clang"
  },
  "schemaVersion": "2.0.0",
  "updatedAt": "2018-08-08T17:48:52.402Z"
}