{
  "contractName": "Vehicles",
  "abi": [
    {
      "constant": true,
      "inputs": [
        {
          "name": "",
          "type": "uint256"
        }
      ],
      "name": "carAccts",
      "outputs": [
        {
          "name": "",
          "type": "uint256"
        }
      ],
      "payable": false,
      "stateMutability": "view",
      "type": "function"
    },
    {
      "constant": false,
      "inputs": [
        {
          "name": "_carid",
          "type": "uint256"
        },
        {
          "name": "_model",
          "type": "string"
        },
        {
          "name": "_year",
          "type": "int256"
        },
        {
          "name": "_value",
          "type": "int256"
        },
        {
          "name": "_active",
          "type": "bool"
        },
        {
          "name": "_mid",
          "type": "uint256"
        }
      ],
      "name": "setCar",
      "outputs": [],
      "payable": true,
      "stateMutability": "payable",
      "type": "function"
    },
    {
      "constant": true,
      "inputs": [],
      "name": "getCars",
      "outputs": [
        {
          "name": "",
          "type": "uint256[]"
        }
      ],
      "payable": false,
      "stateMutability": "view",
      "type": "function"
    },
    {
      "constant": true,
      "inputs": [
        {
          "name": "_carid",
          "type": "uint256"
        }
      ],
      "name": "getCar",
      "outputs": [
        {
          "name": "",
          "type": "uint256"
        },
        {
          "name": "",
          "type": "string"
        },
        {
          "name": "",
          "type": "int256"
        },
        {
          "name": "",
          "type": "int256"
        },
        {
          "name": "",
          "type": "bool"
        },
        {
          "name": "",
          "type": "uint256"
        }
      ],
      "payable": false,
      "stateMutability": "view",
      "type": "function"
    },
    {
      "constant": true,
      "inputs": [],
      "name": "countCars",
      "outputs": [
        {
          "name": "",
          "type": "uint256"
        }
      ],
      "payable": false,
      "stateMutability": "view",
      "type": "function"
    },
    {
      "constant": true,
      "inputs": [
        {
          "name": "_model",
          "type": "string"
        }
      ],
      "name": "getVehicleByModel",
      "outputs": [
        {
          "name": "",
          "type": "uint256"
        },
        {
          "name": "",
          "type": "string"
        },
        {
          "name": "",
          "type": "int256"
        },
        {
          "name": "",
          "type": "int256"
        },
        {
          "name": "",
          "type": "bool"
        },
        {
          "name": "",
          "type": "uint256"
        }
      ],
      "payable": false,
      "stateMutability": "view",
      "type": "function"
    }
  ],
  "bytecode": "0x608060405234801561001057600080fd5b50610993806100206000396000f300608060405260043610610077576000357c0100000000000000000000000000000000000000000000000000000000900463ffffffff168062f257471461007c57806317c392861461018557806345bae1eb146101f15780635bd1b8c5146102325780635e8be1901461025d578063abd5b4c41461032a575b600080fd5b34801561008857600080fd5b506100e3600480360381019080803590602001908201803590602001908080601f01602080910402602001604051908101604052809392919081815260200183838082843782019150505050505091929192905050506103ba565b604051808781526020018060200186815260200185815260200184151515158152602001838152602001828103825287818151815260200191508051906020019080838360005b8381101561014557808201518184015260208101905061012a565b50505050905090810190601f1680156101725780820380516001836020036101000a031916815260200191505b5097505050505050505060405180910390f35b34801561019157600080fd5b5061019a610649565b6040518080602001828103825283818151815260200191508051906020019060200280838360005b838110156101dd5780820151818401526020810190506101c2565b505050509050019250505060405180910390f35b3480156101fd57600080fd5b5061021c600480360381019080803590602001909291905050506106a1565b6040518082815260200191505060405180910390f35b34801561023e57600080fd5b506102476106c4565b6040518082815260200191505060405180910390f35b34801561026957600080fd5b50610288600480360381019080803590602001909291905050506106d1565b604051808781526020018060200186815260200185815260200184151515158152602001838152602001828103825287818151815260200191508051906020019080838360005b838110156102ea5780820151818401526020810190506102cf565b50505050905090810190601f1680156103175780820380516001836020036101000a031916815260200191505b5097505050505050505060405180910390f35b6103b860048036038101908080359060200190929190803590602001908201803590602001908080601f016020809104026020016040519081016040528093929190818152602001838380828437820191505050505050919291929080359060200190929190803590602001909291908035151590602001909291908035906020019092919050505061081c565b005b6000606060008060008060008060008060006001805490509450600092505b84831015610503576001838154811015156103f057fe5b9060005260206000200154915060008083815260200190815260200160002090508b6040518082805190602001908083835b6020831015156104475780518252602082019150602081019050602083039250610422565b6001836020036101000a0380198251168184511680821785525050505050509050019150506040518091039020600019168160010160405180828054600181600116156101000203166002900480156104d75780601f106104b55761010080835404028352918201916104d7565b820191906000526020600020905b8154815290600101906020018083116104c3575b505091505060405180910390206000191614156104f657819350610503565b82806001019350506103d9565b60008085815260200190815260200160002060000154600080868152602001908152602001600020600101600080878152602001908152602001600020600201546000808881526020019081526020016000206003015460008089815260200190815260200160002060040160009054906101000a900460ff166000808a815260200190815260200160002060050154848054600181600116156101000203166002900480601f0160208091040260200160405190810160405280929190818152602001828054600181600116156101000203166002900480156106285780601f106105fd57610100808354040283529160200191610628565b820191906000526020600020905b81548152906001019060200180831161060b57829003601f168201915b505050505094509a509a509a509a509a509a50505050505091939550919395565b6060600180548060200260200160405190810160405280929190818152602001828054801561069757602002820191906000526020600020905b815481526020019060010190808311610683575b5050505050905090565b6001818154811015156106b057fe5b906000526020600020016000915090505481565b6000600180549050905090565b60006060600080600080600080888152602001908152602001600020600001546000808981526020019081526020016000206001016000808a8152602001908152602001600020600201546000808b8152602001908152602001600020600301546000808c815260200190815260200160002060040160009054906101000a900460ff166000808d815260200190815260200160002060050154848054600181600116156101000203166002900480601f0160208091040260200160405190810160405280929190818152602001828054600181600116156101000203166002900480156108005780601f106107d557610100808354040283529160200191610800565b820191906000526020600020905b8154815290600101906020018083116107e357829003601f168201915b5050505050945095509550955095509550955091939550919395565b60008060008881526020019081526020016000209050868160000181905550858160010190805190602001906108539291906108c2565b50848160020181905550838160030181905550828160040160006101000a81548160ff0219169083151502179055508181600501819055506001808890806001815401808255809150509060018203906000526020600020016000909192909190915055505050505050505050565b828054600181600116156101000203166002900490600052602060002090601f016020900481019282601f1061090357805160ff1916838001178555610931565b82800160010185558215610931579182015b82811115610930578251825591602001919060010190610915565b5b50905061093e9190610942565b5090565b61096491905b80821115610960576000816000905550600101610948565b5090565b905600a165627a7a723058203e28be58f6cfd52fece6f82f9158ae2c8c16e92bf82c616d7a0a11f4f4b9baad0029",
  "source": "pragma solidity ^0.4.18;\ncontract Vehicles {\n\n    struct Car {\n        uint carid;\n        string model;\n        int year;\n        int value;\n        bool active;\n        uint mid;\n    }\n    mapping (uint => Car) c;\n    uint[] public carAccts;\n\n    function setCar(uint _carid, string _model, int _year, int _value, bool _active, uint _mid) public payable{\n        Car storage cars = c[_carid];\n\n        cars.carid = _carid;\n        cars.model = _model;\n        cars.year = _year;\n        cars.value = _value;\n        cars.active = _active;\n        cars.mid = _mid;\n        carAccts.push(_carid) -1;\n    }\n\n    function getCars() view public returns(uint[]) {\n        return carAccts;\n    }\n\n    function getCar(uint _carid) view public returns (uint, string, int, int, bool, uint) {\n        return (c[_carid].carid, c[_carid].model, c[_carid].year, c[_carid].value, c[_carid].active, c[_carid].mid);\n    }\n\n    function countCars() view public returns (uint) {\n        return carAccts.length;\n    }\n\n\n    function getVehicleByModel(string _model) view public returns (uint, string, int, int, bool, uint) {\n        uint carsCount = carAccts.length;\n        uint vehicleid;\n        for (uint i=0; i<carsCount; i++) {\n            uint carId = carAccts[i];\n            Car storage car =  c[carId];\n            if(keccak256(car.model) == keccak256(_model)){\n                vehicleid = carId;\n                break;\n            }\n        }\n        return (c[vehicleid].carid, c[vehicleid].model, c[vehicleid].year, c[vehicleid].value, c[vehicleid].active, c[vehicleid].mid);\n\n    }\n\n}\n",
  "sourcePath": "/Users/johnsgeorge/Desktop/CarApplication/CarBackEnd/contracts/Vehicles.sol",
  "compiler": {
    "name": "solc",
    "version": "0.4.24+commit.e67f0147.Emscripten.clang"
  },
  "schemaVersion": "2.0.0",
  "updatedAt": "2018-07-25T18:15:52.995Z"
}