{
  "contractName": "VehicleServices",
  "abi": [
    {
      "constant": true,
      "inputs": [],
      "name": "count",
      "outputs": [
        {
          "name": "",
          "type": "uint256"
        }
      ],
      "payable": false,
      "stateMutability": "view",
      "type": "function"
    },
    {
      "constant": true,
      "inputs": [
        {
          "name": "",
          "type": "uint256"
        }
      ],
      "name": "serviceAccts",
      "outputs": [
        {
          "name": "",
          "type": "uint256"
        }
      ],
      "payable": false,
      "stateMutability": "view",
      "type": "function"
    },
    {
      "inputs": [
        {
          "name": "args",
          "type": "bytes32[]"
        }
      ],
      "payable": false,
      "stateMutability": "nonpayable",
      "type": "constructor"
    },
    {
      "constant": false,
      "inputs": [
        {
          "name": "_Sid",
          "type": "uint256"
        },
        {
          "name": "_Sdate",
          "type": "int256"
        },
        {
          "name": "_SCid",
          "type": "uint256"
        },
        {
          "name": "_carid",
          "type": "uint256"
        },
        {
          "name": "_Smileage",
          "type": "int256"
        },
        {
          "name": "_SrepairType",
          "type": "bytes32"
        },
        {
          "name": "_SrepairDetails",
          "type": "bytes32"
        },
        {
          "name": "_Scost",
          "type": "int256"
        }
      ],
      "name": "setServicebyID",
      "outputs": [],
      "payable": true,
      "stateMutability": "payable",
      "type": "function"
    },
    {
      "constant": true,
      "inputs": [],
      "name": "getServices",
      "outputs": [
        {
          "name": "",
          "type": "uint256[]"
        }
      ],
      "payable": false,
      "stateMutability": "view",
      "type": "function"
    },
    {
      "constant": true,
      "inputs": [
        {
          "name": "_Sid",
          "type": "uint256"
        }
      ],
      "name": "getService",
      "outputs": [
        {
          "name": "",
          "type": "uint256"
        },
        {
          "name": "",
          "type": "int256"
        },
        {
          "name": "",
          "type": "int256"
        },
        {
          "name": "",
          "type": "bytes32"
        },
        {
          "name": "",
          "type": "bytes32"
        },
        {
          "name": "",
          "type": "int256"
        }
      ],
      "payable": false,
      "stateMutability": "view",
      "type": "function"
    },
    {
      "constant": true,
      "inputs": [
        {
          "name": "_Sid",
          "type": "uint256"
        }
      ],
      "name": "getServiceRelations",
      "outputs": [
        {
          "name": "",
          "type": "uint256"
        },
        {
          "name": "",
          "type": "uint256"
        },
        {
          "name": "",
          "type": "uint256"
        }
      ],
      "payable": false,
      "stateMutability": "view",
      "type": "function"
    },
    {
      "constant": true,
      "inputs": [],
      "name": "countServices",
      "outputs": [
        {
          "name": "",
          "type": "uint256"
        }
      ],
      "payable": false,
      "stateMutability": "view",
      "type": "function"
    },
    {
      "constant": true,
      "inputs": [
        {
          "name": "_carid",
          "type": "uint256"
        }
      ],
      "name": "getServiceForCar",
      "outputs": [
        {
          "name": "",
          "type": "uint256[]"
        }
      ],
      "payable": false,
      "stateMutability": "view",
      "type": "function"
    },
    {
      "constant": false,
      "inputs": [
        {
          "name": "source",
          "type": "string"
        }
      ],
      "name": "stringToBytes32",
      "outputs": [
        {
          "name": "result",
          "type": "bytes32"
        }
      ],
      "payable": false,
      "stateMutability": "nonpayable",
      "type": "function"
    }
  ],
  "bytecode": "0x6080604052611f406002553480156200001757600080fd5b5060405162000e1238038062000e128339810180604052810190808051820192919050505062000104611f41616eb9611b596107d6619e346200009e6040805190810160405280600a81526020017f4f696c204368616e676500000000000000000000000000000000000000000000815250620005bc640100000000026401000000009004565b620000ed6040805190810160405280602081526020017f4f6e6c79204368616e676564206f696c202620636865636b6564205479726573815250620005bc640100000000026401000000009004565b604b620005e9640100000000026401000000009004565b620001cc611f42614fa5611b596107d661afc8620001666040805190810160405280600c81526020017f46756c6c20536572766963650000000000000000000000000000000000000000815250620005bc640100000000026401000000009004565b620001b56040805190810160405280601581526020017f416c6c2046756c6c205365727669636520446f6e650000000000000000000000815250620005bc640100000000026401000000009004565b6096620005e9640100000000026401000000009004565b62000294611f43615a3a611b596107d661d6d86200022e6040805190810160405280600981526020017f4143205265706169720000000000000000000000000000000000000000000000815250620005bc640100000000026401000000009004565b6200027d6040805190810160405280600d81526020017f41432047617320526566696c6c00000000000000000000000000000000000000815250620005bc640100000000026401000000009004565b6078620005e9640100000000026401000000009004565b6200035c611f45613286611b596107d661fde8620002f66040805190810160405280600c81526020017f48616c6620536572766963650000000000000000000000000000000000000000815250620005bc640100000000026401000000009004565b620003456040805190810160405280601581526020017f416c6c2048616c66205365727669636520446f6e650000000000000000000000815250620005bc640100000000026401000000009004565b6064620005e9640100000000026401000000009004565b62000425611f46613290611b5a6107d6620124f8620003bf6040805190810160405280600c81526020017f46756c6c20536572766963650000000000000000000000000000000000000000815250620005bc640100000000026401000000009004565b6200040e6040805190810160405280601581526020017f416c6c2046756c6c205365727669636520446f6e650000000000000000000000815250620005bc640100000000026401000000009004565b6082620005e9640100000000026401000000009004565b620004ed611f47614bf2611b5b6107d161d6d8620004876040805190810160405280600c81526020017f46756c6c20536572766963650000000000000000000000000000000000000000815250620005bc640100000000026401000000009004565b620004d66040805190810160405280601181526020017f46756c6c205365727669636520446f6e65000000000000000000000000000000815250620005bc640100000000026401000000009004565b6082620005e9640100000000026401000000009004565b620005b5611f48614d7b611b5c6107d261fde86200054f6040805190810160405280600c81526020017f48616c6620536572766963650000000000000000000000000000000000000000815250620005bc640100000000026401000000009004565b6200059e6040805190810160405280601181526020017f48616c66205365727669636520446f6e65000000000000000000000000000000815250620005bc640100000000026401000000009004565b604b620005e9640100000000026401000000009004565b50620006a0565b60006060829050600081511415620005db5760006001029150620005e3565b602083015191505b50919050565b60008060006002548152602001908152602001600020905060025481600001819055508781600101819055508681600201819055508581600301819055508481600401819055508381600501816000191690555082816006018160001916905550818160070181905550600180600254908060018154018082558091505090600182039060005260206000200160009091929091909150555050600260008154809291906001019190505550505050505050505050565b61076280620006b06000396000f300608060405260043610610099576000357c0100000000000000000000000000000000000000000000000000000000900463ffffffff16806306661abd1461009e57806317786c6b146100c95780632c9dc2f91461014b578063754178511461019a578063ba9b99d914610206578063cd6e43d314610274578063cfb51928146102b5578063e54d19d21461033a578063ef0e239b14610365575b600080fd5b3480156100aa57600080fd5b506100b36103d9565b6040518082815260200191505060405180910390f35b3480156100d557600080fd5b506100f4600480360381019080803590602001909291905050506103df565b6040518080602001828103825283818151815260200191508051906020019060200280838360005b8381101561013757808201518184015260208101905061011c565b505050509050019250505060405180910390f35b34801561015757600080fd5b50610176600480360381019080803590602001909291905050506104d6565b60405180848152602001838152602001828152602001935050505060405180910390f35b3480156101a657600080fd5b506101af61052a565b6040518080602001828103825283818151815260200191508051906020019060200280838360005b838110156101f25780820151818401526020810190506101d7565b505050509050019250505060405180910390f35b61027260048036038101908080359060200190929190803590602001909291908035906020019092919080359060200190929190803590602001909291908035600019169060200190929190803560001916906020019092919080359060200190929190505050610582565b005b34801561028057600080fd5b5061029f60048036038101908080359060200190929190505050610639565b6040518082815260200191505060405180910390f35b3480156102c157600080fd5b5061031c600480360381019080803590602001908201803590602001908080601f016020809104026020016040519081016040528093929190818152602001838380828437820191505050505050919291929050505061065c565b60405180826000191660001916815260200191505060405180910390f35b34801561034657600080fd5b5061034f610687565b6040518082815260200191505060405180910390f35b34801561037157600080fd5b5061039060048036038101908080359060200190929190505050610694565b6040518087815260200186815260200185815260200184600019166000191681526020018360001916600019168152602001828152602001965050505050505060405180910390f35b60025481565b606060008060008060006001805490509350600092505b8383101561047a5760018381548110151561040d57fe5b906000526020600020015491506000808381526020019081526020016000209050868160030154141561046d5760018582600001549080600181540180825580915050906001820390600052602060002001600090919290919091505550505b82806001019350506103f6565b848054806020026020016040519081016040528092919081815260200182805480156104c557602002820191906000526020600020905b8154815260200190600101908083116104b1575b505050505095505050505050919050565b60008060008060008581526020019081526020016000206000015460008086815260200190815260200160002060020154600080878152602001908152602001600020600301549250925092509193909250565b6060600180548060200260200160405190810160405280929190818152602001828054801561057857602002820191906000526020600020905b815481526020019060010190808311610564575b5050505050905090565b60008060006002548152602001908152602001600020905060025481600001819055508781600101819055508681600201819055508581600301819055508481600401819055508381600501816000191690555082816006018160001916905550818160070181905550600180600254908060018154018082558091505090600182039060005260206000200160009091929091909150555050600260008154809291906001019190505550505050505050505050565b60018181548110151561064857fe5b906000526020600020016000915090505481565b600060608290506000815114156106795760006001029150610681565b602083015191505b50919050565b6000600180549050905090565b60008060008060008060008088815260200190815260200160002060000154600080898152602001908152602001600020600101546000808a8152602001908152602001600020600401546000808b8152602001908152602001600020600501546000808c8152602001908152602001600020600601546000808d815260200190815260200160002060070154955095509550955095509550919395509193955600a165627a7a723058203e6ce25c384551d62fb38b8104bfb933d89b26b1ca98bb107a9c89d3d7fabf1e0029",
  "source": "pragma solidity ^0.4.18;\ncontract VehicleServices {\n\n    struct Service {\n        uint Sid;\n        int Sdate;\n        uint SCid;\n        uint carid;\n        int Smileage;\n        bytes32 SrepairType;\n        bytes32 SrepairDetails;\n        int Scost;\n    }\n    mapping (uint => Service) services;\n    uint[] public serviceAccts;\n    uint public count = 8000;\n\n    constructor(bytes32[] args) public {\n      setServicebyID(8001, 28345, 7001, 2006, 40500, stringToBytes32(\"Oil Change\"),  stringToBytes32(\"Only Changed oil & checked Tyres\"), 75);\n      setServicebyID(8002, 20389, 7001, 2006, 45000, stringToBytes32(\"Full Service\"),  stringToBytes32(\"All Full Service Done\"), 150);\n      setServicebyID(8003, 23098, 7001, 2006, 55000, stringToBytes32(\"AC Repair\"),  stringToBytes32(\"AC Gas Refill\"), 120);\n      setServicebyID(8005, 12934, 7001, 2006, 65000, stringToBytes32(\"Half Service\"),  stringToBytes32(\"All Half Service Done\"), 100);\n      setServicebyID(8006, 12944, 7002, 2006, 75000, stringToBytes32(\"Full Service\"),  stringToBytes32(\"All Full Service Done\"), 130);\n      setServicebyID(8007, 19442, 7003, 2001, 55000, stringToBytes32(\"Full Service\"),  stringToBytes32(\"Full Service Done\"), 130);\n      setServicebyID(8008, 19835, 7004, 2002, 65000, stringToBytes32(\"Half Service\"),  stringToBytes32(\"Half Service Done\"), 75);\n    }\n\n    function setServicebyID(uint _Sid, int _Sdate, uint _SCid, uint _carid, int _Smileage, bytes32 _SrepairType, bytes32 _SrepairDetails, int _Scost) public payable{\n        Service storage service = services[count];\n\n        service.Sid = count;\n        service.Sdate = _Sdate;\n        service.SCid = _SCid;\n        service.carid = _carid;\n        service.Smileage = _Smileage;\n        service.SrepairType = _SrepairType;\n        service.SrepairDetails = _SrepairDetails;\n        service.Scost = _Scost;\n\n        serviceAccts.push(count) -1;\n        count++;\n    }\n\n    function getServices() view public returns(uint[]) {\n        return serviceAccts;\n    }\n\n    function getService(uint _Sid) view public returns (uint, int, int, bytes32, bytes32, int) {\n        return (services[_Sid].Sid, services[_Sid].Sdate, services[_Sid].Smileage, services[_Sid].SrepairType, services[_Sid].SrepairDetails, services[_Sid].Scost);\n    }\n\n    function getServiceRelations(uint _Sid) view public returns (uint, uint, uint) {\n        return (services[_Sid].Sid, services[_Sid].SCid, services[_Sid].carid);\n    }\n\n    function countServices() view public returns (uint) {\n        return serviceAccts.length;\n    }\n\n    function getServiceForCar(uint _carid) view public returns (uint[]) {\n        uint[] serviceIDs;\n\n        uint transCount = serviceAccts.length;\n        for (uint i=0; i<transCount; i++) {\n            uint servId = serviceAccts[i];\n            Service storage service = services[servId];\n            if(service.carid == _carid){\n                serviceIDs.push(service.Sid) -1;\n            }\n        }\n        return (serviceIDs);\n    }\n\n\n    function stringToBytes32(string memory source) returns (bytes32 result) {\n      bytes memory tempEmptyStringTest = bytes(source);\n      if (tempEmptyStringTest.length == 0) {\n          return 0x0;\n      }\n\n      assembly {\n          result := mload(add(source, 32))\n      }\n    }\n\n}\n",
  "sourcePath": "/Users/johnsgeorge/Desktop/CarApplication/CarBackEnd/contracts/VehicleServices.sol",
  "compiler": {
    "name": "solc",
    "version": "0.4.24+commit.e67f0147.Emscripten.clang"
  },
  "schemaVersion": "2.0.0",
  "updatedAt": "2018-08-17T21:59:42.853Z"
}