{
  "contractName": "Dealers",
  "abi": [
    {
      "constant": true,
      "inputs": [
        {
          "name": "",
          "type": "uint256"
        }
      ],
      "name": "dealerAccts",
      "outputs": [
        {
          "name": "",
          "type": "uint256"
        }
      ],
      "payable": false,
      "stateMutability": "view",
      "type": "function"
    },
    {
      "constant": false,
      "inputs": [
        {
          "name": "_did",
          "type": "uint256"
        },
        {
          "name": "_dname",
          "type": "bytes32"
        },
        {
          "name": "_dphone",
          "type": "int256"
        },
        {
          "name": "_dstreet",
          "type": "bytes32"
        },
        {
          "name": "_dtown",
          "type": "bytes32"
        },
        {
          "name": "_dcounty",
          "type": "bytes32"
        }
      ],
      "name": "setDealer",
      "outputs": [],
      "payable": true,
      "stateMutability": "payable",
      "type": "function"
    },
    {
      "constant": true,
      "inputs": [],
      "name": "getDealers",
      "outputs": [
        {
          "name": "",
          "type": "uint256[]"
        }
      ],
      "payable": false,
      "stateMutability": "view",
      "type": "function"
    },
    {
      "constant": true,
      "inputs": [
        {
          "name": "_did",
          "type": "uint256"
        }
      ],
      "name": "getDealer",
      "outputs": [
        {
          "name": "",
          "type": "uint256"
        },
        {
          "name": "",
          "type": "bytes32"
        },
        {
          "name": "",
          "type": "int256"
        },
        {
          "name": "",
          "type": "bytes32"
        },
        {
          "name": "",
          "type": "bytes32"
        },
        {
          "name": "",
          "type": "bytes32"
        }
      ],
      "payable": false,
      "stateMutability": "view",
      "type": "function"
    },
    {
      "constant": true,
      "inputs": [],
      "name": "countDealers",
      "outputs": [
        {
          "name": "",
          "type": "uint256"
        }
      ],
      "payable": false,
      "stateMutability": "view",
      "type": "function"
    },
    {
      "constant": true,
      "inputs": [
        {
          "name": "_dname",
          "type": "string"
        }
      ],
      "name": "getDealerByModel",
      "outputs": [
        {
          "name": "",
          "type": "uint256"
        },
        {
          "name": "",
          "type": "bytes32"
        },
        {
          "name": "",
          "type": "int256"
        },
        {
          "name": "",
          "type": "bytes32"
        },
        {
          "name": "",
          "type": "bytes32"
        },
        {
          "name": "",
          "type": "bytes32"
        }
      ],
      "payable": false,
      "stateMutability": "view",
      "type": "function"
    }
  ],
  "bytecode": "0x608060405234801561001057600080fd5b5061067f806100206000396000f300608060405260043610610077576000357c0100000000000000000000000000000000000000000000000000000000900463ffffffff1680620936831461007c5780634a2c29381461010057806385e0bb1e146101415780638a08e6cd1461016c578063d19d6b08146101d8578063dfae9a621461023a575b600080fd5b34801561008857600080fd5b506100a7600480360381019080803590602001909291905050506102fa565b604051808781526020018660001916600019168152602001858152602001846000191660001916815260200183600019166000191681526020018260001916600019168152602001965050505050505060405180910390f35b34801561010c57600080fd5b5061012b6004803603810190808035906020019092919050505061039c565b6040518082815260200191505060405180910390f35b34801561014d57600080fd5b506101566103bf565b6040518082815260200191505060405180910390f35b34801561017857600080fd5b506101816103cc565b6040518080602001828103825283818151815260200191508051906020019060200280838360005b838110156101c45780820151818401526020810190506101a9565b505050509050019250505060405180910390f35b61023860048036038101908080359060200190929190803560001916906020019092919080359060200190929190803560001916906020019092919080356000191690602001909291908035600019169060200190929190505050610424565b005b34801561024657600080fd5b506102a1600480360381019080803590602001908201803590602001908080601f01602080910402602001604051908101604052809392919081815260200183838082843782019150505050505091929192905050506104b7565b604051808781526020018660001916600019168152602001858152602001846000191660001916815260200183600019166000191681526020018260001916600019168152602001965050505050505060405180910390f35b60008060008060008060008088815260200190815260200160002060000154600080898152602001908152602001600020600101546000808a8152602001908152602001600020600201546000808b8152602001908152602001600020600301546000808c8152602001908152602001600020600401546000808d81526020019081526020016000206005015495509550955095509550955091939550919395565b6001818154811015156103ab57fe5b906000526020600020016000915090505481565b6000600180549050905090565b6060600180548060200260200160405190810160405280929190818152602001828054801561041a57602002820191906000526020600020905b815481526020019060010190808311610406575b5050505050905090565b60008060008881526020019081526020016000209050868160000181905550858160010181600019169055508481600201819055508381600301816000191690555082816004018160001916905550818160050181600019169055506001808890806001815401808255809150509060018203906000526020600020016000909192909190915055505050505050505050565b60008060008060008060008060008060006001805490509450600092505b848310156105b5576001838154811015156104ec57fe5b9060005260206000200154915060008083815260200190815260200160002090508b6040518082805190602001908083835b602083101515610543578051825260208201915060208101905060208303925061051e565b6001836020036101000a038019825116818451168082178552505050505050905001915050604051809103902060001916816001015460405180826000191660001916815260200191505060405180910390206000191614156105a8578193506105b5565b82806001019350506104d5565b60008085815260200190815260200160002060000154600080868152602001908152602001600020600101546000808781526020019081526020016000206002015460008088815260200190815260200160002060030154600080898152602001908152602001600020600401546000808a8152602001908152602001600020600501549a509a509a509a509a509a505050505050919395509193955600a165627a7a72305820cb027c648bdb639a83d7a91aae343407fad37a9d421476e2f61ddae10c5b895d0029",
  "source": "pragma solidity ^0.4.18;\ncontract Dealers {\n\n    struct Dealer {\n        uint did;\n        bytes32 dname;\n        int dphone;\n        bytes32 dstreet;\n        bytes32 dtown;\n        bytes32 dcounty;\n    }\n    mapping (uint => Dealer) d;\n    uint[] public dealerAccts;\n\n    function setDealer(uint _did, bytes32 _dname, int _dphone, bytes32 _dstreet, bytes32 _dtown, bytes32 _dcounty) public payable{\n        Dealer storage deal = d[_did];\n\n        deal.did = _did;\n        deal.dname = _dname;\n        deal.dphone = _dphone;\n        deal.dstreet = _dstreet;\n        deal.dtown = _dtown;\n        deal.dcounty = _dcounty;\n\n        dealerAccts.push(_did) -1;\n    }\n\n    function getDealers() view public returns(uint[]) {\n        return dealerAccts;\n    }\n\n    function getDealer(uint _did) view public returns (uint, bytes32, int, bytes32, bytes32, bytes32) {\n        return (d[_did].did, d[_did].dname, d[_did].dphone, d[_did].dstreet, d[_did].dtown, d[_did].dcounty);\n    }\n\n    function countDealers() view public returns (uint) {\n        return dealerAccts.length;\n    }\n\n    function getDealerByModel(string _dname) view public returns (uint, bytes32, int, bytes32, bytes32, bytes32) {\n        uint dealersCount = dealerAccts.length;\n        uint dealerid;\n        for (uint i=0; i<dealersCount; i++) {\n            uint did = dealerAccts[i];\n            Dealer storage deal =  d[did];\n            if(keccak256(deal.dname) == keccak256(_dname)){\n                dealerid = did;\n                break;\n            }\n        }\n        return (d[dealerid].did, d[dealerid].dname, d[dealerid].dphone, d[dealerid].dstreet, d[dealerid].dtown, d[dealerid].dcounty);\n\n    }\n\n\n}\n",
  "sourcePath": "/Users/johnsgeorge/Desktop/CarApplication/CarBackEnd/contracts/Dealers.sol",
  "compiler": {
    "name": "solc",
    "version": "0.4.24+commit.e67f0147.Emscripten.clang"
  },
  "schemaVersion": "2.0.0",
  "updatedAt": "2018-07-30T18:34:02.507Z"
}