{
  "contractName": "Manufacturer",
  "abi": [
    {
      "constant": true,
      "inputs": [
        {
          "name": "",
          "type": "uint256"
        }
      ],
      "name": "BrandAccts",
      "outputs": [
        {
          "name": "",
          "type": "uint256"
        }
      ],
      "payable": false,
      "stateMutability": "view",
      "type": "function"
    },
    {
      "constant": false,
      "inputs": [
        {
          "name": "_mid",
          "type": "uint256"
        },
        {
          "name": "_name",
          "type": "bytes32"
        },
        {
          "name": "_country",
          "type": "bytes32"
        },
        {
          "name": "_phone",
          "type": "int256"
        },
        {
          "name": "_website",
          "type": "bytes32"
        }
      ],
      "name": "setBrand",
      "outputs": [],
      "payable": true,
      "stateMutability": "payable",
      "type": "function"
    },
    {
      "constant": true,
      "inputs": [],
      "name": "getBrands",
      "outputs": [
        {
          "name": "",
          "type": "uint256[]"
        }
      ],
      "payable": false,
      "stateMutability": "view",
      "type": "function"
    },
    {
      "constant": true,
      "inputs": [
        {
          "name": "_mid",
          "type": "uint256"
        }
      ],
      "name": "getManufacturerById",
      "outputs": [
        {
          "name": "",
          "type": "uint256"
        },
        {
          "name": "",
          "type": "bytes32"
        },
        {
          "name": "",
          "type": "bytes32"
        },
        {
          "name": "",
          "type": "int256"
        },
        {
          "name": "",
          "type": "bytes32"
        }
      ],
      "payable": false,
      "stateMutability": "view",
      "type": "function"
    },
    {
      "constant": true,
      "inputs": [],
      "name": "countBrands",
      "outputs": [
        {
          "name": "",
          "type": "uint256"
        }
      ],
      "payable": false,
      "stateMutability": "view",
      "type": "function"
    },
    {
      "constant": true,
      "inputs": [
        {
          "name": "_name",
          "type": "string"
        }
      ],
      "name": "getManufacturerByName",
      "outputs": [
        {
          "name": "",
          "type": "uint256"
        },
        {
          "name": "",
          "type": "bytes32"
        },
        {
          "name": "",
          "type": "bytes32"
        },
        {
          "name": "",
          "type": "int256"
        },
        {
          "name": "",
          "type": "bytes32"
        }
      ],
      "payable": false,
      "stateMutability": "view",
      "type": "function"
    }
  ],
  "bytecode": "0x608060405234801561001057600080fd5b50610613806100206000396000f300608060405260043610610078576000357c0100000000000000000000000000000000000000000000000000000000900463ffffffff16806319b6bbe41461007d57806344041a8d146100be5780636c1f4200146100e9578063715eabaa1461019a578063822d487d146101ee578063da08402d1461025a575b600080fd5b34801561008957600080fd5b506100a8600480360381019080803590602001909291905050506102cf565b6040518082815260200191505060405180910390f35b3480156100ca57600080fd5b506100d36102f2565b6040518082815260200191505060405180910390f35b3480156100f557600080fd5b50610150600480360381019080803590602001908201803590602001908080601f01602080910402602001604051908101604052809392919081815260200183838082843782019150505050505091929192905050506102ff565b604051808681526020018560001916600019168152602001846000191660001916815260200183815260200182600019166000191681526020019550505050505060405180910390f35b6101ec6004803603810190808035906020019092919080356000191690602001909291908035600019169060200190929190803590602001909291908035600019169060200190929190505050610481565b005b3480156101fa57600080fd5b50610203610506565b6040518080602001828103825283818151815260200191508051906020019060200280838360005b8381101561024657808201518184015260208101905061022b565b505050509050019250505060405180910390f35b34801561026657600080fd5b506102856004803603810190808035906020019092919050505061055e565b604051808681526020018560001916600019168152602001846000191660001916815260200183815260200182600019166000191681526020019550505050505060405180910390f35b6001818154811015156102de57fe5b906000526020600020016000915090505481565b6000600180549050905090565b6000806000806000806000806000806001805490509450600092505b848310156103fb5760018381548110151561033257fe5b9060005260206000200154915060008083815260200190815260200160002090508a6040518082805190602001908083835b6020831015156103895780518252602082019150602081019050602083039250610364565b6001836020036101000a038019825116818451168082178552505050505050905001915050604051809103902060001916816001015460405180826000191660001916815260200191505060405180910390206000191614156103ee578193506103fb565b828060010193505061031b565b600080858152602001908152602001600020600001546000808681526020019081526020016000206001015460008087815260200190815260200160002060020154600080888152602001908152602001600020600301546000808981526020019081526020016000206004015499509950995099509950505050505091939590929450565b6000806000878152602001908152602001600020905085816000018190555084816001018160001916905550838160020181600019169055508281600301819055508181600401816000191690555060018087908060018154018082558091505090600182039060005260206000200160009091929091909150555050505050505050565b6060600180548060200260200160405190810160405280929190818152602001828054801561055457602002820191906000526020600020905b815481526020019060010190808311610540575b5050505050905090565b60008060008060008060008781526020019081526020016000206000015460008088815260200190815260200160002060010154600080898152602001908152602001600020600201546000808a8152602001908152602001600020600301546000808b81526020019081526020016000206004015494509450945094509450919395909294505600a165627a7a72305820c6c841fb97158066934928652fd02cb43c629af7d3effa71afb453c4597238140029",
  "source": "pragma solidity ^0.4.18;\ncontract Manufacturer {\n\n    struct Brand {\n        uint mid;\n        bytes32 name;\n        bytes32 country;\n        int phone;\n        bytes32 website;\n    }\n    mapping (uint => Brand) brands;\n    uint[] public BrandAccts;\n\n    function setBrand(uint _mid, bytes32 _name, bytes32 _country, int _phone, bytes32 _website) public payable{\n        Brand storage branding = brands[_mid];\n\n        branding.mid = _mid;\n        branding.name = _name;\n        branding.country = _country;\n        branding.phone = _phone;\n        branding.website = _website;\n\n        BrandAccts.push(_mid) -1;\n    }\n\n    function getBrands() view public returns(uint[]) {\n        return BrandAccts;\n    }\n\n    function getManufacturerById(uint _mid) view public returns (uint, bytes32, bytes32, int, bytes32) {\n        return (brands[_mid].mid, brands[_mid].name, brands[_mid].country, brands[_mid].phone, brands[_mid].website);\n    }\n\n    function countBrands() view public returns (uint) {\n        return BrandAccts.length;\n    }\n\n    function getManufacturerByName(string _name) view public returns (uint, bytes32, bytes32, int, bytes32) {\n        uint brandCount = BrandAccts.length;\n        uint mid;\n        for (uint i=0; i<brandCount; i++) {\n            uint brandId = BrandAccts[i];\n            Brand storage brand = brands[brandId];\n            if(keccak256(brand.name) == keccak256(_name)){\n                mid = brandId;\n                break;\n            }\n        }\n        return (brands[mid].mid, brands[mid].name, brands[mid].country, brands[mid].phone, brands[mid].website);\n\n    }\n\n\n}\n",
  "sourcePath": "/Users/johnsgeorge/Desktop/CarApplication/CarBackEnd/contracts/Manufacturer.sol",
  "compiler": {
    "name": "solc",
    "version": "0.4.24+commit.e67f0147.Emscripten.clang"
  },
  "schemaVersion": "2.0.0",
  "updatedAt": "2018-07-30T18:34:02.508Z"
}