{
  "contractName": "Scrappage",
  "abi": [
    {
      "constant": true,
      "inputs": [
        {
          "name": "",
          "type": "uint256"
        }
      ],
      "name": "scrapAccts",
      "outputs": [
        {
          "name": "",
          "type": "uint256"
        }
      ],
      "payable": false,
      "stateMutability": "view",
      "type": "function"
    },
    {
      "constant": false,
      "inputs": [
        {
          "name": "_carid",
          "type": "uint256"
        },
        {
          "name": "_scrapDate",
          "type": "bytes32"
        }
      ],
      "name": "setScraps",
      "outputs": [],
      "payable": true,
      "stateMutability": "payable",
      "type": "function"
    },
    {
      "constant": true,
      "inputs": [],
      "name": "getScraps",
      "outputs": [
        {
          "name": "",
          "type": "uint256[]"
        }
      ],
      "payable": false,
      "stateMutability": "view",
      "type": "function"
    },
    {
      "constant": true,
      "inputs": [
        {
          "name": "_carid",
          "type": "uint256"
        }
      ],
      "name": "getScrap",
      "outputs": [
        {
          "name": "",
          "type": "uint256"
        },
        {
          "name": "",
          "type": "bytes32"
        }
      ],
      "payable": false,
      "stateMutability": "view",
      "type": "function"
    },
    {
      "constant": true,
      "inputs": [],
      "name": "countScraps",
      "outputs": [
        {
          "name": "",
          "type": "uint256"
        }
      ],
      "payable": false,
      "stateMutability": "view",
      "type": "function"
    }
  ],
  "bytecode": "0x608060405234801561001057600080fd5b50610313806100206000396000f30060806040526004361061006d576000357c0100000000000000000000000000000000000000000000000000000000900463ffffffff168063168f6da61461007257806388697619146100c2578063a4c20cf714610103578063c11873be14610131578063eacd0fd91461015c575b600080fd5b34801561007e57600080fd5b5061009d600480360381019080803590602001909291905050506101c8565b6040518083815260200182600019166000191681526020019250505060405180910390f35b3480156100ce57600080fd5b506100ed60048036038101908080359060200190929190505050610200565b6040518082815260200191505060405180910390f35b61012f600480360381019080803590602001909291908035600019169060200190929190505050610223565b005b34801561013d57600080fd5b50610146610282565b6040518082815260200191505060405180910390f35b34801561016857600080fd5b5061017161028f565b6040518080602001828103825283818151815260200191508051906020019060200280838360005b838110156101b4578082015181840152602081019050610199565b505050509050019250505060405180910390f35b600080600080848152602001908152602001600020600001546000808581526020019081526020016000206001015491509150915091565b60018181548110151561020f57fe5b906000526020600020016000915090505481565b600080600084815260200190815260200160002090508281600001819055508181600101816000191690555060018084908060018154018082558091505090600182039060005260206000200160009091929091909150555050505050565b6000600180549050905090565b606060018054806020026020016040519081016040528092919081815260200182805480156102dd57602002820191906000526020600020905b8154815260200190600101908083116102c9575b50505050509050905600a165627a7a72305820c88cb9cdc38aad06c77a88c99d5a19da87981fdc077bec8ed95853c0d45f4eac0029",
  "source": "pragma solidity ^0.4.18;\ncontract Scrappage {\n\n    struct Scrap {\n        uint carid;\n        bytes32 scrapDate;\n    }\n    mapping (uint => Scrap) scraps;\n    uint[] public scrapAccts;\n\n    function setScraps(uint _carid, bytes32 _scrapDate) public payable{\n        Scrap storage scrap = scraps[_carid];\n\n        scrap.carid = _carid;\n        scrap.scrapDate = _scrapDate;\n\n\n        scrapAccts.push(_carid) -1;\n    }\n\n    function getScraps() view public returns(uint[]) {\n        return scrapAccts;\n    }\n\n    function getScrap(uint _carid) view public returns (uint, bytes32) {\n        return (scraps[_carid].carid, scraps[_carid].scrapDate);\n    }\n\n    function countScraps() view public returns (uint) {\n        return scrapAccts.length;\n    }\n\n\n}\n",
  "sourcePath": "/Users/johnsgeorge/Desktop/CarApplication/CarBackEnd/contracts/Scappage.sol",
  "compiler": {
    "name": "solc",
    "version": "0.4.24+commit.e67f0147.Emscripten.clang"
  },
  "schemaVersion": "2.0.0",
  "updatedAt": "2018-07-30T18:34:02.509Z"
}