{
  "contractName": "Vehicles",
  "abi": [
    {
      "constant": true,
      "inputs": [
        {
          "name": "",
          "type": "uint256"
        }
      ],
      "name": "carAccts",
      "outputs": [
        {
          "name": "",
          "type": "uint256"
        }
      ],
      "payable": false,
      "stateMutability": "view",
      "type": "function"
    },
    {
      "constant": false,
      "inputs": [
        {
          "name": "_carid",
          "type": "uint256"
        },
        {
          "name": "_model",
          "type": "bytes32"
        },
        {
          "name": "_year",
          "type": "int256"
        },
        {
          "name": "_value",
          "type": "int256"
        },
        {
          "name": "_active",
          "type": "bool"
        },
        {
          "name": "_mid",
          "type": "uint256"
        }
      ],
      "name": "setCar",
      "outputs": [],
      "payable": true,
      "stateMutability": "payable",
      "type": "function"
    },
    {
      "constant": true,
      "inputs": [],
      "name": "getCars",
      "outputs": [
        {
          "name": "",
          "type": "uint256[]"
        }
      ],
      "payable": false,
      "stateMutability": "view",
      "type": "function"
    },
    {
      "constant": true,
      "inputs": [
        {
          "name": "_carid",
          "type": "uint256"
        }
      ],
      "name": "getCar",
      "outputs": [
        {
          "name": "",
          "type": "uint256"
        },
        {
          "name": "",
          "type": "bytes32"
        },
        {
          "name": "",
          "type": "int256"
        },
        {
          "name": "",
          "type": "int256"
        },
        {
          "name": "",
          "type": "bool"
        },
        {
          "name": "",
          "type": "uint256"
        }
      ],
      "payable": false,
      "stateMutability": "view",
      "type": "function"
    },
    {
      "constant": true,
      "inputs": [],
      "name": "countCars",
      "outputs": [
        {
          "name": "",
          "type": "uint256"
        }
      ],
      "payable": false,
      "stateMutability": "view",
      "type": "function"
    },
    {
      "constant": true,
      "inputs": [
        {
          "name": "_model",
          "type": "string"
        }
      ],
      "name": "getVehicleByModel",
      "outputs": [
        {
          "name": "",
          "type": "uint256"
        },
        {
          "name": "",
          "type": "bytes32"
        },
        {
          "name": "",
          "type": "int256"
        },
        {
          "name": "",
          "type": "int256"
        },
        {
          "name": "",
          "type": "bool"
        },
        {
          "name": "",
          "type": "uint256"
        }
      ],
      "payable": false,
      "stateMutability": "view",
      "type": "function"
    }
  ],
  "bytecode": "0x608060405234801561001057600080fd5b5061066e806100206000396000f300608060405260043610610077576000357c0100000000000000000000000000000000000000000000000000000000900463ffffffff168062f257471461007c57806317c392861461012857806345bae1eb146101945780635bd1b8c5146101d55780635e8be19014610200578063ae3d0eec14610270575b600080fd5b34801561008857600080fd5b506100e3600480360381019080803590602001908201803590602001908080601f01602080910402602001604051908101604052809392919081815260200183838082843782019150505050505091929192905050506102c8565b60405180878152602001866000191660001916815260200185815260200184815260200183151515158152602001828152602001965050505050505060405180910390f35b34801561013457600080fd5b5061013d610471565b6040518080602001828103825283818151815260200191508051906020019060200280838360005b83811015610180578082015181840152602081019050610165565b505050509050019250505060405180910390f35b3480156101a057600080fd5b506101bf600480360381019080803590602001909291905050506104c9565b6040518082815260200191505060405180910390f35b3480156101e157600080fd5b506101ea6104ec565b6040518082815260200191505060405180910390f35b34801561020c57600080fd5b5061022b600480360381019080803590602001909291905050506104f9565b60405180878152602001866000191660001916815260200185815260200184815260200183151515158152602001828152602001965050505050505060405180910390f35b6102c66004803603810190808035906020019092919080356000191690602001909291908035906020019092919080359060200190929190803515159060200190929190803590602001909291905050506105a8565b005b60008060008060008060008060008060006001805490509450600092505b848310156103c6576001838154811015156102fd57fe5b9060005260206000200154915060008083815260200190815260200160002090508b6040518082805190602001908083835b602083101515610354578051825260208201915060208101905060208303925061032f565b6001836020036101000a038019825116818451168082178552505050505050905001915050604051809103902060001916816001015460405180826000191660001916815260200191505060405180910390206000191614156103b9578193506103c6565b82806001019350506102e6565b6000808581526020019081526020016000206000015460008086815260200190815260200160002060010154600080878152602001908152602001600020600201546000808881526020019081526020016000206003015460008089815260200190815260200160002060040160009054906101000a900460ff166000808a8152602001908152602001600020600501549a509a509a509a509a509a50505050505091939550919395565b606060018054806020026020016040519081016040528092919081815260200182805480156104bf57602002820191906000526020600020905b8154815260200190600101908083116104ab575b5050505050905090565b6001818154811015156104d857fe5b906000526020600020016000915090505481565b6000600180549050905090565b60008060008060008060008088815260200190815260200160002060000154600080898152602001908152602001600020600101546000808a8152602001908152602001600020600201546000808b8152602001908152602001600020600301546000808c815260200190815260200160002060040160009054906101000a900460ff166000808d81526020019081526020016000206005015495509550955095509550955091939550919395565b6000806000888152602001908152602001600020905086816000018190555085816001018160001916905550848160020181905550838160030181905550828160040160006101000a81548160ff02191690831515021790555081816005018190555060018088908060018154018082558091505090600182039060005260206000200160009091929091909150555050505050505050505600a165627a7a7230582038c010032a0b0bc4f20c50954b30f30c34aa218b627c07da75e9e9a2fdf423f30029",
  "source": "pragma solidity ^0.4.18;\ncontract Vehicles {\n\n    struct Car {\n        uint carid;\n        bytes32 model;\n        int year;\n        int value;\n        bool active;\n        uint mid;\n    }\n    mapping (uint => Car) c;\n    uint[] public carAccts;\n\n    function setCar(uint _carid, bytes32 _model, int _year, int _value, bool _active, uint _mid) public payable{\n        Car storage cars = c[_carid];\n\n        cars.carid = _carid;\n        cars.model = _model;\n        cars.year = _year;\n        cars.value = _value;\n        cars.active = _active;\n        cars.mid = _mid;\n        carAccts.push(_carid) -1;\n    }\n\n    function getCars() view public returns(uint[]) {\n        return carAccts;\n    }\n\n    function getCar(uint _carid) view public returns (uint, bytes32, int, int, bool, uint) {\n        return (c[_carid].carid, c[_carid].model, c[_carid].year, c[_carid].value, c[_carid].active, c[_carid].mid);\n    }\n\n    function countCars() view public returns (uint) {\n        return carAccts.length;\n    }\n\n\n    function getVehicleByModel(string _model) view public returns (uint, bytes32, int, int, bool, uint) {\n        uint carsCount = carAccts.length;\n        uint vehicleid;\n        for (uint i=0; i<carsCount; i++) {\n            uint carId = carAccts[i];\n            Car storage car =  c[carId];\n            if(keccak256(car.model) == keccak256(_model)){\n                vehicleid = carId;\n                break;\n            }\n        }\n        return (c[vehicleid].carid, c[vehicleid].model, c[vehicleid].year, c[vehicleid].value, c[vehicleid].active, c[vehicleid].mid);\n\n    }\n\n}\n",
  "sourcePath": "/Users/johnsgeorge/Desktop/CarApplication/CarBackEnd/contracts/Vehicles.sol",
  "compiler": {
    "name": "solc",
    "version": "0.4.24+commit.e67f0147.Emscripten.clang"
  },
  "schemaVersion": "2.0.0",
  "updatedAt": "2018-07-30T18:34:02.509Z"
}